:100000000C9485000C94BB070C9494070C94AD00E1
:100010000C94AD000C94AD000C94AD000C94AD00AC
:100020000C94AD000C94AD000C94AD000C94E20760
:100030000C94AD000C94AD000C94AD000C94AD008C
:100040000C944E070C94AD000C941C070C94F6060F
:100050000C94AD000C94AD000C94AD000C94AD006C
:100060000C94AD000C94AD000C9400000C940000B6
:100070000C9400000C94000005A84CCDB2D44EB9ED
:100080003836A9020C50B9918688083CA6AAAA2A3B
:10009000BE000000803F00000000240027002A006E
:1000A0002D0000000000250028002B002E0000007D
:1000B00000085002010000030407000000000000D7
:1000C0000000000001020408102040800102040822
:1000D00010200102040810200208010410402040F2
:1000E000000000002300260029002C000404040462
:1000F00004040404020202020202030303030303D2
:1001000005050505050505031D2811241FBECFEFB4
:10011000D8E0DEBFCDBF11E0A0E0B1E0E2E1F0E663
:1001200002C005900D92AC37B107D9F723E0ACE7D8
:10013000B1E001C01D92AC32B207E1F710E0C5E8B2
:10014000D0E004C02197FE010E94C32EC438D1071D
:10015000C9F70E9482290C9407300C940000AF92DA
:10016000BF92CF92DF92EF92FF920F931F93CF93A4
:10017000DF936C017B018B01040F151FEB015E0106
:10018000AE18BF08C017D10759F06991D601ED919B
:10019000FC910190F081E02DC6010995892B79F73A
:1001A000C501DF91CF911F910F91FF90EF90DF90EC
:1001B000CF90BF90AF900895FC01538D448D252FB3
:1001C00030E0842F90E0821B930B541710F0CF96F1
:1001D000089501970895FC01918D828D981761F023
:1001E000A28DAE0FBF2FB11D5D968C91928D9F5F3A
:1001F0009F73928F90E008958FEF9FEF0895FC0119
:10020000918D828D981731F0828DE80FF11D858DCB
:1002100090E008958FEF9FEF0895FC01918D228D5E
:10022000892F90E0805C9F4F821B91098F739927E3
:1002300008958DE991E00E940D0121E0892B09F4D8
:1002400020E0822F089580E090E0892B29F00E9421
:10025000190181110C9400000895FC01A48DA80FD0
:10026000B92FB11DA35ABF4F2C91848D90E00196F8
:100270008F739927848FA689B7892C93A089B18918
:100280008C91837080648C93938D848D981306C0B9
:100290000288F389E02D80818F7D80830895EF921D
:1002A000FF920F931F93CF93DF93EC0181E0888F30
:1002B0009B8D8C8D98131AC0E889F989808185FF00
:1002C00015C09FB7F894EE89FF896083E889F989A2
:1002D00080818370806480839FBF81E090E0DF91A4
:1002E000CF911F910F91FF90EF900895F62E0B8DF7
:1002F00010E00F5F1F4F0F731127E02E8C8D8E11B2
:100300000CC00FB607FCFACFE889F989808185FF18
:10031000F5CFCE010E942D01F1CFEB8DEC0FFD2F1B
:10032000F11DE35AFF4FF0829FB7F8940B8FEA89D3
:10033000FB8980818062CFCFCF93DF93EC01888DE2
:100340008823B9F0AA89BB89E889F9898C9185FD50
:1003500003C0808186FD0DC00FB607FCF7CF8C91DE
:1003600085FFF2CF808185FFEDCFCE010E942D0168
:10037000E9CFDF91CF91089581508B3088F5E82F38
:10038000F0E0EB53FE4F0C94C32EDA01DE01D001F6
:10039000D601F001F001E101E701EB01F101F50106
:1003A000809180008F7780938000089580918000F5
:1003B0008F7DF9CF84B58F7784BD089584B58F7D07
:1003C000FBCF8091B0008F778093B000089580912B
:1003D000B0008F7DF9CF809190008F77809390004F
:1003E0000895809190008F7DF9CF80919000877F54
:1003F000F5CF1F93CF93DF93EBEBF0E09491E1ED1A
:10040000F0E0D491E9EFF0E0C491CC23B9F0182FDB
:10041000992319F0892F0E94BC01EC2FF0E0EE0F18
:10042000FF1FEE55FF4FA591B4918FB7F894EC9153
:10043000111108C0D095DE23DC938FBFDF91CF91DF
:100440001F910895DE2BF8CFCF93DF93282F30E054
:10045000F901EC53FF4F949124513F4FF90124913E
:10046000633029F5843039F53091A0003C60309339
:10047000A0002223C9F030E0220F331FF901EA5611
:10048000FF4FA591B491F901EE55FF4FC591D4915D
:10049000611126C02FB7F8948C91909589238C9385
:1004A0008881982398832FBFDF91CF91089584305E
:1004B00011F433E0DCCF3AEE380F323020F43FEF66
:1004C00034BF34BFD6CF8931A1F63091F00032600D
:1004D0003EBB30E83093F0003EB33093F000C9CF1C
:1004E000623051F42FB7F8943C91892F8095832383
:1004F0008C93E8819E2BD6CF843011F46130A1F625
:100500008FB7F894EC919E2B9C938FBFCDCF8091A9
:100510007A00806480937A0080917A0086FDFCCF17
:10052000809178009091790008950F931F93CF9355
:10053000DF93EDEAF0E09081907F90838E508064AD
:1005400080937C000DE710E0F80180818062808359
:100550000E948702EC01F80180818F7D80830E94D8
:1005600087028C0F9D1F9C0136952795892F99270F
:10057000A901481B590BCA01DF91CF911F910F911F
:1005800008950E949502959587959595879508956C
:100590002FB7F8946091870170918801809189014B
:1005A00090918A012FBF08950895862F642F0C948F
:1005B0002402CF93DF93FC01218930E0F901E25559
:1005C000FF4F8491F901EC53FF4FD491F901E451AD
:1005D000FF4FC491CC2379F081110E94BC01EC2F14
:1005E000F0E0EE0FFF1FE052FF4FA591B491EC91A8
:1005F000ED2381E009F480E08170DF91CF910895CF
:10060000DC01ED91FD918081ED91FD919081ED9165
:10061000FD916C9163708E2309F064609F2309F053
:100620006860EDE1F3E0E60FF11D659565956D936A
:100630006D917D918D919D91099423C01AC012C036
:1006400016C010C01EC009C014C013C006C019C017
:1006500009C00DC007C00DC014C06250704080407A
:1006600090400BC0615070408040904006C06E5F6B
:1006700001C06F5F7F4F8F4F9F4F9E938E937E93EE
:100680006E93089580913A0290913B020C9400037E
:1006900080913C0290913D020C9400038F929F92B6
:1006A000AF92BF92CF92DF92EF92FF920F931F9380
:1006B000CF93DF93FC01E35BFF4F2081222309F4FA
:1006C00019C2EC018C8D882309F452C00A8D1B8D50
:1006D000D80118968C9118978B7F18968C93189741
:1006E000ED91FC910190F081E02DC8010995F82E63
:1006F000F801808586958170F81609F467C10E941B
:10070000C802D80112966D937D938D939C93159793
:1007100018968C91189792E0892718968C93D80197
:1007200018968C9182FF24C00E94C8026FAB78AFEC
:1007300089AF9AAF1FAEE881F981309711F0CE01F1
:100740000995EA8DFB8D808581708EA79085892F14
:10075000847090FD7FC1882359F081E0FE01E05C48
:10076000FF4F8083EA81FB81309711F0CE0109951C
:100770008D8D882309F476C00E94C802AB01BC01AC
:100780008E010B5B1F4FFE01ED5BFF4F208131811E
:10079000F80180819181A281B381820F931FA11DF5
:1007A000B11D84179507A607B70708F05BC0E88C52
:1007B000F98CD7011B968C91823008F06EC1F894A9
:1007C000C7010E940003F7016781708581859285CA
:1007D00078942E8D30E050E040E00E94182CCA0141
:1007E000B9010E94B82C0E94802C8F8C98A0A9A0DF
:1007F000BAA0681579058A059B0561F19B01281946
:1008000039093CA72BA76F8F78A389A39AA31FAEA2
:100810000E94C8026FAB78AF89AF9AAF2EA58BA5A7
:100820009CA5213009F03BC1092E000CAA0BBB0B83
:100830004BA15CA16DA17EA1840F951FA61FB71FC0
:100840008BA39CA3ADA3BEA3E889F989309711F0CF
:10085000CE0109950E94C802D8016D937D938D93B6
:100860009C9313978C8D882309F482C08DA58111E8
:1008700045C00A8D1B8DF801808580FD3FC00E9418
:10088000C8022DA93EA92F5F3F4F49A95AA9249F0D
:100890004001259F900C349F900C1124B12CA12C69
:1008A000D80119960D911D912D913C911C97601BBB
:1008B000710B820B930B86169706A806B906D8F41F
:1008C0000E94C8026FAB78AF89AF9AAFFE01EE5BB2
:1008D000FF4F8081811104C08DA99EA9892B31F41D
:1008E000EE85FF85309711F0CE0109958DA99EA95F
:1008F00001969EAB8DAB8C8D8823D1F18BA9811194
:1009000037C01EA51130A1F5EA8CFB8C0E94C802ED
:100910008FA498A8B12CA12CF701C184D284E384C0
:10092000F4846C197D098E099F0986169706A8061E
:10093000B906F0F41BAB89A99AA9B0E0A0E0EA8D52
:10094000FB8D4585568567857089FE01EF5BFF4FFE
:1009500084179507A607B70708F0B6C01CAA10832E
:100960001EAA1DAAE885F985309711F0CE010995D8
:100970008FAD8111BFC08E899F89892B09F4BAC0C0
:100980000E94C8020FA918AD29AD3AAD601B710BCA
:10099000820B930B0BAD1CAD2DAD3EAD06171707AB
:1009A0002807390708F0A6C081E08FAFEE89FF89DC
:1009B000CE01DF91CF911F910F91FF90EF90DF90CB
:1009C000CF90BF90AF909F908F9009940E94C802E3
:1009D000F80182809380A480B580AB01BC014819E6
:1009E00059096A097B0986819781B0E0A0E0481720
:1009F00059076A077B0708F492CE80858170F81644
:100A000009F48DCE0E94C802D80112966D937D9391
:100A10008D939C93159718968C91189791E0892740
:100A2000846018968C930E94C802F801C184D28415
:100A3000E384F4846C197D098E099F0965877687A4
:100A40008787908B0E94C802F8016187728783872D
:100A5000948765CE882309F48BCE8DA58E01005C2A
:100A60001F4F882379F01DA6FE01EF5BFF4F108218
:100A70001CAAEC89FD89309711F0CE010995D801A7
:100A80001C9276CEF8018081882321F01BAA8CA9C4
:100A90008F5F8CABEC81FD81EECFF89494CE21E09A
:100AA0002DA7092E000CAA0BBB0B4FA158A569A5B9
:100AB0007AA5840F951FA61FB71F8FA398A7A9A774
:100AC000BAA7EA89FB89C2CE8CA98083833039F426
:100AD000EC85FD85309741F0CE01099509C0823043
:100AE00019F4EA85FB85F6CFEE81FF813097A1F7F7
:100AF0001CAA3ECFDF91CF911F910F91FF90EF90F5
:100B0000DF90CF90BF90AF909F908F900895FC01A1
:100B100001900020E9F73197AF01481B590BBC0148
:100B20008DE991E00C94AF008F929F92AF92BF92AB
:100B30000F931F93CF93DF93CDB7DEB7A1970FB677
:100B4000F894DEBF0FBECDBF19A2423008F44AE0D0
:100B50008E010F5D1F4F842E912CB12CA12CA5016D
:100B600094010E944A2CE62FB901CA01EA30F4F43C
:100B7000E05DD801EE938D01232B242B252B79F7F3
:100B800090E080E0109719F0CD010E948705A196B2
:100B90000FB6F894DEBF0FBECDBFDF91CF911F918E
:100BA0000F91BF90AF909F908F900895E95CE1CF37
:100BB000CF92DF92EF92FF92CF93DF936C01990F68
:100BC000EE08FF08F7FE1FC06DE28DE991E00E947C
:100BD0004F01EC0166277727CB016C197D098E093F
:100BE0009F094AE00E949405C80FD91F89E791E048
:100BF0000E9487058C0F9D1FDF91CF91FF90EF9092
:100C0000DF90CF9008954AE0C701B6010E94940595
:100C1000EC01ECCF20914B0130914C01213031059A
:100C2000E1F48091490190914A018331910574F476
:100C3000019690934A0180934901809149019091D6
:100C40004A01909348018093470108954397A9F77B
:100C500030934A0120934901F0CF22303105B1F49D
:100C600080914501909146018731910554F4019698
:100C700090934601809345018091450190914601F2
:100C8000E0CF4797C9F781E090E0F2CF23303105FC
:100C9000E1F68091430190914401873191052CF454
:100CA0000196909344018093430180914301909178
:100CB0004401C7CF4091510150915201FC0123A53D
:100CC00034A586E0220F331F8A95E1F7240F351FE4
:100CD00030935201209351014217530771F0032EB4
:100CE000000C440B550B60E078E488EE91E00E9424
:100CF000182C3093890020938800089580914B012F
:100D000090914C0181309105D1F4809149019091ED
:100D10004A018230910574F0019790934A018093C3
:100D200049018091490190914A0190934801809333
:100D3000470108950197A9F783E190E0EECF823053
:100D40009105B1F480914501909146018230910561
:100D500054F001979093460180934501809145019D
:100D600090914601E2CF0197C9F787E190E0F2CF79
:100D70000397F9F6809143019091440182309105E7
:100D800054F0019790934401809343018091430173
:100D900090914401CACF0197C9F784E190E0F2CF66
:100DA0008F5B9F4FFC01808190E090934C0180937A
:100DB0004B0108952091410130914201FC0183A52E
:100DC00094A5820F931F8830910514F087E090E07E
:100DD000893FFFEF9F0714F489EF9FEF9093420143
:100DE00080934101089508950E9402301F920F924E
:100DF0000FB60F9211242F933F934F935F936F93EE
:100E00007F938F939F93AF93BF93EF93FF938DE95E
:100E100091E00E942D01FF91EF91BF91AF919F91C1
:100E20008F917F916F915F914F913F912F910F9093
:100E30000FBE0F901F9018951F920F920FB60F9232
:100E400011242F938F939F93EF93FF93E091AD0124
:100E5000F091AE018081E091B301F091B40182FD87
:100E60001BC090818091B6018F5F8F732091B70175
:100E7000821741F0E091B601F0E0E356FE4F958F06
:100E80008093B601FF91EF919F918F912F910F90D9
:100E90000FBE0F901F9018958081F4CF1F920F9274
:100EA0000FB60F9211242F933F938F939F93AF937D
:100EB000BF938091870190918801A0918901B091A1
:100EC0008A013091860120E4230F2D3728F023EC8E
:100ED000230F0196A11DB11D2093860180938701E8
:100EE00090938801A0938901B0938A018091820137
:100EF00090918301A0918401B09185010196A11D7B
:100F0000B11D8093820190938301A0938401B093DB
:100F10008501BF91AF919F918F913F912F910F903C
:100F20000FBE0F901F9018951F920F920FB60F9241
:100F300011242F933F934F935F936F937F938F93DE
:100F40009F93AF93BF93EF93FF93E0914F01F09185
:100F500050010995FF91EF91BF91AF919F918F91B2
:100F60007F916F915F914F913F912F910F900FBEA5
:100F70000F901F9018951F920F920FB60F92112489
:100F80002F933F934F935F936F937F938F939F9391
:100F9000AF93BF93EF93FF93E0914D01F0914E011A
:100FA0000995FF91EF91BF91AF919F918F917F91A3
:100FB0006F915F914F913F912F910F900FBE0F90C6
:100FC0001F9018951F920F920FB60F9211242F9217
:100FD0003F924F925F926F927F928F929F92AF92C9
:100FE000BF92CF92DF92EF92FF920F931F932F93B6
:100FF0003F934F935F936F937F938F939F93AF93A1
:10100000BF93EF93FF93CF93DF93CDB7DEB72697D0
:10101000DEBFCDBF80914B0190914C018230910594
:1010200011F40C94CA118330910511F40C94A91D8C
:10103000019709F0DCC1E0914901F0914A01319733
:10104000E231F10508F0D3C1E05DF74F80907E01F9
:1010500090907F01A0908001B09081010C94C32EEC
:101060004208C108340994094E0ADD0A860B260C91
:10107000B40C230DB50D230EA10E390FC90F5B1053
:10108000E7106F1180E290E0909358018093570130
:1010900081E090E0909394018093930120E130E00F
:1010A00030935601209355019093900180938F01C6
:1010B00029E030E0309354012093530190938C0148
:1010C00080938B0180918D0190918E0124013501D7
:1010D00004C075946794579447948A95D2F7C201D7
:1010E000F401E170FF27E425F927D501C4015DE093
:1010F000B595A795979587955A95D1F78825992500
:10110000880D991DB501A401A5E0759567955795C2
:101110004795AA95D1F7452B462B472B69F120918E
:1011200091013091920160919501709196017595B0
:10113000679548E050E0461B570B7501640104C0F9
:10114000F594E794D794C7944A95D2F7A901330F41
:10115000660B770B4C215D21849E9001859E300D9E
:10116000949E300D1124821B930B8E2B9F2B9093FA
:101170009801809397013BC1209195013091960190
:10118000D2CF20E130E0309358012093570181E025
:1011900090E09093940180939301309356012093B3
:1011A00055019093900180938F01309354012093C7
:1011B000530190938C0180938B0180918D019091CC
:1011C0008E0188219921B501A401B4E07595679538
:1011D00057954795BA95D1F79C0124273527BB270A
:1011E000B7FCBA95AB2D9A2D892D88259925880DA8
:1011F000991DB501A40103E075956795579547952D
:101200000A95D1F7452B462B472B49F16091910167
:1012100070919201E0919101F0919201F595E7951D
:1012200045E050E04E1B5F0B7501640104C0F5946E
:10123000E794D794C7944A95D2F7AB01770F660B22
:10124000770B4C215D21849EF001859EF00D949ECC
:10125000F00D11248E1B9F0B822B932B88CF609156
:10126000950170919601D6CF20E130E0309358017E
:101270002093570181E090E0909394018093930133
:1012800030935601209355019093900180938F01E4
:10129000309354012093530190938C0180938B01E0
:1012A000209195013091960180918D0190918E0150
:1012B000220F331F8501740104C015950795F7941B
:1012C000E7942A95D2F79701882199212827392771
:1012D000D501C40165E1B595A795979587956A9560
:1012E000D1F788259925880D991DB501A40147706E
:1012F000552766277727452B462B472B81F0609192
:10130000910170919201E0919101F091920145E07B
:10131000F595E7954A95E1F748E050E083CF609175
:10132000950170919601EFCF80E190E09093580184
:10133000809357011092940110929301909356015B
:10134000809355011092900110928F019093540157
:101350008093530110928C0110928B01D501C4012E
:101360008F719927AA27BB27892B8A2B8B2B09F4EE
:101370008BC0D501C40180959095A095B09522E0D1
:10138000B595A795979587952A95D1F7FC0140913A
:101390009501509196018091910190919201209137
:1013A0008D0130918E012401350104C0759467943C
:1013B000579447944A95D2F7D4011197A40DB51DBF
:1013C00097FD0196959587958825992504C0B59434
:1013D000A794979487942A95D2F7882A992AA819CE
:1013E000B909EA23FB23F0939801E09397018091D8
:1013F0009701909198018093B30080914101909161
:1014000042010097C1F0092E000CAA0BBB0B4091C2
:101410007E0150917F016091800170918101840F64
:10142000951FA61FB71F80937E0190937F01A09305
:101430008001B093810126960FB6F894DEBF0FBEEF
:10144000CDBFDF91CF91FF91EF91BF91AF919F9170
:101450008F917F916F915F914F913F912F911F914C
:101460000F91FF90EF90DF90CF90BF90AF909F9043
:101470008F907F906F905F904F903F902F900F9044
:101480000FBE0F901F901895D501C40103E0B595CC
:10149000A795979587950A95D1F778CF20E130E009
:1014A000309358012093570181E090E0909394018C
:1014B00080939301309356012093550190939001AE
:1014C00080938F01309354012093530190938C01AA
:1014D00080938B0100919501109196016090950188
:1014E000709096017A826982C0909101D0909201A9
:1014F000E0908D01F0908E0120908D0130908E0152
:101500004090910150909201A4ECB0E0A5019401AB
:101510000E94372C052C000C66087708640D751D99
:10152000861D971D0E94B82C0E947B2C2B013C012C
:1015300029813A812C533F4F83E090E0B6010E940D
:10154000AF2EB501A40104C07595679557954795D1
:101550008A95D2F702C0359527954A95E2F75DE066
:10156000E50EF11C2E213F21289DB001299D700D13
:10157000389D700D1124D501C40104C0B595A795FF
:10158000979587952A94D2F7682B792BD501C401BA
:10159000E3E0B595A79597958795EA95D1F7082348
:1015A0001923060F171FC301B2010E94802C600F80
:1015B000711F70939801609397012EE130E0309392
:1015C00058012093570181E090E09093940180931B
:1015D00093014FE050E05093560140935501909392
:1015E000900180938F013093540120935301909385
:1015F0008C0180938B01A5019401C501B4010E9467
:101600009F2E6B017C01CC0CDD1CEE1CFF1CD50158
:10161000C40187709927AA27BB27892B8A2B8B2B7C
:1016200009F465C0D501C40143E0B595A795979528
:1016300087954A95D1F7C822D922D501C40137E050
:10164000B595A795979587953A95D1F7E2E0F0E0A3
:10165000892B8A2B8B2B21F4E0919101F09192013F
:1016600000918D0110918E01E0909501F09096010E
:10167000A0919501B09196016090910170909201B6
:1016800040908D0150908E01A50194010E94422C42
:1016900004C095958795779567956A94D2F7482009
:1016A000592064257525D501C4012DE0B595A79570
:1016B000979587952A95D1F7340168267926680C85
:1016C000791C662A772A0E0D1F1D04C0B594A794B5
:1016D000979487940A95D2F78E229F22C824D92402
:1016E000C628D728D0929801C092970180CE8091C9
:1016F0008D0190918E012401350104C07594679489
:10170000579447948A95D2F7C20195CF80E190E033
:10171000909358018093570181E090E09093940159
:101720008093930129E230E03093560120935501D4
:101730009093900180938F012EE130E0309354011B
:101740002093530190938C0180938B01D501C401A8
:1017500057E0B595A795979587955A95D1F7892B19
:101760008A2B8B2B09F45FC0209195013091960153
:101770008091950190919601B501A40104C07595E1
:101780006795579547958A95D2F7C901330FAA0BEC
:10179000BB0B84239523889DF001899DF00D989DB6
:1017A000F00D112475016401CC0CDD1CEE1CFF1C36
:1017B000D501C40187709927AA27BB27892B8A2BBB
:1017C0008B2BB1F12401350135E075946794579462
:1017D00047943A95D1F7A0919101B091920100916F
:1017E000910110919201A50194010E94422CA30144
:1017F0009201261B370B480B590BDA01C90123E074
:10180000B595A795979587952A95D1F7C822D9229E
:101810008AE290E0801B910B882299228E269F26D7
:10182000C824D9245FCF20918D0130918E01A0CFA3
:1018300080918D0190918E012401350104C0759431
:101840006794579447948A95D2F7C5CF80E290E089
:101850009093580180935701109294011092930134
:1018600090935601809355011092900110928F0130
:10187000909354018093530110928C0110928B012C
:1018800040908D0150908E015A82498220909101A2
:10189000309092010091950110919601E091910193
:1018A000F09192018091950190919601240135016A
:1018B00075E075946794579447947A95D1F7CC2442
:1018C000DD247601C818D908EA08FB08F7FD33962D
:1018D000F595E795F595E79563E070E00E94AF2EEA
:1018E000D501C40104C0B595A795979587956A95CC
:1018F000D2F7E81BF90B04C0F594E794D794C7948A
:10190000EA95D2F7220C331C220C331CC80163E089
:1019100070E00E94AF2ED501C40104C0B595A79513
:10192000979587956A95D2F7281A390AA5019401E7
:1019300004C055954795379527952A94D2F72C21C1
:101940003D214E215F21C301B2010E94182C2821A4
:101950003921098004C0B594A794979487940A9478
:10196000D2F7822A932AF7C085E290E0909358013B
:101970008093570184E090E09093940180939301C9
:1019800080E190E090935601809355011092900170
:1019900010928F018CE090E090935401809353015A
:1019A00085E090E090938C0180938B018091910170
:1019B00090919201E0919501F091960140919101F1
:1019C00050919201209191013091920160918D018D
:1019D00070918E012401350104C075946794579469
:1019E0004794EA95D2F77501640104C0F594E79431
:1019F000D794C7944A95D2F74C9CA0014D9C500DAA
:101A00005C9C500D112488219921480F591F480DC5
:101A1000591DD501C40104C0B595A7959795879523
:101A20002A95D2F78C0104C0B594A7949794879413
:101A30006A95D2F708291929402B512B5093980108
:101A400040939701D4CC24E430E0309358012093A4
:101A5000570181E090E0909394018093930130933B
:101A60005601209355019093900180938F0180E25D
:101A700090E0909354018093530110928C01109246
:101A80008B0120919101309192018091950190916B
:101A90009601A6E08A9FC00111246FEF70E00E94BA
:101AA000AF2EFB01E050FF4FBFE12B9FC00111247F
:101AB0006FEF70E00E94AF2E608380910001B5014E
:101AC000A40104C075956795579547958A95D2F7F7
:101AD000E42FE825E80DE983809101017501640197
:101AE00004C0F594E794D794C7948A95D2F7E0910F
:101AF0000301F0E0E050FF4F208130E050E040E093
:101B0000C501B4010E94182C672B682B692B41F585
:101B100080910401482F20918D0130918E01809198
:101B200005012401350104C07594679457944794C6
:101B30008A95D2F7C2018C2184234981889E40195D
:101B4000112450E004C0B594A794979487942A95E3
:101B5000D2F784229522909298018092970147CCE7
:101B600042E050E060E070E0D6CF20E130E030931A
:101B700058012093570181E090E090939401809365
:101B800093013093560120935501909390018093D7
:101B90008F0180E290E09093540180935301109262
:101BA0008C0110928B0120919101309192018091D2
:101BB0009501909196019927880F991F880F991F79
:101BC0006FEF70E00E94AF2EFB01EA5FFE4F05EF62
:101BD000209FC00111246FEF70E00E94AF2E608340
:101BE00020918D0130918E0180910601B501A401F3
:101BF00004C075956795579547958A95D2F7CA01A0
:101C0000409107012401350104C0759467945794ED
:101C100047944A95D2F7842140910801842340914A
:101C200009018501740104C015950795F794E7949F
:101C30004A95D2F78E21889D802D1124882E912CD3
:101C4000821A930A88CF80E190E0909358018093A4
:101C5000570121E030E03093940120939301909359
:101C60005601809355013093900120938F019093FA
:101C700054018093530110928C0110928B01E090DB
:101C80009501F0909601809191019091920120919F
:101C90008D0130918E01B501A40113E0440F551F51
:101CA000661F771F1A95D1F704C0759567955795EC
:101CB00047958A95D2F78401000F111F000F111F5D
:101CC000042B152B08291929032E000C440B550B46
:101CD000C501B4010E94182CC40184579F4F2823CA
:101CE0003923022B132B1A830983D501C40123E066
:101CF000B595A795979587952A95D1F7E89C80018A
:101D0000E99C100DF89C100D112408231923C5011E
:101D1000B40124E030E040E050E00E94182C280D8F
:101D2000391D2023312349805A80422A532A34E026
:101D3000B594A794979487943A95D1F784209520E9
:101D40000ACF80E490E0909358018093570182E09D
:101D500090E0909394018093930128E030E03093D9
:101D60005601209355019093900180938F0180E15B
:101D700090E0909354018093530110928C01109243
:101D80008B012091950130919601609091017090A6
:101D90009201032E000C440B550BC501B4010E94A7
:101DA000182C660D771D2401350104C075946794C5
:101DB000579447946A95D2F720908D0130908E0108
:101DC000280C391CC501B40124E839E740E050E093
:101DD0000E94182C80918D0190918E0120FF42C0AD
:101DE000BEE2EB2EF12CE81AF90AFA82E9820091A0
:101DF00091011091920120918D0130918E01C0903E
:101E00009501D0909601032E000C440B550BC50193
:101E1000B4010E94182C0D2C000CEE08FF08CA011A
:101E2000B901A70196010E94182C6B019801110FAE
:101E3000440B550BC501B4010E94182CC22AD32AA9
:101E40004C285D2869807A80682479242618370810
:101E500004C0B594A794979487942A94D2F78428C1
:101E6000952879CE0BE210E0081B190B1A83098321
:101E7000BECF88E090E09093580180935701109274
:101E80009401109293019093560180935501109202
:101E9000900110928F0190935401809353011092FE
:101EA0008C0110928B01D501C4018F709927AA274C
:101EB000BB27892B8A2B8B2B09F448C08091950175
:101EC000909196018501740104C015950795F794CA
:101ED000E7948A95D2F7C701B501A401A7E07595EB
:101EE000679557954795AA95D1F784239523AC011B
:101EF000D501C40180959095A095B09507E080220A
:101F00009924AA24BB2489288A288B28B1F100911E
:101F1000910110919201E9E0B595A7959795879564
:101F2000EA95D1F7012E000C220B330B802391236D
:101F3000489F9001499F300D589F300D1124207407
:101F40003327309398012093970151CA80919101D2
:101F500090919201B501A40104C0759567955795BC
:101F600047958A95D2F7D501C401FBE0B595A795B1
:101F700097958795FA95D1F7B8CF00918D0110917B
:101F80008E017BE0B595A795979587957A95D1F7C2
:101F9000C9CF80E190E0909358018093570110924F
:101FA00094011092930190935601809355011092E1
:101FB000900110928F0190935401809353011092DD
:101FC0008C0110928B01809195019091960164E0B3
:101FD000880F991F6A95E1F7092E000CAA0BBB0B1D
:101FE00088219921AA21BB21892B8A2B8B2B91F146
:101FF000209191013091920140909501509096016D
:102000005A82498243E0220F331F4A95E1F7032E9B
:10201000000C440B550BC501B4010E94182C9B0108
:10202000AC01282539254A255B25C501B4010E944C
:102030009F2E098004C0B594A794979487940A941E
:10204000D2F7862A972AA82AB92ABB0C8808982C86
:10205000540181CD8091910190919201850174018B
:1020600004C015950795F794E7948A95D2F7C701B0
:1020700040918D0150918E0135E0440F551F3A95E6
:10208000E1F7052E000C660B770B482159216A21D8
:102090007B21452B462B472B59F020918D01309108
:1020A0008E0104C0880C991CAA1CBB1C2A95D2F76F
:1020B000882A992A50CD80E190E09093580180932E
:1020C00057011092940110929301909356018093BE
:1020D00055011092900110928F01909354018093BA
:1020E000530110928C0110928B0180918D0190917F
:1020F0008E019501840104C03595279517950795A4
:102100008A95D2F72801482859285A824982C50160
:10211000B40125E095958795779567952A95D1F730
:10212000209191013091920180FE39C037FF02C0A9
:102130002F5F3F4F359527958501740104C0159594
:102140000795F794E7942A95D2F7A80197010E9482
:10215000182C69807A80622A732A7A826982C50182
:10216000B40123E030E040E050E00E94182C672BDF
:10217000682B692B01F1809195019091960163E0A4
:1021800070E00E94AF2E04C0B594A79497948794F2
:102190006A95D2F7A980BA808A289B28DCCC2401D2
:1021A000350104C075946794579447942A95D2F7E3
:1021B000A3019201CCCF809195019091960104C02A
:1021C000B594A794979487948A95D2F7E3CF24E4A3
:1021D00030E0309358012093570181E090E09093D4
:1021E000940180939301309356012093550190936D
:1021F000900180938F0120E230E0309354012093CE
:10220000530190938C0180938B0120919101309127
:1022100092018091950190919601992763E370E076
:102220000E94AF2EFB01E65FFE4F0DE0209FC00134
:1022300011246FEF70E00E94AF2E608320918D011A
:1022400030918E0180910A01B501A40104C07595F9
:102250006795579547958A95D2F7CA0140910B012A
:102260002401350104C075946794579447944A95A6
:10227000D2F7842940910C018501740104C01595A1
:102280000795F794E7944A95D2F78E2940910D016E
:102290002401350104C075946794579447944A9576
:1022A000D2F7842940910E018501740104C015956F
:1022B0000795F794E7944A95D2F78E294427552736
:1022C000BA01481959096A097B09849F802D112494
:1022D0008819829FA001839F500D1124AFCB84E207
:1022E00090E09093580180935701109294011092BE
:1022F000930180E190E090935601809355011092F4
:10230000900110928F0184E190E0909354018093AA
:1023100053018AE090E090938C0180938B01F4014B
:10232000FF7060918D0170918E012091910130912B
:1023300092014091950150919601CF01019675014E
:10234000640104C0F594E794D794C7946A95D2F7D2
:102350002C213D21240F351F02C0880F991F2A957B
:10236000E2F7BF010E94AF2E9924CB018821992169
:102370007F2F770F770B6F2F0E94AF2E6077772715
:10238000CB01880F991F680F791F70939801609394
:1023900097012DC8E0914501F09146013197E73151
:1023A000F10508F024C8E152FE4EC0907E01D090A5
:1023B0007F01E0908001F09081010C94C32EF61112
:1023C00096126713EA137D1405156B15DD155B1660
:1023D000D7163517BE174A18B6187319EE19671AAB
:1023E000D71A421BB41B2A1CB71C1A1D01E0C016C9
:1023F000D104E006F10464F080E090E0AFEFBFEFBD
:1024000080937E0190937F01A0938001B09381011E
:1024100089E090E0909358018093570121E030E0EB
:10242000309394012093930190935601809355012A
:102430003093900120938F012FE030E030935401CE
:102440002093530190938C0180938B01C0907E0167
:10245000D0907F01E0908001F0908101260137014A
:10246000AAE07594679457944794AA95D1F7A090E1
:102470008D01B0908E0180908D0190908E01009121
:1024800095011091960120919101309192013A832A
:102490002983C301B20123E030E040E050E00E9414
:1024A000182C6A0D7B1DA701960104C05595479510
:1024B000379527956A95D2F7C701B601B3E0660F45
:1024C000771F881F991FBA95D1F70E949F2EA701E9
:1024D000960104C055954795379527958A94D2F76C
:1024E0004801110FAA08BB08282139214A215B2184
:1024F00009811A814801110FAA08BB082829392926
:102500004A295B2924213521462157212D5F3F4F40
:102510004F4F5F4F0E94182C4901C701B60120E1BF
:1025200030E040E050E00E94182C1BCA8DE090E0A3
:10253000909358018093570181E090E0909394012B
:10254000809393012FE030E03093560120935501A2
:102550009093900180938F012BE030E030935401F1
:102560002093530190938C0180938B0120919101D2
:10257000309192010091950110919601E0918D01A9
:10258000F0918E01032E000C440B550B46015701B0
:102590006DE0B594A794979487946A95D1F7282114
:1025A00039214A215B212460C701B6010E949F2E78
:1025B000A7019601209530954095509529833A833F
:1025C0004B835C8329013A01FBE07594679457942F
:1025D0004794FA95D1F731E043225524AB01BC0171
:1025E00004C075956795579547954A94D2F7CA01E7
:1025F000807899279E838D83B701A60104C07595C5
:102600006795579547950A95D2F7842295228C9C19
:1026100090018D9C300D9C9C300D112489819A81F4
:10262000AB81BC8104C0B595A79597958795EA9530
:10263000D2F783709927289FB001299F700D389F8A
:10264000700D11246F7777274D805E80462A572AB8
:102650005A824982D4FE26C0C701B6012FEF30E06E
:1026600040E050E00E94182C9B01AC012C253D2538
:102670004E255F25C701B6010E949F2E34E0F594D8
:10268000E794D794C7943A95D1F7C62AD72AE82A6F
:10269000F92AF594E794D794C79469807A80C62480
:1026A000D72420C8D701C60123E0B595A7959795F3
:1026B00087952A95D1F7D5FE07C002E0CC0CDD1C2A
:1026C000EE1CFF1C0A95D1F7C82AD92AE6CF80E173
:1026D00090E0909358018093570121E030E03093CF
:1026E0009401209393019093560180935501309368
:1026F000900120938F019093540180935301109285
:102700008C0110928B018091910190919201E09146
:102710008D01F0918E0180909501909096019A82A2
:102720008982092E000CAA0BBB0BA70196011AE0A7
:1027300055954795379527951A95D1F7282339232D
:102740004A235B23C701B6010E949F2E4B015C0107
:10275000E89487F89924AA24BB24B701A60109802C
:1027600004C075956795579547950A94D2F7CF01A0
:10277000FF0FAA0BBB0B84239523A623B7239C0131
:10278000AD012E5F3F4F4F4F5F4FC701B6010E9413
:102790009F2E657F77278827992721E030E08616CE
:1027A0009706A806B90614F030E020E0C094D09453
:1027B000E094F094F2E0F594E794D794C794FA95F6
:1027C000D1F72C9DC0012D9D900D3C9D900D1124A5
:1027D0000C94B70880E290E09093580180935701E1
:1027E0001092940110929301909356018093550199
:1027F0001092900110928F01909354018093530195
:1028000010928C0110928B01D701C6018095909592
:10281000A095B0954C015D01E2E0B594A794979422
:102820008794EA95D1F781149104A104B10449F089
:102830004C015D0173E0B594A794979487947A95C1
:10284000D1F78091910190919201E0918D01F091E9
:102850008E0100919501109196011A830983A701B9
:1028600096016AE055954795379527956A95D1F772
:10287000092E000CAA0BBB0B282339234A235B2308
:10288000C701B6010E949F2E2B013C01E89447F836
:10289000552466247724B701A601098004C07595E4
:1028A0006795579547950A94D2F7CF01FF0FAA0B6A
:1028B000BB0B84239523A623B7239C01AD012E5F78
:1028C0003F4F4F4F5F4FC701B6010E949F2E657F5C
:1028D00077278827992721E030E0461657066806B3
:1028E000790614F030E020E0289DC001299D900D6C
:1028F000389D900D11240C94B70880E290E09093DD
:102900005801809357011092940110929301909373
:102910005601809355011092900110928F0190936F
:1029200054018093530110928C0110928B01460147
:10293000570180949094A094B094D501C40127E0ED
:10294000B595A795979587952A95D1F7892B8A2BC9
:102950008B2B09F452C083E0B594A7949794879485
:102960008A95D1F78091910190919201E0918D012A
:10297000F0918E0140909501509096015A824982C3
:10298000A70196011AE055954795379527951A9511
:10299000D1F7092E000CAA0BBB0B282339234A239D
:1029A0005B23C701B6010E949F2E2B013C0105EF5E
:1029B0004022552466247724B701A601098004C06B
:1029C00075956795579547950A94D2F7CF01FF0FF4
:1029D000AA0BBB0B84239523A623B7239C01AD012F
:1029E0002E5F3F4F4F4F5F4FC701B6010E949F2E92
:1029F0006F777727882799276ECF04E0B594A7943F
:102A0000979487940A95D1F7ADCF80E190E09093A9
:102A100058018093570121E030E0309394012093D6
:102A20009301909356018093550130939001209328
:102A30008F01909354018093530110928C01109256
:102A40008B012091950130919601220F331F032EA7
:102A5000000C440B550BC701B6010E94182CD4FE84
:102A60001DC04B018C249D24C701B60122E030E03B
:102A700040E050E00E94182C829EC001839E900D81
:102A8000929E900D1124A5E0F594E794D794C794F5
:102A9000AA95D1F7C82AD92A0C94720B809191017A
:102AA000909192019695982F882797958795092E52
:102AB000000CAA0BBB0B8C219D21AE21BF21892BC1
:102AC0008A2B8B2B21F0CC0CDD1CCC0CDD1CC22AFC
:102AD000D32A0C94720B8CE090E090935801809371
:102AE000570181E090E0909394018093930120E15D
:102AF00030E03093560120935501909390018093DC
:102B00008F01309354012093530190938C01809353
:102B10008B01409195015091960120919101309146
:102B2000920180918D0190918E014C9DB0014D9D3F
:102B3000700D5C9D700D11247A836983B701A60125
:102B400004C075956795579547952A95D2F7A98141
:102B5000BA81A423B523BA83A9838C9D90018D9D4E
:102B6000300D9C9D300D1124D701C60167E0B5954D
:102B7000A795979587956A95D1F72823392349809A
:102B80005A80422A532A8601000F111F0C0D1D1D69
:102B9000C701B60120E034E040E050E00E94182C6C
:102BA00020233123422A532A820101501109109314
:102BB0009801009397010C94F7098EE190E09093AF
:102BC00058018093570181E090E0909394018093A5
:102BD00093012FE030E030935601209355019093FC
:102BE000900180938F01309354012093530190936F
:102BF0008C0180938B010091910110919201809141
:102C00008D0190918E0160919501709196012091B6
:102C10009101309192013A83298340918D01509125
:102C20008E0120918D0130918E01E0919101F09102
:102C30009201A0909501B0909601660F771F660FE4
:102C4000771F0E94AF2E0C9DC0010D9D900D1C9D05
:102C5000900D11246823792349805A804C9C80016F
:102C60004D9C100D5C9C100D1124D701C60104C0B1
:102C7000B595A795979587954A95D2F78023912387
:102C8000682B792B2E0F3F1F2C9DC0012D9D900D81
:102C90003C9D900D112404C0F594E794D794C794FB
:102CA000AA94D2F7C822D922C62AD72A01E0C01A8C
:102CB000D1080C94720B20E130E03093580120933E
:102CC000570181E090E090939401809393013093B9
:102CD0005601209355019093900180938F0180E2DB
:102CE00090E0909354018093530110928C011092C4
:102CF0008B01609195017091960180909101909067
:102D00009201209191013091920140919501509151
:102D10009601E0918D01F0918E01D701C601FAE094
:102D2000B595A79597958795FA95D1F7092C000C3D
:102D3000AA08BB0888219921AA21BB2111E081277B
:102D40004B01770FAA08BB08880E991EAA1EBB1E4E
:102D5000D701C6011EE0B595A795979587951A9559
:102D6000D1F7052E000C660B770B84239523A62341
:102D7000B723032E000C440B550B820F931FA41F87
:102D8000B51F8C9DA0018D9D500D9C9D500D112453
:102D9000489DC001499D900D589D900D112404C07F
:102DA000F594E794D794C794EA95D2F773CE80E46C
:102DB00090E09093580180935701109294011092E3
:102DC000930180E190E09093560180935501109219
:102DD000900110928F0190935401809353011092AF
:102DE0008C0110928B0180918D0190918E016091E8
:102DF000910170919201409195015091960120911D
:102E00009101309192012601370104C075946794B5
:102E1000579447948A95D2F7C2014601570104C0DE
:102E2000880C991CAA1CBB1C6A95D2F78829992981
:102E30004F5F5F4F052E000C660B770B84239523A5
:102E40002F5F3F4FB701A60104C075956795579551
:102E500047952A95D2F7C42AD52A8C9D90018D9D3D
:102E6000300D9C9D300D11246CC880E290E0909351
:102E700058018093570181E090E0909394018093F2
:102E8000930128E130E0309356012093550190934F
:102E9000900180938F0120E130E030935401209322
:102EA000530190938C0180938B01A0919501B09177
:102EB0009601E0919101F091920120918D01309164
:102EC0008E01B701A60195E07595679557954795D1
:102ED0009A95D1F74601570162E0880C991CAA1C0B
:102EE000BB1C6A95D1F748295929AC9DC001AD9DFD
:102EF000900DBC9D900D112484239523B701A6014C
:102F0000A4E07595679557954795AA95D1F7460121
:102F10005701B3E0880C991CAA1CBB1CBA95D1F7C9
:102F200048295929EC9DB001ED9D700DFC9D700D57
:102F3000112446235723482B592BD701C60113E0F0
:102F4000B595A795979587951A95D1F7460157019D
:102F500004E0880C991CAA1CBB1C0A95D1F788298F
:102F600099292C9DB0012D9D700D3C9D700D112453
:102F700086239723842B952B0C94B70880E190E04F
:102F8000909358018093570188E090E090939401CA
:102F9000809393018EE090E09093560180935501C9
:102FA00087E090E09093900180938F018CE090E017
:102FB000909354018093530186E090E090938C01AC
:102FC00080938B01609091017090920180919501A6
:102FD00090919601A0918D01B0918E010091910187
:102FE000109192012091950130919601E0918D010F
:102FF000F0918E01B701A60104C0759567955795AC
:1030000047958A95D2F746015701F4E0880C991C40
:10301000AA1CBB1CFA95D1F748295929C601861963
:10302000970984239523B701A60104C07595679578
:10303000579547950A95D2F74601570113E0880C3A
:10304000991CAA1CBB1C1A95D1F748295929B6010D
:103050006A1B7B0B4623572348275927D701C601F4
:1030600004C0B595A79597958795EA95D2F746013F
:10307000570102E0880C991CAA1CBB1C0A95D1F7C9
:1030800088299929C21AD30A8C219D218427952742
:103090000C94B70880E190E0909358018093570119
:1030A000109294011092930128E030E03093560181
:1030B000209355011092900110928F01909354012A
:1030C0008093530110928C0110928B0120919501F5
:1030D000309196018091950190919601A091910176
:1030E000B0919201E0919101F091920140918D0196
:1030F00050918E0102964601570104C0B594A794E1
:10310000979487948A95D2F7AC9DC001AD9D900DA0
:10311000BC9D900D1124882A992AD701C60104C0AC
:10312000B595A795979587952A95D2F7F5E0FC9DDB
:103130009001FD9D300D1124822B932B8821992124
:103140004601570104C0B594A79497948794EA95D3
:10315000D2F74C9D90014D9D300D5C9D300D11249A
:1031600028293929822393230C94B70824E430E0DA
:10317000309358012093570181E090E0909394019F
:1031800080939301309356012093550190939001C1
:1031900080938F0180E290E09093540180935301DB
:1031A00010928C0110928B0120919101309192012B
:1031B00080919501909196010BE0809FC0011124B0
:1031C0006FEF70E00E94AF2EFB01E15FFE4F1FE743
:1031D000219FC00111246FEF70E00E94AF2E608329
:1031E00020918D0130918E0180911001B701A601CF
:1031F00004C075956795579547958A95D2F7809144
:1032000012012601370104C07594679457944794BE
:103210008A95D2F7C201842BE0911401F0E0E15FBE
:10322000FE4F3081B701A60104C07595679557958B
:1032300047953A95D2F7482B30910F0180911301B1
:103240003601470104C095948794779467948A95D2
:10325000D2F7C301E09115014601570104C0880C63
:10326000991CAA1CBB1CEA95D2F78821349F800DBB
:1032700011248983E0911701F0E0E15FFE4F808126
:10328000B701A60104C075956795579547958A952E
:10329000D2F74601570187E0B594A7949794879495
:1032A0008A95D1F78C284829440FD701C6010C2CE8
:1032B00004C0B595A795979587950A94D2F7309154
:1032C0001901832330911801839F400D1124842F0D
:1032D0007980872590E004C0F594E794D794C7944B
:1032E0002A95D2F7D7CB24E430E0309358012093CD
:1032F000570181E090E09093940180939301309383
:103300005601209355019093900180938F0180E2A4
:1033100090E0909354018093530110928C0110928D
:103320008B012091910130919201809195019091B2
:10333000960107E0809FC00111246FEF70E00E94AA
:10334000AF2EFB01E65EFE4F1FE2219FC00111245C
:103350006FEF70E00E94AF2E608320918D0130915D
:103360008E0180911E01B701A60104C07595679575
:10337000579547958A95D2F7CA0130912001B70138
:10338000A60104C075956795579547953A95D2F76C
:10339000842340911F01842330911C01B701A601B1
:1033A00004C075956795579547953A95D2F78090E3
:1033B0001D014821842730911A01B701A60104C0DC
:1033C00075956795579547953A95D2F780901B016B
:1033D0004821842B8C9D802D11247CCF24E430E067
:1033E000309358012093570181E090E0909394012D
:1033F000809393013093560120935501909390014F
:1034000080938F0180E290E0909354018093530168
:1034100010928C0110928B012091910130919201B8
:10342000809195019091960156E0859FC0011124ED
:103430006FEF70E00E94AF2EFB01EF5DFE4F63E186
:10344000269FC00111246FEF70E00E94AF2E6083B1
:1034500020918D0130918E0180912101260137014B
:1034600004C075946794579447948A95D2F7C20123
:10347000409122014C9D402D1124842B90912301D9
:10348000B701A60104C075956795579547959A951C
:10349000D2F7909124019C9D902D1124942B892387
:1034A000909125014601570104C0B594A7949794C3
:1034B00087949A95D2F7609126016C9DC02C1124B7
:1034C000C828C822D12CC21AD30A0C94720B80E1EE
:1034D00090E0909358018093570121E030E03093C1
:1034E000940120939301909356018093550130935A
:1034F000900120938F019093540180935301109277
:103500008C0110928B0180919501909196016091B0
:1035100095017091960140918D0150918E0100911D
:103520008D0110918E01209191013091920136010F
:10353000470104C095948794779467948A95D2F74D
:10354000C3014601570104C0B594A794979487948A
:103550006A95D2F7882999298C299D29489F40018D
:10356000499F900C589F900C112485E08C9DB001D0
:103570008D9D700D1124D701C60104C0B595A79586
:10358000979587950A95D2F7682B792B86229722F3
:10359000032E000C440B550BC701B6010E94182CDA
:1035A0006C257D256829792977270C94C51120E29F
:1035B00030E0309358012093570181E090E09093E0
:1035C0009401809393013093560120935501909379
:1035D000900180938F013093540120935301909375
:1035E0008C0180938B0120919501309196018091FF
:1035F000910190919201E0918D01F0918E0126014F
:10360000370104C075946794579447942A95D2F76C
:10361000A3019201257033274427552701E0202775
:103620002D5F3F4F4F4F5F4F2601370104C0759408
:103630006794579447948A95D2F7C301B201637097
:103640007727882799276B5F7F4F8F4F9F4F0E9467
:103650009F2E9B01AC01C701B6010E949F2E04C0A2
:10366000F594E794D794C794EA95D2F703E0C02283
:10367000DD2404C09595879577956795CA94D2F710
:103680000C94C51128E030E0309358012093570185
:1036900081E090E0909394018093930140E150E0A9
:1036A00050935601409355019093900180938F0160
:1036B000309354012093530190938C0180938B019C
:1036C0002091950130919601609191017091920144
:1036D00040918D0150918E012C9DF0012D9DF00D9A
:1036E0003C9DF00D1124D701C60114E0B595A795B6
:1036F000979587951A95D1F78E239F236C9D9001FE
:103700006D9D300D7C9D300D11244601570107E061
:10371000B594A794979487940A95D1F728213921D5
:10372000822B932B4C9D90014D9D300D5C9D300D57
:1037300011242C213D21822B932B2091910130913A
:10374000920104C0F594E794D794C7942A95D2F7D0
:103750002DE030E0CD28CE28CF2811F428E030E04D
:10376000821B930B0C94B70887E290E0909358016A
:103770008093570180E290E09093940180939301AD
:103780002FE230E030935601209355019093900141
:1037900080938F012AE330E030935401209353014A
:1037A00090938C0180938B0100919501109196016B
:1037B0004091910150919201E0918D01F0918E0123
:1037C0003BE0349FC001359F900D11246BE170E008
:1037D0000E94AF2E4601570104C0B594A794979458
:1037E00087946A95D2F721E0821A9108A108B1085E
:1037F000309FC001319F900D11246BE170E00E9459
:10380000AF2EA701960104C055954795379527958A
:103810006A95D2F7282139214A215B2167E02627C2
:10382000ABE0B0E00E94372C9B01AC01DF010E94AD
:10383000422C2BE130E040E050E00E94182C2C9DFF
:10384000C0012D9D900D3C9D900D112490939801E9
:103850008093970188E090E09093580180935701FE
:1038600081E090E0909394018093930120E130E017
:1038700030935601209355012BE030E030939001B6
:1038800020938F0128E130E03093540120935301BD
:1038900090938C0180938B016091910170919201C2
:1038A000209195013091960180918D0190918E012A
:1038B00040918D0150918E014601570104C0B5948D
:1038C000A794979487946A95D2F7280D391D4601DD
:1038D00057011BE0B594A794979487941A95D1F754
:1038E00028252601370104C0440C551C661C771C92
:1038F0002A95D2F7820160E470E00E94AF2E360173
:10390000470104C095948794779467948A95D2F779
:10391000C3014601570104C0B594A79497948794B6
:103920004A95D2F7880D991D802B912BA7019601FE
:1039300006E055954795379527950A95D1F7280FB5
:10394000391F88279927DC018C199D09AE09BF0909
:1039500045E0B595A795979587954A95D1F78C2120
:103960009D2182239323909398018093970188E36C
:1039700090E0909358018093570188E290E09093F3
:1039800094018093930189E090E090935601809395
:10399000550181E090E09093900180938F0180E148
:1039A00090E0909354018093530110928C011092F7
:1039B0008B01BB27F7FCBA95AF2D9E2D8D2DA090C6
:1039C0009501B0909601E0918D01F0918E012091CA
:1039D000910130919201B701A601B9E07595679503
:1039E00057954795BA95D1F7482B592B4C9D800197
:1039F0004D9D100D5C9D100D11248A219B21A80165
:103A000048235923D701C60104C0B595A7959795BA
:103A10008795EA95D2F78C219D2104C0F594E7940F
:103A2000D794C7942A95D2F7C82AD92AC426D5266E
:103A30000C94720B8DE090E09093580180935701A5
:103A400087E090E090939401809393018FE090E061
:103A5000909356018093550189E090E090939001F6
:103A600080938F018BE090E09093540180935301F9
:103A700083E090E090938C0180938B0140919501BD
:103A800050919601809195019091960160918D01E0
:103A900070918E019701860104C035952795179581
:103AA00007958A95D2F798012D7F3327D701C60154
:103AB00004C0B595A795979587956A95D2F78F7DA0
:103AC0009927289FB001299F700D389F700D1124F0
:103AD000D701C60157E0B595A795979587955A9553
:103AE000D1F78C7C9927689F9001699F300D789F52
:103AF000300D1124D701C60104C0B595A79597953F
:103B000087954A95D2F7817099270196B701A6014A
:103B100004C075956795579547958A95D2F7249F68
:103B2000C001259F900D349F900D1124B701A6016F
:103B3000440F551F661F771FF2E0CC0CDD1CEE1CF6
:103B4000FF1CFA95D1F7C42AD52AC822D9220C9491
:103B5000720BE0914301F09144013197E431F1059A
:103B600010F00C94F709E154F24EC0907E01D09011
:103B70007F01E0908001F09081010C94C32ED31D51
:103B8000491EA11E181FBD1F4D20D3207A21D72109
:103B90003922D022EA224E23F5238F24F5245A25F8
:103BA000AB251E26E22688E190E090935801809391
:103BB000570188E090E0909394018093930120E175
:103BC00030E0309356012093550181E090E09093CE
:103BD000900180938F01309354012093530190936F
:103BE0008C0180938B0120919501309196013A834D
:103BF0002983E0919501F0919601209191013091F6
:103C0000920140918D0150918E0180918D01909192
:103C10008E012601370104C0759467945794479428
:103C20004A95D2F7A201092E000CAA0BBB0B8421E6
:103C30009523C89EA001C99E500DD89E500D1124F9
:103C4000D701C601098004C0B595A79597958795BA
:103C50000A94D2F7840F951FB701A6010C2C04C05B
:103C600075956795579547950A94D2F72423352380
:103C7000820F931FB701A60104C0759567955795EC
:103C80004795EA95D2F74C215D21841B950B0C9446
:103C9000B7088CE090E0909358018093570181E041
:103CA00090E0909394018093930120E130E0309371
:103CB0005601209355019093900180938F0130938A
:103CC00054012093530190938C0180938B01809138
:103CD0009501909196014091910150919201E0914E
:103CE0009501F091960120918D0130918E01019600
:103CF0004823BB27F7FCBA95AF2D9E2D8D2D84232D
:103D0000B701A60104C075956795579547958A95A3
:103D1000D2F7D701C60104C0B595A79597958795A9
:103D2000EA95D2F78C219D2104C0F594E794D794AD
:103D3000C7942A95D2F7C82AD92A4C255D250C9418
:103D40001E0D8CE090E0909358018093570181E024
:103D500090E0909394018093930120E130E03093C0
:103D60005601209355019093900180938F013093D9
:103D700054012093530190938C0180938B0101E0B7
:103D8000C016D104E006F10464F080E090E0AFEFEB
:103D9000BFEF80937E0190937F01A0938001B09349
:103DA000810180917E0190917F01A0918001B0916D
:103DB0008101E0919501F091960140918D01509122
:103DC0008E01C0909101D090920120919501309187
:103DD00096012C013D0104C0759467945794479453
:103DE0004A95D2F7A2010D2C000CEE08FF084C29D1
:103DF0005D296C017D010A2E04C0F594E794D794E7
:103E0000C7940A94D2F74C295D29319604C0B59520
:103E1000A79597958795EA95D2F7489FF001499F16
:103E2000F00D589FF00D11242E0F3F1F0C94A10F81
:103E300088E090E0909358018093570181E090E0F2
:103E400090939401809393012AE030E030935601DF
:103E5000209355019093900180938F0130935401EA
:103E60002093530190938C0180938B01609091017A
:103E7000709092017A826982E0919101F0919201B1
:103E800060918D0170918E018091950190919601C4
:103E9000209195013091960160909101709092016E
:103EA00080908D0190908E01A0908D01B0908E0138
:103EB00000919501109196011E830D831601270133
:103EC00004C055944794379427948A95D2F72C20B0
:103ED0003D20D701C60104C0880F991FAA1FBB1F30
:103EE0002A95D2F704C0B595A795979587956A94BA
:103EF000D2F7822993299701860104C03595279529
:103F0000179507958A94D2F7A6014023512397016C
:103F1000860104C0000F111F221F331FAA94D2F77D
:103F20000D8004C035952795179507950A94D2F70B
:103F30009A01202B312B28233923D701C601098070
:103F400004C0B595A795979587950A94D2F78C21CB
:103F50009D2104C0CC0CDD1CEE1CFF1CEA95D2F7A1
:103F600004C0F594E794D794C7946A95D2F7C82A09
:103F7000D92A2C253D250C94A10F2EE130E0309359
:103F800058012093570181E090E090939401809331
:103F900093013093560120935501909390018093A3
:103FA0008F01309354012093530190938C0180939F
:103FB0008B01A0918D01B0918E0140918D015091A6
:103FC0008E0180919501909196018090950190903D
:103FD000960160919101709192010091910110916F
:103FE00092012601370104C0759467945794479451
:103FF0008A95D2F74C205D20092C000CAA08BB083A
:104000008C0C9D1CAE1CBF1C83E0880C991CAA1C48
:10401000BB1C8A95D1F7842895282601370104C056
:1040200075946794579447946A95D2F7B2016C21BE
:104030007D21012E000C220B330B0C0D1D1D2E1D9E
:104040003F1D92E0000F111F221F331F9A95D1F7D9
:10405000062B172BC401802791279701860104C0E6
:104060003595279517950795AA95D2F70C211D210F
:10407000052E000C660B770BC40ED51EE61EF71E30
:1040800024E0CC0CDD1CEE1CFF1C2A95D1F7C02AC5
:10409000D12A8C299D290C94B7088EE190E0909349
:1040A00058018093570181E090E0909394018093B0
:1040B00093012FE030E03093560120935501909307
:1040C000900180938F01309354012093530190937A
:1040D0008C0180938B0160908D0170908E017A82AB
:1040E00069828091910190919201E0919501F09106
:1040F0009601A70196015595479537952795460155
:10410000570104C0B594A794979487948A95D2F7E1
:10411000C501B4010E949F2E9B01AC01C701B601ED
:10412000F7E09595879577956795FA95D1F70E9471
:104130009F2E9B01AC01A0E3B0E00E94372C4B0105
:104140005C01A7019601098004C0559547953795F4
:1041500027950A94D2F7C701B6010E949F2EA6E0C8
:10416000660F771F881F991FAA95D1F7680D791DD3
:104170008A1D9B1D8701332717FD3095232F04C00F
:10418000F594E794D794C794EA95D2F70C291D29A2
:104190000F5F1F4F04C095958795779567950A9592
:1041A000D2F70C94C51188E190E090935801809368
:1041B000570181E090E090939401809393012CE06B
:1041C00030E03093560120935501909390018093F5
:1041D0008F0120E130E030935401209353019093FC
:1041E0008C0180938B018091910190919201B70194
:1041F000A60104C075956795579547958A95D2F79E
:1042000080919101909192019701860104C03595AA
:104210002795179507958A95D2F7D901C801892B5B
:104220008A2B8B2B09F459C08DE090E0A0E0B0E020
:10423000E0918D01F0918E0184239523A623B7236D
:104240009C01AD012150310941095109C701B60155
:104250000E949F2E04C09595879577956795EA955E
:10426000D2F7960125713327622773278091950134
:1042700090919601A701960104C0559547953795F1
:1042800027958A95D2F7C9018C259D258C0D9D1DFA
:1042900046015701880C991CAA1CBB1C0091950172
:1042A00010919601012E000C220B330B0C211D21C5
:1042B0002E213F21012B022B032BA1F035E0F59499
:1042C000E794D794C7943A95D1F7C820D9208C2584
:1042D0009D25682B792B0C94C51188E090E0A0E017
:1042E000B0E0A6CF23E0F594E794D794C7942A953D
:1042F000D1F7EBCF4091950150919601A0918D019E
:10430000B0918E01209195013091960180918D019F
:1043100090918E016091910170919201E0919501CF
:10432000F09196014601570104C0B594A794979463
:1043300087944A95D2F7A4014C215D21460157018B
:1043400004C0B594A79497948794AA95D2F7282986
:104350003929240F351FA601421B530B9A010196E0
:104360002601370104C075946794579447948A9541
:10437000D2F7C201842393234601570104C0B594A8
:10438000A79497948794EA95D2F7C89C9001C99C0A
:10439000300DD89C300D112404C0F594E794D794C7
:1043A000C7946A95D2F7C222D3220C944A1580E1B1
:1043B00090E0909358018093570124E030E03093CF
:1043C000940120939301909356018093550123E02B
:1043D00030E03093900120938F01909354018093AB
:1043E000530181E090E090938C0180938B01E091E8
:1043F0009501F09196012091910130919201809167
:104400009501909196016091910170919201409176
:104410008D0150918E01092E000CAA0BBB0B3601A9
:104420004701681A790A8A0A9B0AC30146015701A3
:1044300004C0B594A794979487946A95D2F7882975
:104440009929489FB001499F700D589F700D112404
:10445000D701C60104C0B595A79597958795EA95AC
:10446000D2F7C21AD30AC82AD92AC622D7220C9454
:10447000720B84E690E0909358018093570182E09C
:1044800090E0909394018093930122E330E0309385
:104490005601209355019093900180938F012AE05B
:1044A00030E0309354012093530190938C0180931A
:1044B0008B01A0909101B090920140919501509193
:1044C0009601809191019091920120918D013091FE
:1044D0008E0180909101909092019A828982A091A0
:1044E0008D01B0918E0100919501109196018090FF
:1044F0008D0190908E012601370104C07594679458
:10450000579447944A95D2F7A2012601370104C077
:1045100075946794579447948A95D2F7FA01E429E1
:10452000F529C6018A199B09E823F923B701A601D9
:1045300004C075956795579547958A94D2F74601BB
:10454000570183E0B594A794979487948A95D1F7FF
:1045500048295929C601801B910B48235923E42778
:10456000F527AA0FBB1FB701A60104C0440F551FB2
:10457000661F771FAA95D2F746015701098004C02C
:10458000B594A794979487940A94D2F74829592907
:10459000C21AD30A4C215D214E275F270C941E0DB1
:1045A00020E130E0309358012093570181E090E002
:1045B0009093940180939301309356012093550179
:1045C0009093900180938F01309354012093530175
:1045D0000C94DE1724E430E0309358012093570107
:1045E00081E090E090939401809393013093560181
:1045F000209355019093900180938F0180E290E089
:10460000909354018093530110928C0110928B016E
:1046100020919101309192018091950190919601A4
:10462000992765E570E00E94AF2EFB01E95DFE4F22
:1046300007E1209FC00111246FEF70E00E94AF2EB0
:10464000608320918D0130918E0180912801B70106
:10465000A60104C075956795579547958A95D2F739
:10466000CA0130912901B701A60104C0759567956B
:10467000579547953A95D2F7842B30912701B7018A
:10468000A60104C075956795579547953A95D2F759
:104690004C21849F802D11240C946A1924E430E06D
:1046A000309358012093570181E090E0909394015A
:1046B000809393013093560120935501909390017C
:1046C00080938F0120E130E0309354012093530117
:1046D00090938C0180938B012091910130919201F4
:1046E000809195019091960157E0859FC00111241A
:1046F0006FEF70E00E94AF2EFB01E65DFE4F67E2B8
:10470000269FC00111246FEF70E00E94AF2E6083DE
:10471000E0918D01F0918E0180912E01A70196010B
:1047200004C055954795379527958A95D2F7A0915E
:104730002F01B0E00E94372C4B015C010C2C04C00F
:10474000B594A794979487940A94D2F7A0913001D6
:10475000B0E0A65DBE4F2C91D701C60173E0B595C0
:10476000A795979587957A95D1F7822B882A80917E
:104770002B01A701960104C05595479537952795BC
:104780008A95D2F780912C012601370104C07594D7
:104790006794579447948A95D2F7D301C20124298C
:1047A000392B46295B2BA0912A01B0E00E94372CBF
:1047B000D701C60104C0B595A795979587956A95C9
:1047C000D2F788218C9D802C1124912CC094D094F8
:1047D000E094F09404C0CC0CDD1CEE1CFF1CEA95A8
:1047E000D2F7C828D9280C94720B24E430E0309317
:1047F00058012093570181E090E0909394018093B9
:10480000930130935601209355019093900180932A
:104810008F0180E290E090935401809353011092B5
:104820008C0110928B012091910130919201809125
:10483000950190919601992763E0880F991F6A95D9
:10484000E1F76FEF70E00E94AF2EFB01EF5CFE4FCF
:104850000FE1209FC00111246FEF70E00E94AF2E86
:10486000608300918D0110918E0120913701422EBD
:10487000512C809135013601470104C095948794ED
:10488000779467948A95D2F7C401B30120913601D9
:104890004601570104C0B594A794979487942A952C
:1048A000D2F7680D791D8A1D9B1D209134014601A8
:1048B000570104C0B594A794979487942A95D2F78A
:1048C000682579258A259B256F5F7F4F8F4F9F4FE6
:1048D0002091380130E050E040E00E94182C02C0E6
:1048E000440C551C6A95E2F75A824982C49C702C8C
:1048F000112490913101E0913301F0E0EF5CFE4F23
:1049000080819C9D800D11247826872C912C04C0D9
:10491000F594E794D794C7940A95D2F762CF20E133
:1049200030E0309358012093570181E090E090935C
:1049300094018093930130935601209355019093F5
:10494000900180938F0180E290E0909354018093D6
:10495000530110928C0110928B01209191013091A2
:1049600092018091950190919601992765E570E0FB
:104970000E94AF2EFB01E75CFE4F07E1209FC001C4
:1049800011246FEF70E00E94AF2E608320918D01A3
:1049900030918E0180913901B701A60104C075954F
:1049A0006795579547958A95D2F7CA0140913A0184
:1049B00084232601370104C0759467945794479463
:1049C0008A95D2F7C20140913B013601470104C0EC
:1049D00095948794779467944A95D2F786218C9D15
:1049E000802D1124C82E0C94621A80E190E09093DF
:1049F00058018093570121E030E0309394012093D7
:104A00009301909356018093550130939001209328
:104A10008F01909354018093530110928C01109256
:104A20008B0120919101309192018091950190919B
:104A30009601992763E370E00E94AF2EFB01E45CCE
:104A4000FE4FC901992763E070E00E94AF2E60839A
:104A5000E0918D01F0918E01A0913C01B0E0A701A1
:104A600096010E94372C20913D014B015C0104C04E
:104A7000B594A794979487942A95D2F7A0913E0174
:104A8000B0E096010E94372C20913F0104C095951B
:104A90008795779567952A95D2F7862A8091400168
:104AA000889D802C11248E9EC0018F9E900D112414
:104AB0000C94B70888E090E09093580180935701D8
:104AC0001092940110929301909356018093550196
:104AD0001092900110928F01909354018093530192
:104AE00010928C0110928B01C11400E4D006E104F5
:104AF000F1040CF036C1209195013091960140915E
:104B0000910150919201D701C601880F991FAA1FE8
:104B1000BB1F04C0B595A795979587954A95D2F781
:104B20002C9DA0012D9D500D3C9D500D11248423E2
:104B300095239093980180939701C114D10441E08B
:104B4000E406F10444F010927E0110927F0110926D
:104B500080011092810180E190E090935801809350
:104B6000570121E030E030939401209393012FE32B
:104B700030E0309356012093550125E130E0309329
:104B8000900120938F0190935401809353011092D0
:104B90008C0110928B01C0907E01D0907F01E0903B
:104BA0008001F0908101D701C60133E0B595A7954A
:104BB000979587953A95D1F7892B8A2B8B2B09F4FA
:104BC000FCC0A0919101B091920100918D011091D2
:104BD0008E01E0918D01F0918E01409095015090F1
:104BE00096015A824982A70196010E94422C4B01EC
:104BF0005C0104C0B594A794979487940A95D2F762
:104C00009F01FF0F440B550BC701B6010E94182CE2
:104C100068257925D701C601098004C0B595A795F7
:104C2000979587950A94D2F78C259D258C0D9D1D0F
:104C3000682B792B709398016093970180E190E045
:104C4000909358018093570121E030E03093940114
:104C500020939301909356018093550130939001D6
:104C600020938F01909354018093530110928C01F3
:104C700010928B01C0907E01D0907F01E090800166
:104C8000F0908101E0919501F091960140919101A0
:104C900050919201809195019091960160909101BF
:104CA000709092017A82698260918D0170918E017B
:104CB00020919501309196010091910110919201FE
:104CC0004601570104C0B594A794979487948A9598
:104CD000D2F7C40146015701098004C0B594A794D6
:104CE000979487940A94D2F7882199214601570115
:104CF00004C0880C991CAA1CBB1C6A95D2F7889D1D
:104D0000B001899D700D989D700D1124620F731F65
:104D10007A836983E49F9001E59F300DF49F300D05
:104D20001124032E000C440B550BC701B6010E9441
:104D3000182C49805A80422253229801110F440BAB
:104D4000550BC701B6010E94182C04C0F594E794D6
:104D5000D794C7942A95D2F7B2016C257D250C947F
:104D6000C511C11410E8D106E104F1044CF42091FE
:104D700095013091960140918D0150918E01C3CEE5
:104D8000C11420ECD206E104F1044CF4209191010D
:104D9000309192014091950150919601B4CE90E0EE
:104DA00080E0C114D10431E0E306F1040CF0C1CE7F
:104DB0002091910130919201DECFA0919501B091A7
:104DC000960103CF8FE090E09093580180935701B4
:104DD00010929401109293018BE090E09093560111
:104DE000809355011092900110928F0189E090E01C
:104DF000909354018093530110928C0110928B0177
:104E0000D701C60129E0B595A795979587952A956D
:104E1000D1F7892B8A2B8B2B09F455C06090950113
:104E2000709096017A8269828091910190919201AD
:104E3000E0918D01F0918E01A0909101B0909201CE
:104E40000091950110919601A701960104C0559516
:104E50004795379527958A95D2F7C701B6010E94E5
:104E60009F2EA701960104C0559547953795279524
:104E7000EA95D2F70E94182CA701960104C0559517
:104E8000479537952795AA94D2F749015A01681991
:104E900079098A099B0949805A804201550CAA0860
:104EA000BB088622972204C0F594E794D794C79450
:104EB0000A95D2F78C9C90018D9C300D9C9C300DF6
:104EC00011240C94A10F80909101909092019A82EC
:104ED0008982AACF1F93CF93DF93EC01162FE8812D
:104EE000F9810280F381E02D42E050E00995198BB1
:104EF0001886E881F9810190F081E02DCE010995B5
:104F0000882319F08885836088870E94C8026A8395
:104F10007B838C839D83DF91CF911F9108950F93A5
:104F20001F93CF93DF93EC01162F198218821B82F7
:104F30001A821D821C821F821E82198618861B8679
:104F40001A861D861C861F861E86198A188A1B8A49
:104F50001A8A1D8A1C8A1F8A1E8A82E190E00E949A
:104F6000DD2EFC0112821382148215828AE090E009
:104F700097838683108685E791E091838083118AE9
:104F8000FB8FEA8F1C8E1D8E84E08E8F1F8E18A2E1
:104F900019A21AA21BA21CA21DA21EA21FA218A621
:104FA00019A61AA61CA61BA61DA601E00EA78AEF2D
:104FB00090E098AB8FA78EEE92E09AAB89AB0BABEB
:104FC0001CAA1EAA1DAA0E94C8026FAB78AF89AFA7
:104FD0009AAF80E197E2A0E0B0E08BAF9CAFADAFBD
:104FE000BEAF1FAEFE01E05CFF4F10823196108213
:104FF000319610823196118210823296108211827F
:10500000128213823496118210823296118210829B
:10501000329600830C8F62E0812F0E94240285E586
:1050200093E50197F1F7612F70E08A8D9B8DDF91F9
:10503000CF911F910F910C946A27CF93DF93109219
:10504000A00110929F0188EE93E0A0E0B0E0809371
:10505000A1019093A201A093A301B093A40183E6C0
:1050600091E090939E0180939D0185EC90E0909358
:10507000AA018093A90184EC90E09093AC01809305
:10508000AB0180EC90E09093AE018093AD0181EC98
:1050900090E09093B0018093AF0182EC90E0909308
:1050A000B2018093B10186EC90E09093B4018093BB
:1050B000B3011092B6011092B7011092B80110928C
:1050C000B9011092DB021092DA021092DD02109206
:1050D000DC021092DF021092DE021092E1021092C6
:1050E000E0021092E3021092E2021092E5021092A6
:1050F000E4021092E7021092E6021092E902109286
:10510000E8021092EB021092EA021092ED02109265
:10511000EC021092EF021092EE021092F102109245
:10512000F0028CE090E00E94DD2EEC0162E085E070
:105130000E94240262E086E00E942402E1EFF0E097
:10514000E491F0E0EE0FFF1FE052FF4F8591949144
:1051500099838883E9ECF0E0E491EC83E2EFF0E0FE
:10516000E491F0E0EE0FFF1FE052FF4F8591949124
:105170009B838A83EAECF0E0E491ED831F8218863A
:1051800019861A8685E593E50197F1F7E881F9819B
:1051900090818C81982381E009F480E0EA81FB8191
:1051A00090812D81922309F082608E831B86D0939B
:1051B000F302C093F20282E190E00E94DD2EFC0136
:1051C00012821382148215828AE090E0978386838C
:1051D000108685E791E091838083118AF093F50230
:1051E000E093F4021092F6021092F70284E08093AA
:1051F000F8021092F9021092FA021092FB02109239
:10520000FC021092FD021092FE021092FF02109218
:1052100000031092010310920203109203031092F4
:105220000403109206031092050310920703C1E0D5
:10523000C09308038AEF90E090930A0380930903D8
:105240008EEE92E090930C0380930B03C0930D03BA
:1052500010920E031092100310920F030E94C802C6
:1052600060931103709312038093130390931403BC
:1052700080E197E2A0E0B0E08093150390931603DD
:10528000A0931703B09318031092190310921A03F6
:1052900010921B0310921C0310921E0310921D0308
:1052A00010921F03109220031092210310922203E8
:1052B00010922403109223031092260310922503C8
:1052C000C0932703C093F702C093F60262E084E024
:1052D0000E94240285E593E50197F1F764E070E010
:1052E0008091F4029091F5020E946A2763E08CE8B5
:1052F00092E00E948F2762E08EE392E0DF91CF91EF
:105300000C948F27CF93DF9300D000D0CDB7DEB7BA
:105310008091F20080618EBB80E88093F2009EB3A2
:105320009093F2008093610021E0209361009091BE
:10533000F2009F799EBB8093F2009EB39093F2009F
:105340009091F2009B7F9EBB8093F2009EB390935E
:10535000F2008093610010926100789484B58260BD
:1053600084BD84B5816084BD85B5826085BD85B509
:10537000816085BD80916E00816080936E00109287
:105380008100809181008260809381008091810002
:105390008160809381008091800081608093800093
:1053A0008091B10084608093B1008091B0008160F1
:1053B0008093B000809191008260809391008091F1
:1053C0009100816080939100809190008160809332
:1053D000900080917A00846080937A0080917A00B6
:1053E0008D7F80937A0080917A008E7F80937A00FF
:1053F00080917A00806880937A001092C10061E009
:105400008DE00E94240261E08BE00E9424028091E2
:10541000B6008F798093B6008091B000836080934E
:10542000B0008091B100877F8093B1008091B0007F
:105430008F7B80688093B0008091B0008F7C8093D8
:10544000B0008091B100887F81608093B10010929C
:10545000B300F89480918100877E886080938100FA
:10546000809180008C7F8093800080918100887F74
:105470008160809381002091510130915201032E6F
:10548000000C440B550B60E078E488EE91E00E943C
:10549000182C309389002093880080916F008260DF
:1054A00080936F00789480ED96E09093E102809372
:1054B000E0028AE596E09093EB028093EA0283EFA4
:1054C00096E09093E9028093E80231E030931C0368
:1054D0008AED96E09093ED028093EC028EE796E0E1
:1054E000909391028093900287E090E09093D00295
:1054F0008093CF028AE096E0909343028093420229
:1055000086E090E09093820280938102CC24CA943A
:1055100083E0D82EE12CF12C92E0892E912CA12C45
:10552000B12C60915701709158017A836983409042
:10553000930150909401052C000C660877088EE0CA
:105540000E94C10269817A819B01770F440B550B40
:105550002419350946095709DC010E94422CA7018C
:1055600096010E94182C420E531E641E751E509206
:1055700096014092950180915501909156019A8330
:10558000898340908F0150909001052C000C660893
:1055900077088FE00E94C10269817A819B01770FB1
:1055A000440B550B2419350946095709DC010E94A3
:1055B000422CA70196010E94182C420E531E641E15
:1055C000751E5092920140929101809153019091E9
:1055D00054019A83898340908B0150908C01052C53
:1055E000000C6608770880E10E94C10269817A8117
:1055F0009B01770F440B550B2419350946095709B0
:10560000DC010E94422CA70196010E94182C420E38
:10561000531E641E751E50928E0140928D0181E1D1
:105620000E94C1029C838B8382E10E94C1028C0193
:1056300083E10E94C1021C018B819C81833391050F
:10564000BCF120919501309196013A8329832091F4
:105650005701309158014090930150909401052CCE
:10566000000C66087708032E000C440B550B241918
:10567000350946095709DC010E94422CA701960111
:105680000E94182C420E531E641E751E29813A81F9
:10569000B901330F880B990B640D751D861D971D7D
:1056A000A50194010E94182C309396012093950136
:1056B00003331105BCF160919101709192017A83DD
:1056C0006983209155013091560140908F0150908F
:1056D0009001052C000C66087708032E000C440B83
:1056E000550B2419350946095709D8010E94422C47
:1056F000A70196010E94182C420E531E641E751EAF
:1057000029813A81B901330F880B990B640D751DFE
:10571000861D971DA50194010E94182C30939201BB
:105720002093910133E323163104BCF160918D0184
:1057300070918E017A8369832091530130915401D5
:1057400040908B0150908C01052C000C6608770866
:10575000032E000C440B550B241935094609570933
:10576000D1010E94422CA70196010E94182C420EE2
:10577000531E641E751E29813A81B901330F880BAF
:10578000990B640D751D861D971DA50194010E943E
:10579000182C30938E0120938D010E94C802AB011A
:1057A000BC018091990190919A01A0919B01B091C7
:1057B0009C01C296A11DB11D84179507A607B707C6
:1057C000F0F40E94C8026093990170939A0180934B
:1057D0009B0190939C018091970190919801893849
:1057E00093411CF081E00E94F90180919701909112
:1057F0009801883E93401CF480E00E94F9018AEDF4
:1058000092E00E944E038CE892E00E944E038EE3E9
:1058100092E00E944E0380E090E0892B09F481CE53
:105820000E941901882309F47CCE0E94000079CEE1
:10583000052E97FB1EF400940E942F2C57FD07D0D5
:105840000E944A2C07FC03D04EF40C942F2C509548
:105850004095309521953F4F4F4F5F4F089590955C
:105860008095709561957F4F8F4F9F4F08950E944F
:105870006C2CA59F900DB49F900DA49F800D911D41
:1058800011240895B7FF0C94372C0E94372C821BEB
:10589000930B0895A1E21A2EAA1BBB1BFD010DC09C
:1058A000AA1FBB1FEE1FFF1FA217B307E407F507D0
:1058B00020F0A21BB30BE40BF50B661F771F881FAC
:1058C000991F1A9469F760957095809590959B0142
:1058D000AC01BD01CF010895A29FB001B39FC001EB
:1058E000A39F700D811D1124911DB29F700D811D0C
:1058F0001124911D08950E94F52CE3950C941E2D02
:105900000E94872C6894B1110C94552D08950E9423
:105910003A2D88F09F5798F0B92F9927B751B0F0DA
:10592000E1F0660F771F881F991F1AF0BA95C9F723
:1059300014C0B13091F00E94542DB1E008950C9440
:10594000542D672F782F8827B85F39F0B93FCCF3F3
:10595000869577956795B395D9F73EF490958095A0
:10596000709561957F4F8F4F9F4F0895E89409C0C0
:1059700097FB3EF490958095709561957F4F8F4F82
:105980009F4F9923A9F0F92F96E9BB279395F69598
:10599000879577956795B795F111F8CFFAF4BB0F16
:1059A00011F460FF1BC06F5F7F4F8F4F9F4F16C07A
:1059B000882311F096E911C0772321F09EE8872F04
:1059C000762F05C0662371F096E8862F70E060E0C0
:1059D0002AF09A95660F771F881FDAF7880F969539
:1059E000879597F908950C94D52D0E943A2DD8F3F8
:1059F000E894E0E0BB279F57F0F02AED3FE049EC48
:105A000006C0EE0FBB0F661F771F881F28F0B23A43
:105A100062077307840728F0B25A620B730B840B7A
:105A2000E3959A9572F7803830F49A95BB0F661F0C
:105A3000771F881FD2F790480C94C92DEF93E0FF91
:105A400007C0A2EA2AED3FE049EC5FEB0E946C2D13
:105A50000E94FA2D0F90039401FC9058E8E7F0E0C3
:105A60000C94D82D57FD9058440F551F59F05F3FA7
:105A700071F04795880F97FB991F61F09F3F79F070
:105A800087950895121613061406551FF2CF4695F2
:105A9000F1DF08C0161617061806991FF1CF869574
:105AA0007105610508940895E894BB276627772758
:105AB000CB0197F908950E94EC2D38F00E94F32D48
:105AC00020F039F49F3F19F426F40C94D52D0EF4F0
:105AD000E095E7FB0C94C12DE92F0E94322D58F37D
