:100000000C9406010C947F080C9458080C942E0153
:100010000C942E010C942E010C942E010C942E01A4
:100020000C942E010C942E010C942E010C94A60815
:100030000C942E010C942E010C942E010C942E0184
:100040000C9412080C942E010C94E0070C94BA073F
:100050000C942E010C942E010C942E010C942E0164
:100060000C942E010C942E010C9400000C940000B2
:100070000C9400000C94000005A84CCDB2D44EB9ED
:100080003836A9020C50B9918688083CA6AAAA2A3B
:10009000BE000000803F00000000000001010102DE
:1000A00002030405050607090A0B0C0E0F111214B2
:1000B0001517191B1D1F212325282A2C2F313436F3
:1000C000393B3E414346494C4F5255585A5D616455
:1000D000676A6D707376797C80808386898C8F9255
:1000E00095989B9EA2A5A7AAADB0B3B6B9BCBEC158
:1000F000C4C6C9CBCED0D3D5D7DADCDEE0E2E4E6A5
:10010000E8EAEBEDEEF0F1F3F4F5F6F8F9FAFAFBC4
:10011000FCFDFDFEFEFEFFFFFFFFFFFFFFFEFEFEFC
:10012000FDFDFCFBFAFAF9F8F6F5F4F3F1F0EEED6B
:10013000EBEAE8E6E4E2E0DEDCDAD7D5D3D0CECBFA
:10014000C9C6C4C1BEBCB9B6B3B0ADAAA7A5A29E6C
:100150009B9895928F8C898683807C797673706D5D
:100160006A6764615D5A5855524F4C494643413E57
:100170003B393634312F2C2A282523211F1D1B19EA
:1001800017151412110F0E0C0B0A090706050504AA
:100190000302020101010000000000240027002AE0
:1001A000002D0000000000250028002B002E00007C
:1001B00000000850020100000304070000000000D6
:1001C0000000000000010204081020408001020429
:1001D0000810200102040810200208010410402029
:1001E00040000000002300260029002C0004040425
:1001F00004040404040202020202020303030303D0
:1002000003050505050505050300153011241FBE6E
:10021000CFEFD8E0DEBFCDBF11E0A0E0B1E0E0E776
:10022000F0E702C005900D92AC37B107D9F723E093
:10023000ACE7B1E001C01D92A035B207E1F711E0D3
:10024000C6E0D1E004C02197FE010E94D536C5303A
:10025000D107C9F70E947A310C9436380C9400000B
:10026000AF92BF92CF92DF92EF92FF920F931F93C4
:10027000CF93DF936C017B018B01040F151FEB0102
:100280005E01AE18BF08C017D10759F06991D601B9
:10029000ED91FC910190F081E02DC6010995892B2B
:1002A00079F7C501DF91CF911F910F91FF90EF90EA
:1002B000DF90CF90BF90AF900895FC01538D448D97
:1002C000252F30E0842F90E0821B930B541710F001
:1002D000CF96089501970895FC01918D828D98170E
:1002E00061F0A28DAE0FBF2FB11D5D968C91928DE6
:1002F0009F5F9F73928F90E008958FEF9FEF089517
:10030000FC01918D828D981731F0828DE80FF11DDF
:10031000858D90E008958FEF9FEF0895FC01918DFA
:10032000228D892F90E0805C9F4F821B91098F73F3
:100330009927089581EC91E00E948E0121E0892B9C
:1003400009F420E0822F089580E090E0892B29F0C5
:100350000E949A0181110C9400000895FC01A48D63
:10036000A80FB92FB11DA35ABF4F2C91848D90E0D7
:1003700001968F739927848FA689B7892C93A089BA
:10038000B1898C91837080648C93938D848D981344
:1003900006C00288F389E02D80818F7D80830895D7
:1003A000EF92FF920F931F93CF93DF93EC0181E0C5
:1003B000888F9B8D8C8D98131AC0E889F98980816C
:1003C00085FF15C09FB7F894EE89FF896083E8899F
:1003D000F98980818370806480839FBF81E090E091
:1003E000DF91CF911F910F91FF90EF900895F62E1E
:1003F0000B8D10E00F5F1F4F0F731127E02E8C8DB8
:100400008E110CC00FB607FCFACFE889F9898081FC
:1004100085FFF5CFCE010E94AE01F1CFEB8DEC0F41
:10042000FD2FF11DE35AFF4FF0829FB7F8940B8F19
:10043000EA89FB8980818062CFCFCF93DF93EC0183
:10044000888D8823B9F0AA89BB89E889F9898C91BC
:1004500085FD03C0808186FD0DC00FB607FCF7CF78
:100460008C9185FFF2CF808185FFEDCFCE010E9478
:10047000AE01E9CFDF91CF91089581508B3088F59F
:10048000E82FF0E0EA5BFD4F0C94D5365B025F028B
:100490005102570271027102620268026C0272021A
:1004A0007602809180008F778093800008958091FC
:1004B00080008F7DF9CF84B58F7784BD089584B592
:1004C0008F7DFBCF8091B0008F778093B00008952F
:1004D0008091B0008F7DF9CF809190008F778093CD
:1004E00090000895809190008F7DF9CF80919000C9
:1004F000877FF5CF1F93CF93DF93ECEBF1E09491DF
:10050000E2EDF1E0D491EAEFF1E0C491CC23B9F04F
:10051000182F992319F0892F0E943D02EC2FF0E04B
:10052000EE0FFF1FED55FE4FA591B4918FB7F894D4
:10053000EC91111108C0D095DE23DC938FBFDF91C1
:10054000CF911F910895DE2BF8CFCF93DF93282F03
:1005500030E0F901EB53FE4F949123513E4FF901E6
:100560002491633029F5843039F53091A0003C6046
:100570003093A0002223C9F030E0220F331FF9018D
:10058000E956FE4FA591B491F901ED55FE4FC59185
:10059000D491611126C02FB7F8948C91909589233E
:1005A0008C938881982398832FBFDF91CF910895F2
:1005B000843011F433E0DCCF3AEE380F323020F4DF
:1005C0003FEF34BF34BFD6CF8931A1F63091F00070
:1005D00032603EBB30E83093F0003EB33093F00021
:1005E000C9CF623051F42FB7F8943C91892F809590
:1005F00083238C93E8819E2BD6CF843011F4613015
:10060000A1F68FB7F894EC919E2B9C938FBFCDCF22
:1006100080917A00806480937A0080917A0086FDD0
:10062000FCCF809178009091790008950F931F93EB
:10063000CF93DF93EDEAF0E09081907F90838E502E
:10064000806480937C000DE710E0F8018081806277
:1006500080830E940803EC01F80180818F7D8083F4
:100660000E9408038C0F9D1F9C0136952795892FAA
:100670009927A901481B590BCA01DF91CF911F91FE
:100680000F9108950E9416039595879595958795E6
:1006900008952FB7F89460919F017091A001809107
:1006A000A1019091A2012FBF08950895862F642F74
:1006B0000C94A502CF93DF93FC01218930E0F9016E
:1006C000E155FE4F8491F901EB53FE4FD491F901AE
:1006D000E351FE4FC491CC2379F081110E943D0279
:1006E000EC2FF0E0EE0FFF1FEF51FE4FA591B491FC
:1006F000EC91ED2381E009F480E08170DF91CF91EE
:100700000895DC01ED91FD918081ED91FD91908145
:10071000ED91FD916C9163708E2309F064609F23CD
:1007200009F06860EEE9F3E0E60FF11D6595659567
:100730006D936D917D918D919D91099423C01AC007
:1007400012C016C010C01EC009C014C013C006C01D
:1007500019C009C00DC007C00DC014C06250704060
:10076000804090400BC0615070408040904006C077
:100770006E5F01C06F5F7F4F8F4F9F4F9E938E9331
:100780007E936E93089580915E0290915F020C9427
:10079000810380916002909161020C9481038F9299
:1007A0009F92AF92BF92CF92DF92EF92FF920F9300
:1007B0001F93CF93DF93FC01E35BFF4F2081222344
:1007C00009F419C2EC018C8D882309F452C00A8DFA
:1007D0001B8DD80118968C9118978B7F18968C9347
:1007E0001897ED91FC910190F081E02DC8010995D9
:1007F000F82EF801808586958170F81609F467C196
:100800000E944903D80112966D937D938D939C931A
:10081000159718968C91189792E0892718968C93C3
:10082000D80118968C9182FF24C00E9449036FABB7
:1008300078AF89AF9AAF1FAEE881F981309711F098
:10084000CE010995EA8DFB8D808581708EA79085FC
:10085000892F847090FD7FC1882359F081E0FE01CB
:10086000E05CFF4F8083EA81FB81309711F0CE017D
:1008700009958D8D882309F476C00E944903AB0148
:10088000BC018E010B5B1F4FFE01ED5BFF4F208112
:100890003181F80180819181A281B381820F931F00
:1008A000A11DB11D84179507A607B70708F05BC007
:1008B000E88CF98CD7011B968C91823008F06EC1C0
:1008C000F894C7010E948103F701678170858185D3
:1008D000928578942E8D30E050E040E00E942A34DA
:1008E000CA01B9010E94CA340E9492348F8C98A028
:1008F000A9A0BAA0681579058A059B0561F19B013D
:10090000281939093CA72BA76F8F78A389A39AA32D
:100910001FAE0E9449036FAB78AF89AF9AAF2EA587
:100920008BA59CA5213009F03BC1092E000CAA0B18
:10093000BB0B4BA15CA16DA17EA1840F951FA61FCF
:10094000B71F8BA39CA3ADA3BEA3E889F9893097F9
:1009500011F0CE0109950E944903D8016D937D9352
:100960008D939C9313978C8D882309F482C08DA559
:10097000811145C00A8D1B8DF801808580FD3FC027
:100980000E9449032DA93EA92F5F3F4F49A95AA9AB
:10099000249F4001259F900C349F900C1124B12C72
:1009A000A12CD80119960D911D912D913C911C9768
:1009B000601B710B820B930B86169706A806B9066F
:1009C000D8F40E9449036FAB78AF89AF9AAFFE01AC
:1009D000EE5BFF4F8081811104C08DA99EA9892BF8
:1009E00031F4EE85FF85309711F0CE0109958DA980
:1009F0009EA901969EAB8DAB8C8D8823D1F18BA9DE
:100A0000811137C01EA51130A1F5EA8CFB8C0E9424
:100A100049038FA498A8B12CA12CF701C184D284DA
:100A2000E384F4846C197D098E099F098616970664
:100A3000A806B906F0F41BAB89A99AA9B0E0A0E01A
:100A4000EA8DFB8D4585568567857089FE01EF5BD4
:100A5000FF4F84179507A607B70708F0B6C01CAA72
:100A600010831EAA1DAAE885F985309711F0CE01E2
:100A700009958FAD8111BFC08E899F89892B09F49B
:100A8000BAC00E9449030FA918AD29AD3AAD601B49
:100A9000710B820B930B0BAD1CAD2DAD3EAD06174C
:100AA00017072807390708F0A6C081E08FAFEE8945
:100AB000FF89CE01DF91CF911F910F91FF90EF90B1
:100AC000DF90CF90BF90AF909F908F9009940E943D
:100AD0004903F80182809380A480B580AB01BC01FA
:100AE000481959096A097B0986819781B0E0A0E01D
:100AF000481759076A077B0708F492CE80858170F2
:100B0000F81609F48DCE0E944903D80112966D9310
:100B10007D938D939C93159718968C91189791E0DF
:100B20008927846018968C930E944903F801C18438
:100B3000D284E384F4846C197D098E099F0965874A
:100B400076878787908B0E944903F80161877287B7
:100B50008387948765CE882309F48BCE8DA58E017B
:100B6000005C1F4F882379F01DA6FE01EF5BFF4F4D
:100B700010821CAAEC89FD89309711F0CE010995ED
:100B8000D8011C9276CEF8018081882321F01BAA1F
:100B90008CA98F5F8CABEC81FD81EECFF89494CE65
:100BA00021E02DA7092E000CAA0BBB0B4FA158A5C5
:100BB00069A57AA5840F951FA61FB71F8FA398A7B5
:100BC000A9A7BAA7EA89FB89C2CE8CA98083833002
:100BD00039F4EC85FD85309741F0CE01099509C0C7
:100BE000823019F4EA85FB85F6CFEE81FF813097DC
:100BF000A1F71CAA3ECFDF91CF911F910F91FF90DB
:100C0000EF90DF90CF90BF90AF909F908F9008951E
:100C1000FF920F931F93CF93DF93C82FD0E034E15F
:100C2000F32E813031F051E1F52E823011F445E19F
:100C3000F42E8F2D0E9442038C018F2D0E944203BF
:100C4000080F191F8F2D0E944203800F911F63E030
:100C500070E00E94C136CB01FE01EE0FFF1FEC5683
:100C6000FE4F208131812617370771F0A901461BFD
:100C7000570B4531510540F071836083DF91CF916F
:100C80001F910F91FF900895C901F8CFFC010190C9
:100C90000020E9F73197AF01481B590BBC0181ECEB
:100CA00091E00C9430018F929F92AF92BF920F937C
:100CB0001F93CF93DF93CDB7DEB7A1970FB6F8940C
:100CC000DEBF0FBECDBF19A2423008F44AE08E014C
:100CD0000F5D1F4F842E912CB12CA12CA5019401E6
:100CE0000E945C34E62FB901CA01EA30F4F4E05DF9
:100CF000D801EE938D01232B242B252B79F790E03F
:100D000080E0109719F0CD010E944606A1960FB61B
:100D1000F894DEBF0FBECDBFDF91CF911F910F9131
:100D2000BF90AF909F908F900895E95CE1CFCF92F4
:100D3000DF92EF92FF92CF93DF936C01990FEE0851
:100D4000FF08F7FE1FC06DE281EC91E00E94D00128
:100D5000EC0166277727CB016C197D098E099F0965
:100D60004AE00E945306C80FD91F89E791E00E940C
:100D700046068C0F9D1FDF91CF91FF90EF90DF9083
:100D8000CF9008954AE0C701B6010E945306EC01D6
:100D9000ECCF20914B0130914C0121303105E1F431
:100DA0008091490190914A018931910574F401962D
:100DB00090934A01809349018091490190914A01A1
:100DC000909348018093470108954997A9F730937C
:100DD0004A0120934901F0CF22303105B1F48091CE
:100DE0004501909146018C31910554F40196909300
:100DF0004601809345018091450190914601E0CFE5
:100E00004C97C9F781E090E0F2CF23303105E1F64D
:100E100080914301909144018431910554F40196ED
:100E20009093440180934301809143019091440148
:100E3000C7CF4497C9F781E090E0F2CF40915101CC
:100E400050915201FC0123A534A586E0220F331FE7
:100E50008A95E1F7240F351F3093520120935101F9
:100E60004217530771F0032E000C440B550B60E042
:100E700078E488EE91E00E942A3430938900209330
:100E80008800089580914B0190914C01813091052B
:100E9000D1F48091490190914A018230910574F01A
:100EA000019790934A018093490180914901909163
:100EB0004A01909348018093470108950197A9F74B
:100EC00089E190E0EECF82309105B1F48091450147
:100ED000909146018230910554F00197909346011C
:100EE000809345018091450190914601E2CF0197A1
:100EF000C9F78CE190E0F2CF0397F9F680914301B6
:100F0000909144018230910554F0019790934401EF
:100F1000809343018091430190914401CACF01978E
:100F2000C9F784E190E0F2CF8F5B9F4FFC01808195
:100F300090E090934C0180934B01089520914101E2
:100F400030914201FC0183A594A5820F931F883044
:100F5000910514F087E090E0893FFFEF9F0714F4BC
:100F600089EF9FEF90934201809341010895089586
:100F70000E9431381F920F920FB60F9211242F93B7
:100F80003F934F935F936F937F938F939F93AF9311
:100F9000BF93EF93FF9381EC91E00E94AE01FF912C
:100FA000EF91BF91AF919F918F917F916F915F91E1
:100FB0004F913F912F910F900FBE0F901F9018955A
:100FC0001F920F920FB60F9211242F938F939F931E
:100FD000EF93FF93E091D101F091D2018081E091F4
:100FE000D701F091D80182FD1BC090818091DA0178
:100FF0008F5F8F732091DB01821741F0E091DA015E
:10100000F0E0EF53FE4F958F8093DA01FF91EF915F
:101010009F918F912F910F900FBE0F901F90189559
:101020008081F4CF1F920F920FB60F9211242F934D
:101030003F938F939F93AF93BF9380919F01909124
:10104000A001A091A101B091A20130919E0120E4E4
:10105000230F2D3728F023EC230F0196A11DB11D7E
:1010600020939E0180939F019093A001A093A101E2
:10107000B093A20180919A0190919B01A0919C0153
:10108000B0919D010196A11DB11D80939A0190938D
:101090009B01A0939C01B0939D01BF91AF919F9143
:1010A0008F913F912F910F900FBE0F901F90189529
:1010B0001F920F920FB60F9211242F933F934F93CD
:1010C0005F936F937F938F939F93AF93BF93EF93B0
:1010D000FF93E0914F01F09150010995FF91EF913D
:1010E000BF91AF919F918F917F916F915F914F9140
:1010F0003F912F910F900FBE0F901F9018951F9248
:101100000F920FB60F9211242F933F934F935F933B
:101110006F937F938F939F93AF93BF93EF93FF93BF
:10112000E0914D01F0914E010995FF91EF91BF9132
:10113000AF919F918F917F916F915F914F913F916F
:101140002F910F900FBE0F901F9018951F920F9226
:101150000FB60F9211242F923F924F925F926F928F
:101160007F928F929F92AF92BF92CF92DF92EF9237
:10117000FF920F931F932F933F934F935F936F9320
:101180007F938F939F93AF93BF93EF93FF93CF93EF
:10119000DF9300D000D0CDB7DEB780914B019091A6
:1011A0004C018230910511F40C94F51483309105B3
:1011B00011F40C941A25019709F0C2C4E091490179
:1011C000F0914A013197E931F10508F0B9C4ED50C9
:1011D000F74F8090900190909101A0909201B09073
:1011E00093010C94D5360C098B09FE095E0ACC0AD2
:1011F0005B0B040CA40C320DEB0D7D0EEB0E6A0F95
:10120000B80F4810DA106611EE113C148112041365
:101210006E13DC133C149A1480E290E09093580112
:101220008093570181E090E09093C0018093BF01CB
:1012300020E130E030935601209355019093BA019C
:101240008093B90129E030E0309354012093530199
:101250009093B4018093B3018091AF019091B0015C
:101260002401350104C075946794579447948A9576
:10127000D2F7C201F401E170FF27E425F927D50177
:10128000C4015DE0B595A795979587955A95D1F7D7
:1012900088259925880D991DB501A401A5E07595AE
:1012A000679557954795AA95D1F7452B462B472B20
:1012B00069F12091B5013091B6016091BB01709147
:1012C000BC017595679548E050E0461B570B7501CA
:1012D000640104C0F594E794D794C7944A95D2F773
:1012E000A901330F660B770B4C215D21849E900181
:1012F000859E300D949E300D1124821B930B8E2BF6
:101300009F2B9093A4018093A3011AC42091BB0149
:101310003091BC01D2CF20E130E0309358012093CE
:10132000570181E090E09093C0018093BF0130931A
:101330005601209355019093BA018093B9013093DF
:101340005401209353019093B4018093B301809191
:10135000AF019091B00188219921B501A401B4E0B9
:101360007595679557954795BA95D1F79C012427B0
:101370003527BB27B7FCBA95AB2D9A2D892D88252B
:101380009925880D991DB501A40103E07595679510
:10139000579547950A95D1F7452B462B472B49F191
:1013A0006091B5017091B601E091B501F091B6017F
:1013B000F595E79545E050E04E1B5F0B7501640124
:1013C00004C0F594E794D794C7944A95D2F7AB013B
:1013D000770F660B770B4C215D21849EF001859E73
:1013E000F00D949EF00D11248E1B9F0B822B932BDE
:1013F00088CF6091BB017091BC01D6CF20E130E075
:10140000309358012093570181E090E09093C00100
:101410008093BF0130935601209355019093BA01F8
:101420008093B90130935401209353019093B401F8
:101430008093B3012091BB013091BC018091AF0139
:101440009091B001220F331F7501640104C0F5941F
:10145000E794D794C7942A95D2F7960188219921C9
:1014600028273927D501C40165E1B595A79597953A
:1014700087956A95D1F788259925880D991DB5011D
:10148000A4014770552766277727452B462B472B06
:1014900081F06091B5017091B601E091B501F091D4
:1014A000B60145E0F595E7954A95E1F748E050E04B
:1014B00083CF6091BB017091BC01EFCF80E190E0E0
:1014C00090935801809357011092C0011092BF0170
:1014D00090935601809355011092BA011092B90170
:1014E00090935401809353011092B4011092B30170
:1014F000D501C4018F719927AA27BB27892B8A2B75
:101500008B2B09F43FC0D501C40180959095A0951F
:10151000B09522E0B595A795979587952A95D1F72F
:10152000FC014091BB015091BC018091B5019091AB
:10153000B6012091AF013091B0018501740104C062
:1015400015950795F794E7944A95D2F7D40111972A
:10155000AE0DBF1D97FD0196959587958825992518
:1015600004C0B594A794979487942A95D2F7882AB3
:10157000992AA819B909EA23FB23F093A401E0935F
:10158000A301DEC2D501C40103E0B595A7959795E7
:1015900087950A95D1F7C4CF20E130E03093580108
:1015A0002093570181E090E09093C0018093BF01A8
:1015B00030935601209355019093BA018093B9015D
:1015C00030935401209353019093B4018093B3015D
:1015D0000091BB011091BC014090BB015090BC0137
:1015E0005A824982C090B501D090B601E090AF0117
:1015F000F090B0012090AF013090B0014090B50163
:101600005090B601A4ECB0E0A50194010E944934C9
:10161000052C000C66087708640D751D861D971D46
:101620000E94CA340E948D342B013C0129813A81E9
:101630002C533F4F83E090E0B6010E94C136B501C4
:10164000A40104C075956795579547958A95D2F77B
:1016500002C0359527954A95E2F75DE0E50EF11C4D
:101660002E213F21289DB001299D700D389D700DC0
:101670001124D501C40104C0B595A7959795879508
:101680002A94D2F7682B792BD501C401E3E0B595F4
:10169000A79597958795EA95D1F708231923060F03
:1016A000171FC301B2010E949234600F711F709323
:1016B000A4016093A3012EE130E030935801209300
:1016C000570181E090E09093C0018093BF014FE00B
:1016D00050E050935601409355019093BA01809386
:1016E000B90130935401209353019093B401809336
:1016F000B301A5019401C501B4010E94B1366B018B
:101700007C01CC0CDD1CEE1CFF1CD501C4018770D4
:101710009927AA27BB27892B8A2B8B2B09F465C015
:10172000D501C40143E0B595A795979587954A954E
:10173000D1F7C822D922D501C40137E0B595A795C4
:10174000979587953A95D1F7E2E0F0E0892B8A2BBF
:101750008B2B21F4E091B501F091B6010091AF011E
:101760001091B001E090BB01F090BC01A091BB01D1
:10177000B091BC016090B5017090B6014090AF018E
:101780005090B001A50194010E94543404C0959575
:101790008795779567956A94D2F7482059206425F4
:1017A0007525D501C4012DE0B595A7959795879529
:1017B0002A95D1F7340168267926680C791C662AA7
:1017C000772A0E0D1F1D04C0B594A7949794879493
:1017D0000A95D2F78E229F22C824D924C628D7285A
:1017E000D092A401C092A301ABC18091AF019091AE
:1017F000B0012401350104C075946794579447944F
:101800008A95D2F7C20195CF80E190E0909358017C
:101810008093570181E090E09093C0018093BF01D5
:1018200029E230E030935601209355019093BA019C
:101830008093B9012EE130E030935401209353019D
:101840009093B4018093B301D501C401E7E0B5954D
:10185000A79597958795EA95D1F7892B8A2B8B2B9E
:1018600009F45FC02091BB013091BC018091BB01A4
:101870009091BC01B501A40104C075956795579579
:1018800047958A95D2F7C901330FAA0BBB0B842366
:101890009523889DF001899DF00D989DF00D1124F0
:1018A00075016401CC0CDD1CEE1CFF1CD501C401CC
:1018B00087709927AA27BB27892B8A2B8B2BB1F1FD
:1018C0002401350165E075946794579447946A95AF
:1018D000D1F7A091B501B091B6010091B501109179
:1018E000B601A50194010E945434A3019201261B64
:1018F000370B480B590BDA01C90153E0B595A79591
:10190000979587955A95D1F7C822D9228AE290E017
:10191000801B910B882299228E269F26C824D924C9
:101920005FCF2091AF013091B001A0CF8091AF0186
:101930009091B0012401350104C0759467945794C7
:1019400047948A95D2F7C5CF80E290E090935801F2
:10195000809357011092C0011092BF0190935601DD
:10196000809355011092BA011092B90190935401DD
:10197000809353011092B4011092B3014090AF01D3
:101980005090B0015A8249822090B5013090B60142
:101990000091BB011091BC01E091B501F091B6013D
:1019A0008091BB019091BC012401350145E0759403
:1019B0006794579447944A95D1F7CC24DD24760157
:1019C000C818D908EA08FB08F7FD3396F595E7959E
:1019D000F595E79563E070E00E94C136D501C4013A
:1019E00004C0B595A795979587956A95D2F7E81B9A
:1019F000F90B04C0F594E794D794C794EA95D2F70D
:101A0000220C331C220C331CC80163E070E00E94DE
:101A1000C136D501C40104C0B595A79597958795A2
:101A20006A95D2F7281A390AA501940104C0559580
:101A30004795379527952A94D2F72C213D214E21A1
:101A40005F21C301B2010E942A3428213921098073
:101A500004C0B594A794979487940A94D2F7822AE5
:101A6000932A41C185E290E09093580180935701F9
:101A700084E090E09093C0018093BF0180E190E00A
:101A800090935601809355011092BA011092B901BA
:101A90008CE090E0909354018093530185E090E0B6
:101AA0009093B4018093B3018091B5019091B601F8
:101AB000E091BB01F091BC014091B5015091B6019C
:101AC0002091B5013091B6016091AF017091B001E4
:101AD0002401350104C07594679457944794EA959E
:101AE000D2F77501640104C0F594E794D794C794C4
:101AF0004A95D2F74C9CA0014D9C500D5C9C500D1A
:101B0000112488219921480F591F480D591D75012D
:101B1000640104C0F594E794D794C7942A95D2F74A
:101B2000860104C0B594A794979487946A95D2F7D8
:101B300008291929402B512B5093A4014093A3014C
:101B40008091A3019091A4018093B3008091410101
:101B5000909142010097C1F0092E000CAA0BBB0B1B
:101B60004091900150919101609192017091930187
:101B7000840F951FA61FB71F80939001909391012A
:101B8000A0939201B09393010F900F900F900F903C
:101B9000DF91CF91FF91EF91BF91AF919F918F9185
:101BA0007F916F915F914F913F912F911F910F9175
:101BB000FF90EF90DF90CF90BF90AF909F908F906D
:101BC0007F906F905F904F903F902F900F900FBE3F
:101BD0000F901F90189524E430E030935801209323
:101BE000570181E090E09093C0018093BF01309352
:101BF0005601209355019093BA018093B90180E278
:101C000090E090935401809353011092B40110928C
:101C1000B3012091B5013091B6018091BB01909143
:101C2000BC0106E0809FC00111246FEF70E00E94AC
:101C3000C136FB01E050FF4F1FE1219FC00111247D
:101C40006FEF70E00E94C136608380910001B501A2
:101C5000A40104C075956795579547958A95D2F765
:101C6000242F2825280D2983809101017501640105
:101C700004C0F594E794D794C7948A95D2F7E0917D
:101C80000301F0E0E050FF4F208130E050E040E001
:101C9000C501B4010E942A34672B682B692B41F5DA
:101CA00080910401482F2091AF013091B0018091C3
:101CB00005012401350104C0759467945794479435
:101CC0008A95D2F7C2018C2184234981889E4019CC
:101CD000112450E004C0B594A794979487942A9552
:101CE000D2F7842295229092A4018092A30128CF5A
:101CF00042E050E060E070E0D6CF20E130E0309389
:101D000058012093570181E090E09093C0018093A7
:101D1000BF0130935601209355019093BA018093EF
:101D2000B90180E290E090935401809353011092A6
:101D3000B4011092B3012091B5013091B6018091A8
:101D4000BB019091BC019927880F991F880F991F9B
:101D50006FEF70E00E94C136FB01EA5FFE4F05EFB6
:101D6000209FC00111246FEF70E00E94C136608394
:101D70002091AF013091B00180910601B501A4011D
:101D800004C075956795579547958A95D2F7CA010E
:101D9000409107012401350104C07594679457945C
:101DA00047944A95D2F784214091080184234091B9
:101DB00009017501640104C0F594E794D794C794B0
:101DC0004A95D2F78C21889D802D1124882E912C44
:101DD000821A930A88CF88E090E09093580180930C
:101DE000570123E030E03093C0012093BF0120E190
:101DF00030E030935601209355019093BA018093BF
:101E0000B9018EE190E0909354018093530184E1F5
:101E100090E09093B4018093B3010091BB011091C5
:101E2000BC018091B5019091B6012091AF01309134
:101E3000B001B501A401F3E0440F551F661F771FE1
:101E4000FA95D1F704C075956795579547958A958A
:101E5000D2F77401EE0CFF1CEE0CFF1CE42AF52AED
:101E6000E828F928032E000C440B550BC501B401DA
:101E70000E942A34C40184579F4F28233923E22A21
:101E8000F32AD501C40104C0B595A7959795879508
:101E90000A95D2F72CE0289D8001299D100D112470
:101EA00008231923C501B40124E030E040E050E0EC
:101EB0000E942A34280D391D20233123E22AF32AD7
:101EC000B4E0B594A79497948794BA95D1F78E20EF
:101ED0009F2009CF28E030E030935801209357012C
:101EE00083E090E09093C0018093BF01309356014E
:101EF000209355019093BA018093B9013093540116
:101F0000209353019093B4018093B3018091BB015E
:101F10009091BC019501840104C0359527951795D2
:101F200007958A95D2F700FF16C08091B501909170
:101F3000B60104C0B594A794979487948A95D2F774
:101F40009092A4018092A30184E090E090934201DA
:101F500080934101F5CD8091AF019091B001B09493
:101F6000A09490948094811C911CA11CB11CE1CF81
:101F700088E090E090935801809357011092C0013F
:101F80001092BF0190935601809355011092BA01AF
:101F90001092B90190935401809353011092B401AF
:101FA0001092B301D501C4018F709927AA27BB27CE
:101FB000892B8A2B8B2B09F448C08091BB0190910F
:101FC000BC01A501940104C0559547953795279507
:101FD0008A95D2F7C901B501A401E7E07595679527
:101FE00057954795EA95D1F784239523AC01D50100
:101FF000C40180959095A095B09537E083229924EF
:10200000AA24BB2489288A288B28B1F10091B50124
:102010001091B60169E0B595A795979587956A9552
:10202000D1F7012E000C220B330B80239123489F04
:102030009001499F300D589F300D11242074332793
:102040003093A4012093A3017BCD8091B5019091A1
:10205000B601B501A40104C07595679557954795DC
:102060008A95D2F7D501C4017BE0B595A7959795E0
:1020700087957A95D1F7B8CF0091AF011091B00153
:102080003BE0B595A795979587953A95D1F7C9CF38
:1020900080E190E090935801809357011092C00125
:1020A0001092BF0190935601809355011092BA018E
:1020B0001092B90190935401809353011092B4018E
:1020C0001092B3018091BB019091BC0124E0880F74
:1020D000991F2A95E1F7092E000CAA0BBB0B88214A
:1020E0009921AA21BB21892B8A2B8B2B91F120913D
:1020F000B5013091B6014090BB015090BC015A82AD
:10210000498203E0220F331F0A95E1F7032E000CEA
:10211000440B550BC501B4010E942A349B01AC014C
:10212000282539254A255B25C501B4010E94B13611
:10213000098004C0B594A794979487940A94D2F721
:10214000862A972AA82AB92ABB0C8808982C5401F9
:10215000CACD8091B5019091B6017501640104C0AA
:10216000F594E794D794C7948A95D2F7C601409125
:10217000AF015091B00115E0440F551F1A95E1F7DA
:10218000052E000C660B770B482159216A217B2113
:10219000452B462B472B59F02091AF013091B001D0
:1021A00004C0880C991CAA1CBB1C2A95D2F7882A4B
:1021B000992A99CD80E190E090935801809357013E
:1021C0001092C0011092BF01909356018093550167
:1021D0001092BA011092B901909354018093530167
:1021E0001092B4011092B3018091AF019091B001AF
:1021F0008501740104C015950795F794E7948A95B5
:10220000D2F78701082919291A830983C501B40166
:10221000B5E09595879577956795BA95D1F7209113
:10222000B5013091B60180FE39C037FF02C02F5F83
:102230003F4F359527952401350104C07594679467
:10224000579447942A95D2F7A30192010E942A3409
:10225000E980FA80E22AF32AFA82E982C501B40110
:1022600023E030E040E050E00E942A34672B682BE6
:10227000692B01F18091BB019091BC0163E070E09A
:102280000E94C13604C0B594A794979487946A9528
:10229000D2F709811A81802A912A25CD750164011E
:1022A00004C0F594E794D794C7942A95D2F7A70170
:1022B0009601CCCF8091BB019091BC0104C0B59434
:1022C000A794979487948A95D2F7E3CF24E430E0DB
:1022D000309358012093570181E090E09093C00122
:1022E0008093BF0130935601209355019093BA011A
:1022F0008093B90120E230E03093540120935301E0
:102300009093B4018093B3012091B5013091B6014F
:102310008091BB019091BC01992763E370E00E941A
:10232000C136FB01E65FFE4F1DE0219FC001112475
:102330006FEF70E00E94C13660832091AF01309151
:10234000B00180910A01B501A40104C0759567959B
:10235000579547958A95D2F7CA0140910B01240100
:10236000350104C075946794579447944A95D2F701
:10237000842940910C017501640104C0F594E7942F
:10238000D794C7944A95D2F78C2940910D018501C5
:10239000740104C015950795F794E7944A95D2F710
:1023A0008E2940910E012401350104C07594679473
:1023B000579447944A95D2F7842944275527BA0160
:1023C000481959096A097B09849F802D11248819AD
:1023D000829FA001839F500D1124AECB20E130E0FD
:1023E000309358012093570184E090E09093C0010E
:1023F0008093BF0130935601209355019093BA0109
:102400008093B9012CE030E03093540120935301C4
:102410009093B4018093B3014091BB015091BC01F2
:10242000E091B501F091B6012091AF013091B0017A
:10243000D501C4010A96A11DB11D7501640104C036
:10244000F594E794D794C7944A95D2F7A6017501FD
:10245000640104C0F594E794D794C794EA95D2F741
:102460004C2104C0B595A795979587954A95D2F7C5
:10247000B501A40104C075956795579547952A95B0
:10248000D2F74E7F84239523A623B72341E050E063
:1024900060E070E0481B590B6A0B7B0BD501C4014F
:1024A00076E0B595A795979587957A95D1F78F772B
:1024B0009927AA27BB27880D991DAA1DBB1D882512
:1024C0009925AA25BB254C015D01EAE0B594A794A6
:1024D00097948794EA95D1F701E080229924849E0D
:1024E000C001859E900D949E900D11240296F6E0F9
:1024F000880F991FFA95E1F79093A4018093A301A7
:10250000CEC080E190E0909358018093570121E084
:1025100030E03093C0012093BF0190935601809327
:1025200055013093BA012093B901909354018093DF
:1025300053011092B4011092B3018091B5019091B2
:10254000B601E091AF01F091B0014090BB01509015
:10255000BC015A824982092E000CAA0BBB0BA501B3
:1025600094016AE055954795379527956A95D1F777
:10257000282339234A235B23C501B4010E94B136C5
:102580006B017C01E894C7F8DD24EE24FF24B5013B
:10259000A401098004C075956795579547950A94DD
:1025A000D2F7CF01FF0FAA0BBB0B84239523A623E1
:1025B000B7239C01AD012E5F3F4F4F4F5F4FC501C9
:1025C000B4010E94B136657F77278827992721E0DB
:1025D00030E0C616D706E806F90614F030E020E031
:1025E00080949094A094B09492E0B594A79497941A
:1025F00087949A95D1F7289DC001299D900D389D0B
:10260000900D11240C94810980E190E09093580181
:102610008093570121E030E03093C0012093BF0147
:1026200090935601809355013093BA012093B901DC
:1026300090935401809353011092B4011092B3010E
:102640002091BB013091BC01220F331F032E000CDF
:10265000440B550BC501B4010E942A3494FE22C0DC
:102660006B01C824D924C501B40122E030E040E068
:1026700050E00E942A34C29EC001C39E900DD29E9B
:10268000900D112405E0B594A794979487940A952A
:10269000D1F7882A992A9092A4018092A30182E01E
:1026A00090E054CC8091B5019091B6019695982F09
:1026B000882797958795092E000CAA0BBB0B8821BC
:1026C0009921AA21BB21892B8A2B8B2B21F0880CE5
:1026D000991C880C991C822A932ADDCF85E090E012
:1026E000909358018093570181E090E09093C0014E
:1026F0008093BF0129E030E03093560120935501CB
:102700009093BA018093B90180E190E090935401D5
:102710008093530188E090E09093B4018093B301DB
:102720004091AF015091B0018091AF019091B00103
:102730006091BB017091BC012091B5013091B6014F
:102740007501640104C0F594E794D794C7948A9501
:10275000D2F7D701C6010197A109B109750164013A
:1027600004C0F594E794D794C7944A95D2F78C2582
:102770009D25889EA001899E500D989E500D112484
:10278000D501C40104C0B595A795979587956A951D
:10279000D2F748235923D501C40104C0B595A795A4
:1027A000979587952A95D2F74827592700E8800EF4
:1027B000911C840E951E97CA88E090E09093580172
:1027C0008093570121E030E03093C0012093BF0196
:1027D00080E190E090935601809355013093BA01C7
:1027E0002093B90128E130E0309354012093530144
:1027F0009093B4018093B301A091BB01B091BC014F
:102800008091B5019091B601E091AF01F091B001D6
:10281000A501940104C055954795379527958A954C
:10282000D2F72C5E3F4F4F4F5F4F0E9454349B01B5
:10283000AC01C501B4010E94B1366B017C01AEE070
:10284000B0E0A50194010E94493404C0F594E794D6
:10285000D794C7946A95D2F704C0F594E794D794B7
:10286000C794EA95D2F704C0F594E794D794C79437
:102870008A94D2F70C94F00B2BE030E0309358019F
:102880002093570181E090E09093C0018093BF01B5
:1028900030935601209355019093BA018093B9016A
:1028A00030935401209353019093B4018093B3016A
:1028B0008091BB019091BC01E090B501F090B60110
:1028C000E091AF01F091B0012401350104C075948D
:1028D0006794579447948A95D2F728E932EC48E9EF
:1028E00052EC68E972EC80E090E0042D0E94DB3647
:1028F000D90149835B83A501940104C0559547958F
:1029000037952795EA94D2F769010A2F02231B2FE6
:102910001D21089DD001099DB00D189DB00D1124F9
:1029200004C0B594A79497948794EA95D2F78A2225
:102930009B22D9C984E290E090935801809357017B
:102940001092C0011092BF0180E190E09093560177
:10295000809355011092BA011092B90184E190E080
:1029600090935401809353018AE090E09093B401D6
:102970008093B301F401FF706091AF017091B001D9
:102980002091B5013091B6014091BB015091BC013D
:10299000CF0101967501640104C0F594E794D794C2
:1029A000C7946A95D2F72C213D21240F351F02C010
:1029B000880F991F2A95E2F7BF010E94C13699241A
:1029C000CB01882199217F2F770F770B6F2F0E94E2
:1029D000C13660777727CB01880F991F680F791F61
:1029E0007093A4016093A3015ACEE0914501F09148
:1029F00046013197EC31F10508F0A2C8EE5FFA4EBE
:102A00000C94D5361E15B2154B16F116C117A01829
:102A10003A19D4194C1AC31A481BD71B3E1CCF1C99
:102A20007F1DF31DBF1E501FD11F4C20C5205821F4
:102A3000F0218D22122394233B24C12488E490E0CA
:102A4000909358018093570184E290E09093C001E5
:102A50008093BF0180E490E09093560180935501EC
:102A600080E190E09093BA018093B9019093540172
:102A70008093530181E090E09093B4018093B3017F
:102A8000C0909001D0909101E0909201F09093015C
:102A90008090BB019090BC010091B5011091B601EE
:102AA000E091AF01F091B001A70196016AE0559560
:102AB0004795379527956A95D1F72770332744278F
:102AC0005527C701B601660F771F881F991F0E94FF
:102AD000B136092C000CAA08BB0886229722A8222E
:102AE000B92232E0830E911CA11CB11CA7019601F2
:102AF00004C05595479537952795EA95D2F72370E9
:102B00003327442755272E5F3F4F4F4F5F4FC70155
:102B1000B6010E94B136012E000C220B330B60234C
:102B200071238223932321E030E086169706A806BE
:102B3000B90614F030E020E0D701C60180959095E9
:102B4000A095B09542E0B595A795979587954A953C
:102B5000D1F7289FA001299F500D389F500D1124B7
:102B60000C949C0D80E190E0909358018093570164
:102B700084E090E09093C0018093BF0180E290E0F8
:102B8000909356018093550185E190E09093BA01AE
:102B90008093B90184E190E09093540180935301B4
:102BA00088E090E09093B4018093B301C0909001CD
:102BB000D0909101E0909201F09093018091BB013F
:102BC0009091BC014090B5015090B6010091AF01C9
:102BD0001091B0013601470104C095948794779411
:102BE00067948A95D2F7C401B30124E030E040E055
:102BF00050E00E942A349B01AC012F5F3F4F4F4FA2
:102C00005F4FC701B6010E94B1364B015C01A701BD
:102C1000960104C055954795379527950A95D2F7A3
:102C2000A9E0B0E00E94493428E030E040E050E004
:102C30000E942A349201550C440B550B260F371F66
:102C4000481F591FC501B4010E942A348B0100712D
:102C50001127C701B6012AE0959587957795679565
:102C60002A95D1F727E030E040E050E00E942A3476
:102C70006F5F7F4F8F4F9F4F4AE0469F9001479F66
:102C8000300D1124029FC001039F900D129F900DE3
:102C900011240C9481098AE090E09093580180936C
:102CA000570181E090E09093C0018093BF0128E03C
:102CB00030E030935601209355019093BA018093F0
:102CC000B90120E130E030935401209353019093F7
:102CD000B4018093B3018090900190909101A090F5
:102CE0009201B0909301C090BB01D090BC012091A3
:102CF000B5013091B601E090AF01F090B0010091C4
:102D0000B5011091B601C501B401A1E19595879572
:102D100077956795AA95D1F7032E000C440B550BB8
:102D20000E942A34C61AD70AC501B40104C0959579
:102D3000879577956795CA94D2F79701FF0C440B56
:102D4000550B0E942A349B01AC012160C501B401DE
:102D50000E94B1366B01C501B401BDE09595879520
:102D600077956795BA95D1F79801110F440B550BDC
:102D70000E942A3418E0412E512C02C0440C551CEC
:102D80006A95E2F75A824982C501B4010FE0959530
:102D90008795779567950A95D1F728E030E040E070
:102DA00050E00E942A349B01AC012160D2010E94B4
:102DB0005434C622D7228AE0B594A7949794879476
:102DC0008A95D1F74BE0489D9001499D300D112423
:102DD0002C9DC0012D9D900D3C9D900D11240C94B7
:102DE00081098DE090E0909358018093570181E034
:102DF00090E09093C0018093BF012FE030E03093CA
:102E00005601209355019093BA018093B9012BE0AC
:102E100030E030935401209353019093B401809398
:102E2000B301C0909001D0909101E0909201F09098
:102E30009301260137015DE0759467945794479498
:102E40005A95D1F72091B5013091B601460157014D
:102E500080949094A094B0940091BB011091BC0117
:102E6000E091AF01F091B001032E000C440B550B23
:102E700024213521462157212460C701B6010E9433
:102E8000B136A5019401FBE05595479537952795F7
:102E9000FA95D1F72170332704C0959587957795DA
:102EA00067952A95D2F79B01207833273A832983A7
:102EB000D701C60104C0B595A795979587950A9542
:102EC000D2F7842195218C9D90018D9D300D9C9D84
:102ED000300D112404C0B594A79497948794EA9573
:102EE000D2F743E084229924289DB001299D700DDA
:102EF000389D700D11246F77772749805A80462AB4
:102F0000572A5A824982D4FE27C0C701B6012FEF43
:102F100030E040E050E00E942A349B01AC012C25B7
:102F20003D254E255F25C701B6010E94B13634E02C
:102F3000F594E794D794C7943A95D1F7C62AD72A3F
:102F4000E82AF92AF594E794D794C79469807A809F
:102F5000C624D7240C94F00BD701C60123E0B59505
:102F6000A795979587952A95D1F7D5FE07C002E0DA
:102F7000CC0CDD1CEE1CFF1C0A95D1F7C82AD92AFF
:102F8000E5CF28E130E0309358012093570188E0E5
:102F900090E09093C0018093BF0140E250E05093D5
:102FA0005601409355019093BA018093B901309333
:102FB0005401209353019093B4018093B301C090C6
:102FC0009001D0909101E0909201F0909301D7018F
:102FD000C6011CE0B595A795979587951A95D1F7E9
:102FE00083709927AA27BB27892B8A2B8B2B09F45F
:102FF00060C02091BB013091BC018091B5019091DE
:10300000B6018090AF019090B0019A82898246010A
:10301000570104C0B594A794979487942A95D2F742
:103020009701860104C035952795179507958A95D0
:10303000D2F7C901B80126E030E040E050E00E943C
:103040002A34A7019601098004C055954795379504
:1030500027950A94D2F723703327442755270E94D7
:103060002A342F5F3F4F4F4F5F4FC501B4010E947D
:103070002A34AB01BC014F5F5F4F6F4F7F4FC49E3F
:10308000C001C59E900DD49E900D1124F094E09443
:10309000D094C094C11CD11CE11CF11CA4E0F59497
:1030A000E794D794C794AA95D1F7C822D9220C9453
:1030B000F00B8091B5019091B6014090BB0150900A
:1030C000BC015A82498246015701B594A79497944E
:1030D00087949701860104C0359527951795079524
:1030E0008A95D2F7C901B80126E030E040E050E00F
:1030F0000E942A34A7019601098004C0559547957E
:10310000379527950A94D2F72370332744275527FC
:103110000E942A342F5F3F4F4F4F5F4FC501B401CC
:103120000E942A34AB01BC014F5F5F4F6F4F7F4F4E
:10313000C49EC001C59E900DD49E900D1124B5CFA4
:1031400080E290E090935801809357011092C00163
:103150001092BF0190935601809355011092BA01CD
:103160001092B90190935401809353011092B401CD
:103170001092B301C0909001D0909101E090920123
:10318000F0909301D701C60180959095A095B095D8
:103190004C015D01E2E0B594A79497948794EA9579
:1031A000D1F781149104A104B10449F04C015D01EF
:1031B00073E0B594A794979487947A95D1F780910A
:1031C000B5019091B601E091AF01F091B00140904E
:1031D000BB015090BC015A824982A70196016AE066
:1031E00055954795379527956A95D1F7092E000C87
:1031F000AA0BBB0B282339234A235B23C701B60143
:103200000E94B1362B013C01E89447F8552466240E
:103210007724B701A601098004C075956795579575
:1032200047950A94D2F7CF01FF0FAA0BBB0B84235B
:103230009523A623B7239C01AD012E5F3F4F4F4F2F
:103240005F4FC701B6010E94B136657F7727882797
:10325000992721E030E0461657066806790614F0F3
:1032600030E020E0289DC001299D900D389D900DF3
:10327000112442C980E290E0909358018093570155
:103280001092C0011092BF01909356018093550196
:103290001092BA011092B901909354018093530196
:1032A0001092B4011092B30180909001909091011E
:1032B000A0909201B090930175016401C094D094E4
:1032C000E094F094D701C60107E0B595A7959795CE
:1032D00087950A95D1F7892B8A2B8B2B09F45CC033
:1032E00013E0F594E794D794C7941A95D1F7809199
:1032F000B5019091B601E091AF01F091B0016090FD
:10330000BB017090BC017A826982A5019401AAE098
:103310005595479537952795AA95D1F7092E000C15
:10332000AA0BBB0B282339234A235B23C501B40115
:103330000E94B1362B013C0105EF40225524662442
:103340007724B501A401098004C075956795579548
:1033500047950A94D2F7CF01FF0FAA0BBB0B84232A
:103360009523A623B7239C01AD012E5F3F4F4F4FFE
:103370005F4FC501B4010E94B1366F777727882768
:10338000992721E030E046165706680679060CF4C6
:103390001FCD30E020E01CCDB4E0F594E794D79445
:1033A000C794BA95D1F7A3CF80E190E090935801EC
:1033B0008093570124E030E03093C0012093BF0197
:1033C000909356018093550188E090E09093BA0164
:1033D0008093B90128E130E03093540120935301E8
:1033E0009093B4018093B301409190015091910169
:1033F0006091920170919301E091BB01F091BC0149
:103400002091B5013091B6013A8329830091AF0133
:103410001091B001DB01CA012AE0B595A7959795F7
:1034200087952A95D1F7012E000C220B330B8023B0
:1034300091238A019B01FFE0359527951795079504
:10344000FA95D1F7802391238A019B01098004C05A
:1034500035952795179507950A94D2F70871112786
:1034600022273327802791278A019B0104C03595A5
:10347000279517950795EA95D2F70A701127222705
:103480003327802B912B849F9001859F300D949F33
:10349000300D11240C9420108CE090E09093580192
:1034A0008093570181E090E09093C0018093BF0129
:1034B00020E130E030935601209355019093BA01FA
:1034C0008093B90130935401209353019093B40138
:1034D0008093B3016091900170919101809192016C
:1034E00090919301E091BB01F091BC012091B50155
:1034F0003091B6014091AF015091B001E69FD001EB
:10350000E79FB00DF69FB00D11242B013C0104C0C4
:1035100075946794579447942A95D2F78201A42111
:10352000B123469F9001479F300D569F300D1124C7
:103530006B017C01E7E0F594E794D794C794EA9592
:10354000D1F72C213D21A22BB32BBA83A9838B0168
:10355000000F111F060F171F20E034E040E050E07D
:103560000E942A342023312369807A80622A732AB8
:103570008301015011091093A4010093A30183E07A
:1035800090E00C94A60F8EE190E090935801809308
:10359000570181E090E09093C0018093BF012FE03C
:1035A00030E030935601209355019093BA018093F7
:1035B000B90130935401209353019093B401809347
:1035C000B3010091900110919101209192013091ED
:1035D0009301C090B501D090B6018091AF01909158
:1035E000B0016091BB017091BC01E090B501F09019
:1035F000B6014091AF015091B001E091AF01F0915F
:10360000B0014090B5015090B601A090BB01B090C0
:10361000BC01660F771F660F771F0E94C136C09EE0
:10362000C001C19E900DD09E900D11246823792376
:10363000E09E6001E19ED00CF09ED00C1124D901D7
:10364000C80104C0B595A795979587954A95D2F777
:103650008C219D21682B792BE40DF51DE09FC00185
:10366000E19F900DF09F900D112404C03595279592
:1036700017950795AA94D2F708231923062B172B21
:10368000015011091093A4010093A3010C944F134E
:1036900080E190E0909358018093570121E030E061
:1036A0003093C0012093BF01909356018093550140
:1036B0003093BA012093B90180E290E090935401D5
:1036C000809353011092B4011092B3016091BB0139
:1036D0007091BC01C0909001D0909101E090920156
:1036E000F09093016090B5017090B6014091B501E2
:1036F0005091B6018091BB019091BC01E091AF0166
:10370000F091B00146015701FEE0B594A79497945B
:103710008794FA95D1F7092E000CAA0BBB0B8821D0
:103720009921AA21BB214A01550FAA08BB08880D7F
:10373000991DAA1DBB1D8C9DA0018D9D500D9C9DAA
:10374000500D1124D701C6011AE0B595A79597959C
:1037500087951A95D1F74301770CAA08BB088821F1
:103760009921AA21BB2101E080274B01770FAA08EC
:10377000BB08880D991DAA1DBB1D489FB001499F1C
:10378000700D589F700D112404C0F594E794D794E0
:10379000C794EA95D2F7C62AD72AD092A401C0923C
:1037A000A30130934201209341010C94A00D80E4C9
:1037B00090E090935801809357011092C0011092AD
:1037C000BF0180E190E090935601809355011092E3
:1037D000BA011092B9019093540180935301109251
:1037E000B4011092B301C0909001D0909101E0908B
:1037F0009201F09093018091AF019091B00160919E
:10380000B5017091B6014091BB015091BC0120916E
:10381000B5013091B6012601370104C07594679453
:10382000579447948A95D2F7C2014601570104C0C4
:10383000880C991CAA1CBB1C6A95D2F78829992967
:103840004F5F5F4F052E000C660B770B842395238B
:103850002F5F3F4FB701A60104C075956795579537
:1038600047952A95D2F7C42AD52A8C9D90018D9D23
:10387000300D9C9D300D11240C94201080E290E0BE
:10388000909358018093570181E090E09093C0019C
:103890008093BF0128E130E0309356012093550119
:1038A0009093BA018093B90120E130E03093540144
:1038B000209353019093B4018093B301C090900181
:1038C000D0909101E0909201F0909301A091BB0102
:1038D000B091BC01E091B501F091B6012091AF012A
:1038E0003091B001B701A60115E075956795579520
:1038F00047951A95D1F74601570102E0880C991CAB
:10390000AA1CBB1C0A95D1F748295929AC9DC001B6
:10391000AD9D900DBC9D900D112484239523B7017E
:10392000A601A4E07595679557954795AA95D1F797
:1039300046015701B3E0880C991CAA1CBB1CBA9520
:10394000D1F748295929EC9DB001ED9D700DFC9DE2
:10395000700D112446235723482B592BD701C6013C
:1039600013E0B595A795979587951A95D1F74601D8
:10397000570104E0880C991CAA1CBB1C0A95D1F7BE
:10398000882999292C9DB0012D9D700D3C9D700DAD
:10399000112486239723842B952B0C94810980E195
:1039A00090E0909358018093570188E090E09093C5
:1039B000C0018093BF018EE090E090935601809308
:1039C000550187E090E09093BA018093B9018CE0B3
:1039D00090E0909354018093530186E090E090939F
:1039E000B4018093B301C0909001D0909101E09018
:1039F0009201F0909301D701C60136E0B595A795E5
:103A0000979587953A95D1F7860105721127082772
:103A100019271A8309838091BB019091BC01A701EA
:103A2000960104C055954795379527958A95D2F705
:103A3000C9018C259D258C010C0D1D1DC701B601EA
:103A400028E130E040E050E00E942A34672B682BE8
:103A5000692B09F443C042E050E060E070E08091DF
:103A6000B5019091B6012601370104C075946794A1
:103A7000579447948A95D2F7C20184239523C89E10
:103A80009001C99E300DD89E300D1124C801821BB3
:103A9000930BB701A601440F551F661F771F9701AF
:103AA00086010675127022273327012B022B032B68
:103AB000D1F004E0F594E794D794C7940A95D1F730
:103AC000C422D5228C259D2569807A80682A792A8E
:103AD0007092A4016092A3010C94A00D46E050E006
:103AE00060E070E0BCCF2091AF013091B00104C024
:103AF000F594E794D794C7942A95D2F7E1CF80E163
:103B000090E090935801809357011092C001109259
:103B1000BF0128E030E03093560120935501109208
:103B2000BA011092B90190935401809353011092FD
:103B3000B4011092B301C0909001D0909101E09037
:103B40009201F09093012091BB013091BC018091D2
:103B5000BB019091BC01A091B501B091B601E0917B
:103B6000B501F091B6016091AF017091B00102967C
:103B70004601570104C0B594A794979487948A95F9
:103B8000D2F7AC9DC001AD9D900DBC9D900D112450
:103B9000882A992AD701C60104C0B595A79597959B
:103BA00087952A95D2F7F5E0FC9D9001FD9D300D9B
:103BB0001124822B932B882199214601570104C09F
:103BC000B594A79497948794EA95D2F76C9D900149
:103BD0006D9D300D7C9D300D1124282939298223BB
:103BE00093230C947C1224E430E03093580120930A
:103BF000570181E090E09093C0018093BF01309322
:103C00005601209355019093BA018093B90180E247
:103C100090E090935401809353011092B40110925C
:103C2000B3012091B5013091B6018091BB01909113
:103C3000BC010BE0809FC00111246FEF70E00E9477
:103C4000C136FB01E15FFE4F1FE7219FC001112438
:103C50006FEF70E00E94C136608380919001909177
:103C60009101A0919201B09193012091AF01309107
:103C7000B0013A83298320911001AC01BD0104C039
:103C800075956795579547952A95D2F7209112011A
:103C90002C013D0104C075946794579447942A956C
:103CA000D2F74429E0911401F0E0E15FFE4F20815A
:103CB0003C014D0104C095948794779467942A95AC
:103CC000D2F74629E0910F01209113014C015D01CB
:103CD00004C0B594A794979487942A95D2F7840149
:103CE000F09115016C017D0104C0CC0CDD1CEE1CB3
:103CF000FF1CFA95D2F70C21302FE49F300D1124D0
:103D0000E0911701F0E0E15FFE4F2081AC01BD01C1
:103D100004C075956795579547952A95D2F76C011C
:103D20007D0117E0F594E794D794C7941A95D1F7DD
:103D3000C82A4C29440F6C017D01082E04C0F5945B
:103D4000E794D794C7940A94D2F7209119012C21B3
:103D500050911801259F400D1124242F232730E076
:103D6000098004C0B595A795979587950A94D2F7D1
:103D7000822B932B9093A4018093A30100CC24E485
:103D800030E0309358012093570181E090E0909308
:103D9000C0018093BF013093560120935501909349
:103DA000BA018093B90180E290E09093540180932E
:103DB00053011092B4011092B3012091B5013091DA
:103DC000B6018091BB019091BC0107E0809FC001CA
:103DD00011246FEF70E00E94C136FB01E65EFE4FDA
:103DE0001FE2219FC00111246FEF70E00E94C136D5
:103DF0006083409190015091910160919201709186
:103E00009301E091AF01F091B00180911E012A0170
:103E10003B0104C075946794579447948A95D2F7F0
:103E2000C201209120013A014B0104C0959487946E
:103E3000779467942A95D2F7862100911F018023F9
:103E400020911C014A015B0104C0B594A79497948A
:103E500087942A95D2F78401C0901D010C218027F8
:103E600020911A015A016B0104C0D594C794B794EC
:103E7000A7942A95D2F78501C0901B010C21802BB5
:103E8000849F802D1124282F30E004C075956795FC
:103E900057954795EA95D2F7242B352B0C94201093
:103EA00024E430E0309358012093570181E090E002
:103EB0009093C0018093BF01309356012093550128
:103EC0009093BA018093B90180E290E090935401FD
:103ED000809353011092B4011092B3012091B50167
:103EE0003091B6018091BB019091BC0106E0809FAA
:103EF000C00111246FEF70E00E94C136FB01EF5D3D
:103F0000FE4F13E1219FC00111246FEF70E00E946A
:103F1000C1366083C0909001D0909101E0909201F1
:103F2000F09093014091AF015091B0018091210137
:103F30002601370104C075946794579447948A9575
:103F4000D2F7C201209122012C9D202D1124822B19
:103F5000909123014601570104C0B594A79497940A
:103F600087949A95D2F7209124012C9D202D11241D
:103F700028298223909125014601570104C0B59458
:103F8000A794979487949A95D2F7209126012C9D17
:103F9000902D11249829892390E0841B950B0C9473
:103FA0007C1220E230E0309358012093570181E0E9
:103FB00090E09093C0018093BF013093560120930D
:103FC00055019093BA018093B90130935401209325
:103FD00053019093B4018093B301C0909001D090AD
:103FE0009101E0909201F09093012091BB013091FA
:103FF000BC018091B5019091B601E091AF01F091C3
:10400000B0013601470104C0959487947794679472
:104010002A95D2F7A4019301257033274427552709
:1040200001E020272D5F3F4F4F4F5F4F26013701A3
:1040300004C075946794579447948A95D2F7C30146
:10404000B20163707727882799276B5F7F4F8F4F67
:104050009F4F0E94B1369B01AC01C701B6010E947F
:10406000B1369701860104C03595279517950795B8
:10407000EA95D2F7980123703327AB01BC0104C045
:1040800075956795579547952A95D2F75093A40152
:104090004093A3010C944F1328E030E03093580173
:1040A0002093570181E090E09093C0018093BF017D
:1040B00040E150E050935601409355019093BA016E
:1040C0008093B90130935401209353019093B4012C
:1040D0008093B301409190015091910160919201C0
:1040E000709193012091BB013091BC010091B50109
:1040F0001091B601E091AF01F091B001249F300121
:10410000259F700C349F700C1124DB01CA0124E040
:10411000B595A795979587952A95D1F786219721EB
:10412000049F9001059F300D149F300D11246A01EA
:104130007B01A7E0F594E794D794C794AA95D1F7AB
:104140002C213D21822B932BE49F9001E59F300D84
:10415000F49F300D112424233523822B932B20919F
:10416000B5013091B60104C075956795579547958F
:104170002A95D2F72DE030E0452B462B472B11F442
:1041800028E030E0821B930BF5CD88E090E090931F
:1041900058018093570181E090E09093C001809393
:1041A000BF0120E130E030935601209355012BE010
:1041B00030E03093BA012093B90128E130E0309328
:1041C0005401209353019093B4018093B301C090A4
:1041D0009001D0909101E0909201F0909301609154
:1041E000B5017091B6012091BB013091BC01809165
:1041F000AF019091B0014091AF015091B0014601E3
:10420000570104C0B594A794979487946A95D2F700
:10421000280D391D460157010BE0B594A7949794DA
:1042200087940A95D1F728254601570104C0880CC8
:10423000991CAA1CBB1C2A95D2F7840160E470E08B
:104240000E94C1362601370104C0759467945794C3
:1042500047948A95D2F7C2013601470104C095946C
:104260008794779467944A95D2F7860D971D802B93
:10427000912BA701960166E05595479537952795AF
:104280006A95D1F7280F391F88279927DC018C19E7
:104290009D09AE09BF0975E0B595A79597958795D6
:1042A0007A95D1F78C219D21822393230C94810947
:1042B0008DE090E0909358018093570187E090E063
:1042C0009093C0018093BF018FE090E090935601DE
:1042D0008093550189E090E09093BA018093B901F1
:1042E0008BE090E0909354018093530183E090E041
:1042F0009093B4018093B3018091900190919101CA
:10430000A0919201B09193012091BB013091BC0129
:104310004091BB015091BC018090AF019090B001E1
:104320009A8289825C016D0104C0D594C794B794C8
:10433000A7944A95D2F7F501ED7FFF27AC01BD01A7
:10434000098004C075956795579547950A94D2F7EB
:104350004F7D5527E49F6001E59FD00CF49FD00C62
:104360001124AC01BD01E7E0759567955795479518
:10437000EA95D1F74C7C5527C49EF001C59EF00DFF
:10438000D49EF00D1124AC01BD0104C07595679554
:10439000579547952A95D2F7417055274F5F5F4F44
:1043A0007C018D0104C015950795F794E7944A9513
:1043B000D2F7EE9D9001EF9D300DFE9D300D112442
:1043C000AC01BD01440F551F661F771F12E0880F17
:1043D000991FAA1FBB1F1A95D1F7842B952B64CF69
:1043E00088E190E090935801809357012BE030E0F2
:1043F0003093C0012093BF019093560180935501E3
:104400002AE030E03093BA012093B901909354012F
:10441000809353018EE090E09093B4018093B301B8
:10442000C0909001D0909101E0909201F0909301A2
:104430006090BB017090BC010091B5011091B60174
:104440004090AF015090B0015A824982A701960175
:1044500016E055954795379527951A95D1F72095EC
:104460003095409550952870332744275527C7012C
:10447000B6010E94B1364B015C01C701B60123E0D1
:1044800030E040E050E00E942A34CA01B9012CE03B
:1044900095958795779567952A95D1F7A701960108
:1044A00004C055954795379527956A94D2F7290109
:1044B0003A016227752584279725A50194010E945A
:1044C000B136A701960104C05595479537952795B4
:1044D0000A95D2F746015701098004C0B594A79404
:1044E000979487940A94D2F7282139214A215B2195
:1044F0002370332744275527295F3F4F4F4F5F4F86
:104500000E942A3444E0F594E794D794C7944A95DE
:10451000D1F72C293D290C94201089E090E090934C
:1045200058018093570181E090E09093C0018093FF
:10453000BF0125E030E03093560120935501909360
:10454000BA018093B90180E190E090935401809387
:10455000530188E090E09093B4018093B301C09040
:104560009001D0909101E0909201F09093014090E1
:10457000BB015090BC015A8249820091AF01109159
:10458000B001E091B501F091B60146015701A3E0F9
:10459000880C991CAA1CBB1CAA95D1F7A7019601EF
:1045A000BBE05595479537952795BA95D1F7C70143
:1045B000B6010E94B1362B013C01C701B60104C00F
:1045C00095958795779567950A95D2F74BE04E9F1D
:1045D00090014F9F300D1124032E000C440B550BFE
:1045E0000E942A349B01AC012D5F3F4F4F4F5F4F1C
:1045F000C301B2010E942A349B01AC01C501B40180
:104600000E942A34098004C0F594E794D794C79493
:104610000A94D2F72C213D213093A4012093A301C9
:104620000C944F1385E090E09093580180935701CC
:1046300081E090E09093C0018093BF0186E190E01B
:1046400090935601809355018BE090E09093BA01CE
:104650008093B90120E130E030935401209353015D
:104660009093B4018093B301C0909001D0909101D8
:10467000E0909201F09093016091BB017091BC01B8
:10468000A091AF01B091B0014091BB015091BC012C
:104690002091B5013091B601E091BB01F091BC01D0
:1046A0004601570104C0B594A79497948794AA959E
:1046B000D2F748215921420F531F9701860104C0A8
:1046C00035952795179507954A95D2F701701127CB
:1046D000801B910BA701960104C05595479537950E
:1046E00027958A95D2F7CB01770FAA0BBB0B280F22
:1046F000391F4A1F5B1FA5E0B0E00E944934D70173
:10470000C60104C0B595A795979587956A95D2F788
:104710008E239F23049604C0F594E794D794C794FE
:104720008A95D2F70C94F00B8091900190919101B1
:10473000A0919201B09193010197A140B10564F05D
:1047400080E090E0AFEFBFEF8093900190939101F4
:10475000A0939201B093930189E090E09093580167
:104760008093570121E030E03093C0012093BF01D6
:1047700090935601809355013093BA012093B9016B
:104780002FE030E030935401209353019093B40113
:104790008093B301C0909001D0909101E09092017C
:1047A000F0909301260137016AE07594679457945D
:1047B00047946A95D1F7A090AF01B090B001809076
:1047C000AF019090B0010091BB011091BC0120910C
:1047D000B5013091B6013A832983C301B20123E0C8
:1047E00030E040E050E00E942A346A0D7B1DA701B2
:1047F000960104C055954795379527956A95D2F748
:10480000C701B601E3E0660F771F881F991FEA957D
:10481000D1F70E94B136A701960104C0559547957E
:10482000379527958A94D2F74801110FAA08BB083B
:10483000282139214A215B2109811A814801110F60
:10484000AA08BB08282939294A295B2924213521AE
:10485000462157212D5F3F4F4F4F5F4F0E942A3413
:104860004901C701B60120E130E040E050E00E947C
:104870002A340C942F0D10925801109257018FEF8B
:1048800090E09093C0018093BF0110925601109266
:1048900055019093BA018093B9011092540110927E
:1048A00053019093B4018093B3012091BB013091E7
:1048B000BC0184E991E0821B930B53E0880F991FA0
:1048C0005A95E1F74091BB015091BC01480F591F27
:1048D00070E060E04093840150938501609386010D
:1048E000709387014091B5015091B601480F591F4F
:1048F00070E060E0409388015093890160938A01E1
:1049000070938B012091AF013091B001820F931F02
:10491000B0E0A0E080938C0190938D01A0938E0174
:10492000B0938F01EEE7F1E064E871E026E831E052
:1049300041915191DB01CD90DD90ED90FD90BD0155
:104940008F0102501109C601840F951FD8018D9364
:104950009C932E173F0761F7E0918101F0E0EA5642
:10496000FF4F8491E0918301F0E0EA56FF4FE4911C
:10497000482E4E0E5524551CF201F595E7950C94E2
:10498000BD0A88E490E0909358018093570180E33A
:1049900090E09093C0018093BF0120E430E0309319
:1049A00056012093550120E230E03093BA01209364
:1049B000B901909354018093530188E090E0909363
:1049C000B4018093B301C0909001D0909101E09028
:1049D0009201F09093012091BB013091BC01609055
:1049E000B5017090B6010091AF011091B001032E96
:1049F000000C440B550BC701B6010E942A344B0131
:104A00009301770C440B550BC701B6010E942A3461
:104A1000862A972A9801110F440B550BC701B6013E
:104A20000E942A34682979297093A4016093A30114
:104A30000C94A00DE0914301F09144013197E431D1
:104A4000F10510F00C94A00DE05DFA4DC0909001BE
:104A5000D0909101E0909201F09093010C94D536A2
:104A60004425BA2516268D263227C6274B28F1283D
:104A70005029B529522AD62A412BE82B822CEB2C1F
:104A8000522DA32D162EDA2E88E190E09093580136
:104A90008093570188E090E09093C0018093BF011C
:104AA00020E130E0309356012093550181E090E001
:104AB0009093BA018093B90130935401209353012C
:104AC0009093B4018093B3018090BB019090BC019E
:104AD0009A828982E091BB01F091BC012091B501DD
:104AE0003091B6014091AF015091B0018091AF017A
:104AF0009091B0012601370104C0759467945794D2
:104B000047944A95D2F7A201092E000CAA0BBB0BC1
:104B100084219523C89EA001C99E500DD89E500D9A
:104B20001124D701C601098004C0B595A7959795B2
:104B300087950A94D2F7840F951FB701A6010C2C14
:104B400004C075956795579547950A94D2F7242325
:104B50003523820F931FB701A60104C07595679591
:104B600057954795EA95D2F74C215D21841B950B0B
:104B70000C9481098CE090E0909358018093570148
:104B800081E090E09093C0018093BF0120E130E08C
:104B900030935601209355019093BA018093B90147
:104BA00030935401209353019093B4018093B30147
:104BB0008091BB019091BC014091B5015091B6012B
:104BC000E091BB01F091BC012091AF013091B001A7
:104BD00001964823BB27F7FCBA95AF2D9E2D8D2D4E
:104BE0008423B701A60104C075956795579547952D
:104BF0008A95D2F7D701C60104C0B595A7959795B8
:104C00008795EA95D2F78C219D2104C0F594E7940D
:104C1000D794C7942A95D2F7C82AD92A4C255D255E
:104C20005093A4014093A3010C94BF1A8CE090E030
:104C3000909358018093570181E090E09093C001D8
:104C40008093BF0120E130E030935601209355015D
:104C50009093BA018093B90130935401209353018A
:104C60009093B4018093B30101E0C016D104E00633
:104C7000F10464F080E090E0AFEFBFEF809390012B
:104C800090939101A0939201B09393018091900130
:104C900090919101A0919201B0919301E091BB019B
:104CA000F091BC014091AF015091B001C090B501AD
:104CB000D090B6012091BB013091BC012C013D0187
:104CC00004C075946794579447944A95D2F7A2010B
:104CD0000D2C000CEE08FF084C295D296C017D01AC
:104CE0000A2E04C0F594E794D794C7940A94D2F797
:104CF0004C295D29319604C0B595A7959795879560
:104D0000EA95D2F7489FF001499FF00D589FF00DAA
:104D100011242E0F3F1F0C94201088E090E09093F8
:104D200058018093570181E090E09093C0018093F7
:104D3000BF012AE030E03093560120935501909353
:104D4000BA018093B9013093540120935301909399
:104D5000B4018093B3016090B5017090B6017A827E
:104D60006982E091B501F091B6016091AF01709157
:104D7000B0018091BB019091BC012091BB013091A9
:104D8000BC016090B5017090B6018090AF01909029
:104D9000B001A090AF01B090B0010091BB011091A3
:104DA000BC011C830B831601270104C05594479452
:104DB000379427948A95D2F72C203D20D701C6013D
:104DC00004C0880F991FAA1FBB1F2A95D2F704C0E1
:104DD000B595A795979587956A94D2F782299329D7
:104DE0009701860104C035952795179507958A94F4
:104DF000D2F7A601402351239701860104C0000F7A
:104E0000111F221F331FAA94D2F70B8004C03595BF
:104E10002795179507950A94D2F79A01202B312BE5
:104E200028233923D701C601098004C0B595A79569
:104E3000979587950A94D2F78C219D2104C0CC0CBC
:104E4000DD1CEE1CFF1CEA95D2F704C0F594E79434
:104E5000D794C7946A95D2F7C82AD92A2C253D251C
:104E60000C94201020E130E030935801209357013A
:104E700084E090E09093C0018093BF01309356018D
:104E8000209355019093BA018093B90188E090E096
:104E9000909354018093530181E090E09093B4018A
:104EA0008093B301A091AF01B091B0014091AF01E7
:104EB0005091B0018091BB019091BC018090BB01E9
:104EC0009090BC016091B5017091B6010091B5015F
:104ED0001091B6012601370104C075946794579468
:104EE00047948A95D2F74C205D20092C000CAA0823
:104EF000BB088C0C9D1CAE1CBF1C83E0880C991C4D
:104F0000AA1CBB1C8A95D1F7842895282601370155
:104F100004C075946794579447946A95D2F7B20188
:104F20006C217D21012E000C220B330B0C0D1D1D5D
:104F30002E1D3F1D92E0000F111F221F331F9A9557
:104F4000D1F7062B172BC4018027912797018601E3
:104F500004C03595279517950795AA95D2F70C218A
:104F60001D21052E000C660B770BC40ED51EE61E08
:104F7000F71E24E0CC0CDD1CEE1CFF1C2A95D1F79B
:104F8000C02AD12A8C299D290C947C128EE190E0B4
:104F9000909358018093570181E090E09093C00175
:104FA0008093BF012FE030E03093560120935501EC
:104FB0009093BA018093B901309354012093530127
:104FC0009093B4018093B3016090AF017090B001F1
:104FD0007A8269828091B5019091B601E091BB011E
:104FE000F091BC01A70196015595479537952795F6
:104FF0004601570104C0B594A794979487948A9565
:10500000D2F7C501B4010E94B1369B01AC01C701C2
:10501000B601F7E09595879577956795FA95D1F75D
:105020000E94B1369B01AC01A0E3B0E00E9449347C
:105030004B015C01A7019601098004C05595479575
:10504000379527950A94D2F7C701B6010E94B13669
:10505000A6E0660F771F881F991FAA95D1F7680DE4
:10506000791D8A1D9B1D8701332717FD3095232F3E
:1050700004C0F594E794D794C794EA95D2F70C2925
:105080001D290F5F1F4F04C09595879577956795EC
:105090000A95D2F7C9CC88E190E0909358018093AB
:1050A000570181E090E09093C0018093BF012CE014
:1050B00030E030935601209355019093BA018093CC
:1050C000B90120E130E030935401209353019093D3
:1050D000B4018093B3018091B5019091B601B701FD
:1050E000A60104C075956795579547958A95D2F79F
:1050F0008091B5019091B6019701860104C0359564
:105100002795179507958A95D2F7D901C801892B5C
:105110008A2B8B2B09F458C08DE090E0A0E0B0E022
:10512000E091AF01F091B00184239523A623B7232A
:105130009C01AD012150310941095109C701B60156
:105140000E94B13604C09595879577956795EA9545
:10515000D2F7960125713327622773278091BB010F
:105160009091BC01A701960104C0559547953795CC
:1051700027958A95D2F7C9018C259D258C0D9D1DFB
:1051800046015701880C991CAA1CBB1C0091BB014D
:105190001091BC01012E000C220B330B0C211D21A0
:1051A0002E213F21012B022B032B99F005E0F594D2
:1051B000E794D794C7940A95D1F7C820D9208C25B5
:1051C0009D25682B792B30CC88E090E0A0E0B0E002
:1051D000A7CF13E0F594E794D794C7941A95D1F725
:1051E000ECCF4091BB015091BC01A091AF01B091B7
:1051F000B0012091BB013091BC018091AF01909131
:10520000B0016091B5017091B601E091BB01F091E0
:10521000BC014601570104C0B594A79497948794A4
:105220004A95D2F7A4014C215D214601570104C0E3
:10523000B594A79497948794AA95D2F728293929E9
:10524000240F351FA601421B530B9A01019626011C
:10525000370104C075946794579447948A95D2F7A0
:10526000C201842393234601570104C0B594A79437
:1052700097948794EA95D2F7C89C9001C99C300D09
:10528000D89C300D112404C0F594E794D794C794AA
:105290006A95D2F7C222D322C82AD92A0C94F00BDD
:1052A00080E190E0909358018093570124E030E032
:1052B0003093C0012093BF01909356018093550114
:1052C00023E030E03093BA012093B9019093540168
:1052D0008093530181E090E09093B4018093B301F7
:1052E0006090BB017090BC017A826982E091B50147
:1052F000F091B6014091BB015091BC018091B50184
:105300009091B601A091AF01B091B001052E000CB3
:10531000660B770B46015701841A950AA60AB70A4D
:10532000A4014601570104C0B594A79497948794AB
:105330008A95D2F748295929A49FC001A59F900DAD
:10534000B49F900D1124B701A601098004C0759582
:105350006795579547950A94D2F7CE1ADF0AC42A63
:10536000D52AC822D9220C94CD1B84E690E09093D4
:1053700058018093570122E030E03093C001209320
:10538000BF0182E390E090935601809355013093E2
:10539000BA012093B9018AE090E090935401809380
:1053A00053013093B4012093B3010091B5011091E2
:1053B000B601A090BB01B090BC018091B501909165
:1053C000B601E091AF01F091B0012090B5013090AD
:1053D000B6014091AF015091B0016091BB01709155
:1053E000BC01A091AF01B091B001BA83A98326019D
:1053F000370104C07594679457944794AA94D2F7E0
:105400004601570104C0B594A794979487948A9550
:10541000D2F7C401842995295601A01AB10A850141
:105420008A21912346015701098004C0B594A794AD
:10543000979487940A94D2F726013701A3E07594D4
:10544000679457944794AA95D1F7842895288601A4
:10545000061B170BB8018022972288259925440F37
:10546000551F2601370104C0440C551C661C771CCF
:105470004A95D2F7A2014601570104C0B594A794FA
:10548000979487942A94D2F748295929CE1ADF0A8B
:105490004C215D21482759275093A4014093A30133
:1054A0000C94D11B20E130E0309358012093570138
:1054B00081E090E09093C0018093BF01309356014A
:1054C000209355019093BA018093B9013093540110
:1054D000209353019093B4018093B3016090B50180
:1054E0007090B6018091BB019091BC01A091AF0179
:1054F000B091B0010091B5011091B6012091BB01AE
:105500003091BC01E091AF01F091B001B701A6016B
:1055100004C075956795579547958A95D2F74601CA
:105520005701F4E0880C991CAA1CBB1CFA95D1F712
:1055300048295929C6018619970984239523B7015B
:10554000A60104C075956795579547950A95D2F7BA
:105550004601570113E0880C991CAA1CBB1C1A9524
:10556000D1F748295929B6016A1B7B0B46235723DB
:1055700048275927D701C60104C0B595A795979527
:105580008795EA95D2F74601570102E0880C991CED
:10559000AA1CBB1C0A95D1F788299929C21AD30ADB
:1055A0008C219D21842795270C947C1224E430E0E3
:1055B000309358012093570181E090E09093C0010F
:1055C0008093BF0130935601209355019093BA0107
:1055D0008093B90180E290E090935401809353014D
:1055E0001092B4011092B3012091B5013091B6012F
:1055F0008091BB019091BC01992765E570E00E9404
:10560000C136FB01E95DFE4F07E1209FC001112477
:105610006FEF70E00E94C13660832091AF0130913E
:10562000B00180912801B701A60104C07595679566
:10563000579547958A95D2F7CA0130912901B7014C
:10564000A60104C075956795579547953A95D2F789
:10565000842B30912701B701A60104C07595679589
:10566000579547953A95D2F74C21849F802D112468
:1056700090E004C0F594E794D794C7942A95D2F7A4
:105680000BCE24E430E0309358012093570181E0A1
:1056900090E09093C0018093BF0130935601209316
:1056A00055019093BA018093B90120E130E0309325
:1056B0005401209353019093B4018093B30120913E
:1056C000B5013091B6018091BB019091BC0157E0CA
:1056D000859FC00111246FEF70E00E94C136FB016D
:1056E000E65DFE4F67E2269FC00111246FEF70E078
:1056F0000E94C1366083E091AF01F091B0018091CA
:105700002E01A701960104C0559547953795279519
:105710008A95D2F7A0912F01B0E00E9449344B0145
:105720005C010C2C04C0B594A794979487940A94B8
:10573000D2F7A0913001B0E0A65DBE4F2C91D70109
:10574000C60173E0B595A795979587957A95D1F79A
:10575000822B882A80912B01A701960104C05595C0
:105760004795379527958A95D2F780912C01260188
:10577000370104C075946794579447948A95D2F77B
:10578000D301C2012429392B46295B2BA0912A0180
:10579000B0E00E944934D701C60104C0B595A79571
:1057A000979587956A95D2F788218C9D802C112436
:1057B000912CC094D094E094F09404C0CC0CDD1CE7
:1057C000EE1CFF1CEA95D2F7C828D9280C94F00BE0
:1057D00024E430E0309358012093570181E090E0B9
:1057E0009093C0018093BF013093560120935501DF
:1057F0009093BA018093B90180E290E090935401B4
:10580000809353011092B4011092B3012091B5011D
:105810003091B6018091BB019091BC01992763E062
:10582000880F991F6A95E1F76FEF70E00E94C1360B
:10583000FB01EF5CFE4F0FE1209FC00111246FEFD1
:1058400070E00E94C13660830091AF011091B001F9
:1058500020913701422E512C8091350136014701AC
:1058600004C095948794779467948A95D2F7C4017D
:10587000B301209136014601570104C0B594A794A5
:10588000979487942A95D2F7680D791D8A1D9B1DE0
:10589000209134014601570104C0B594A794979410
:1058A00087942A95D2F7682579258A259B256F5FED
:1058B0007F4F8F4F9F4F2091380130E050E040E004
:1058C0000E942A3402C0440C551C6A95E2F75A82A1
:1058D0004982C49C702C112490913101E0913301D4
:1058E000F0E0EF5CFE4F80819C9D800D11247826B6
:1058F000872C912C04C0F594E794D794C7940A950B
:10590000D2F762CF20E130E0309358012093570165
:1059100081E090E09093C0018093BF0130935601E5
:10592000209355019093BA018093B90180E290E0F1
:1059300090935401809353011092B4011092B301DB
:105940002091B5013091B6018091BB019091BC01CD
:10595000992765E570E00E94C136FB01E75CFE4FC8
:1059600007E1209FC00111246FEF70E00E94C13653
:1059700060832091AF013091B00180913901B7016E
:10598000A60104C075956795579547958A95D2F7F6
:10599000CA0140913A0184232601370104C075945D
:1059A0006794579447948A95D2F7C20140913B017E
:1059B0003601470104C095948794779467944A957B
:1059C000D2F786218C9D802D1124C82ED12CC21A8D
:1059D000D30A0C94F00B80E190E0909358018093EF
:1059E000570121E030E03093C0012093BF01909334
:1059F0005601809355013093BA012093B9019093D9
:105A00005401809353011092B4011092B30120917C
:105A1000B5013091B6018091BB019091BC019927ED
:105A200063E370E00E94C136FB01E45CFE4FC901F4
:105A3000992763E070E00E94C1366083E091AF0176
:105A4000F091B001A0913C01B0E0A70196010E9445
:105A5000493420913D014B015C0104C0B594A794E9
:105A6000979487942A95D2F7A0913E01B0E09601D1
:105A70000E94493420913F0104C095958795779500
:105A800067952A95D2F7862A90914001989D602DBE
:105A90001124862F90E002C095958795EA95E2F74C
:105AA0000C94810988E090E090935801809357010D
:105AB0001092C0011092BF0190935601809355013E
:105AC0001092BA011092B90190935401809353013E
:105AD0001092B4011092B301C11400E4D006E104A5
