:100000000C9485000C94F9070C94D2070C94AD0065
:100010000C94AD000C94AD000C94AD000C94AD00AC
:100020000C94AD000C94AD000C94AD000C94200821
:100030000C94AD000C94AD000C94AD000C94AD008C
:100040000C948C070C94AD000C945A070C94340754
:100050000C94AD000C94AD000C94AD000C94AD006C
:100060000C94AD000C94AD000C9400000C940000B6
:100070000C9400000C94000005A84CCDB2D44EB9ED
:100080003836A9020C50B9918688083CA6AAAA2A3B
:10009000BE000000803F00000000240027002A006E
:1000A0002D0000000000250028002B002E0000007D
:1000B00000085002010000030407000000000000D7
:1000C0000000000001020408102040800102040822
:1000D00010200102040810200208010410402040F2
:1000E000000000002300260029002C000404040462
:1000F00004040404020202020202030303030303D2
:100100000505050505050503852C11241FBECFEF48
:10011000D8E0DEBFCDBF11E0A0E0B1E0E4E3F9E656
:1001200002C005900D92AC37B107D9F723E0ACE7D8
:10013000B1E001C01D92AE33B207E1F710E0C5E8AF
:10014000D0E004C02197FE010E943733C438D107A4
:10015000C9F70E94EA2D0C9498340C940000AF92D9
:10016000BF92CF92DF92EF92FF920F931F93CF93A4
:10017000DF936C017B018B01040F151FEB015E0106
:10018000AE18BF08C017D10759F06991D601ED919B
:10019000FC910190F081E02DC6010995892B79F73A
:1001A000C501DF91CF911F910F91FF90EF90DF90EC
:1001B000CF90BF90AF900895FC01538D448D252FB3
:1001C00030E0842F90E0821B930B541710F0CF96F1
:1001D000089501970895FC01918D828D981761F023
:1001E000A28DAE0FBF2FB11D5D968C91928D9F5F3A
:1001F0009F73928F90E008958FEF9FEF0895FC0119
:10020000918D828D981731F0828DE80FF11D858DCB
:1002100090E008958FEF9FEF0895FC01918D228D5E
:10022000892F90E0805C9F4F821B91098F739927E3
:1002300008958FEA91E00E940D0121E0892B09F4D5
:1002400020E0822F089580E090E0892B29F00E9421
:10025000190181110C9400000895FC01A48DA80FD0
:10026000B92FB11DA35ABF4F2C91848D90E00196F8
:100270008F739927848FA689B7892C93A089B18918
:100280008C91837080648C93938D848D981306C0B9
:100290000288F389E02D80818F7D80830895EF921D
:1002A000FF920F931F93CF93DF93EC0181E0888F30
:1002B0009B8D8C8D98131AC0E889F989808185FF00
:1002C00015C09FB7F894EE89FF896083E889F989A2
:1002D00080818370806480839FBF81E090E0DF91A4
:1002E000CF911F910F91FF90EF900895F62E0B8DF7
:1002F00010E00F5F1F4F0F731127E02E8C8D8E11B2
:100300000CC00FB607FCFACFE889F989808185FF18
:10031000F5CFCE010E942D01F1CFEB8DEC0FFD2F1B
:10032000F11DE35AFF4FF0829FB7F8940B8FEA89D3
:10033000FB8980818062CFCFCF93DF93EC01888DE2
:100340008823B9F0AA89BB89E889F9898C9185FD50
:1003500003C0808186FD0DC00FB607FCF7CF8C91DE
:1003600085FFF2CF808185FFEDCFCE010E942D0168
:10037000E9CFDF91CF91089581508B3088F5E82F38
:10038000F0E0EB53FE4F0C943733DA01DE01D0017D
:10039000D601F001F001E101E701EB01F101F50106
:1003A000809180008F7780938000089580918000F5
:1003B0008F7DF9CF84B58F7784BD089584B58F7D07
:1003C000FBCF8091B0008F778093B000089580912B
:1003D000B0008F7DF9CF809190008F77809390004F
:1003E0000895809190008F7DF9CF80919000877F54
:1003F000F5CF1F93CF93DF93EBEBF0E09491E1ED1A
:10040000F0E0D491E9EFF0E0C491CC23B9F0182FDB
:10041000992319F0892F0E94BC01EC2FF0E0EE0F18
:10042000FF1FEE55FF4FA591B4918FB7F894EC9153
:10043000111108C0D095DE23DC938FBFDF91CF91DF
:100440001F910895DE2BF8CFCF93DF93282F30E054
:10045000F901EC53FF4F949124513F4FF90124913E
:10046000633029F5843039F53091A0003C60309339
:10047000A0002223C9F030E0220F331FF901EA5611
:10048000FF4FA591B491F901EE55FF4FC591D4915D
:10049000611126C02FB7F8948C91909589238C9385
:1004A0008881982398832FBFDF91CF91089584305E
:1004B00011F433E0DCCF3AEE380F323020F43FEF66
:1004C00034BF34BFD6CF8931A1F63091F00032600D
:1004D0003EBB30E83093F0003EB33093F000C9CF1C
:1004E000623051F42FB7F8943C91892F8095832383
:1004F0008C93E8819E2BD6CF843011F46130A1F625
:100500008FB7F894EC919E2B9C938FBFCDCF8091A9
:100510007A00806480937A0080917A0086FDFCCF17
:1005200080917800909179000895CF93DF93909116
:10053000AD00907F9093AD008E3008F08E508064B7
:1005400080937C0080917D00806280937D000E947A
:100550008702EC0180917D008F7D80937D000E9459
:1005600087028C0F9D1F9C0136952795892F99270F
:10057000A901481B590BCA01DF91CF9108950E9430
:100580009502959587959595879508952FB7F89439
:1005900060918D0170918E0180918F0190919001F9
:1005A0002FBF08950895862F642F0C942402CF93B3
:1005B000DF93FC01218930E0F901E255FF4F84917E
:1005C000F901EC53FF4FD491F901E451FF4FC4916D
:1005D000CC2379F081110E94BC01EC2FF0E0EE0FEA
:1005E000FF1FE052FF4FA591B491EC91ED2381E004
:1005F00009F480E08170DF91CF910895DC01ED91E5
:10060000FD918081ED91FD919081ED91FD916C9135
:1006100063708E2309F064609F2309F06860EBE14A
:10062000F3E0E60FF11D659565956D936D917D91F4
:100630008D919D91099423C01AC012C016C010C09C
:100640001EC009C014C013C006C019C009C00DC027
:1006500007C00DC014C062507040804090400BC075
:10066000615070408040904006C06E5F01C06F5F77
:100670007F4F8F4F9F4F9E938E937E936E930895DF
:1006800080914C0290914D020C94FE0280914E029A
:1006900090914F020C94FE028F929F92AF92BF9264
:1006A000CF92DF92EF92FF920F931F93CF93DF933E
:1006B000FC01E35BFF4F2081222309F419C2EC0106
:1006C0008C8D882309F452C00A8D1B8DD801189691
:1006D0008C9118978B7F18968C931897ED91FC91BD
:1006E0000190F081E02DC8010995F82EF801808570
:1006F00086958170F81609F467C10E94C602D80178
:1007000012966D937D938D939C93159718968C916B
:10071000189792E0892718968C93D80118968C9197
:1007200082FF24C00E94C6026FAB78AF89AF9AAF38
:100730001FAEE881F981309711F0CE010995EA8D5D
:10074000FB8D808581708EA79085892F847090FDA8
:100750007FC1882359F081E0FE01E05CFF4F808378
:10076000EA81FB81309711F0CE0109958D8D8823A8
:1007700009F476C00E94C602AB01BC018E010B5B7E
:100780001F4FFE01ED5BFF4F20813181F801808119
:100790009181A281B381820F931FA11DB11D841786
:1007A0009507A607B70708F05BC0E88CF98CD7015E
:1007B0001B968C91823008F06EC1F894C7010E949C
:1007C000FE02F701678170858185928578942E8D70
:1007D00030E050E040E00E948C30CA01B9010E9434
:1007E0002C310E94F4308F8C98A0A9A0BAA0681573
:1007F00079058A059B0561F19B01281939093CA7F8
:100800002BA76F8F78A389A39AA31FAE0E94C6025D
:100810006FAB78AF89AF9AAF2EA58BA59CA5213081
:1008200009F03BC1092E000CAA0BBB0B4BA15CA12C
:100830006DA17EA1840F951FA61FB71F8BA39CA33C
:10084000ADA3BEA3E889F989309711F0CE010995CF
:100850000E94C602D8016D937D938D939C9313974C
:100860008C8D882309F482C08DA5811145C00A8D25
:100870001B8DF801808580FD3FC00E94C6022DA916
:100880003EA92F5F3F4F49A95AA9249F4001259FA8
:10089000900C349F900C1124B12CA12CD8011996E6
:1008A0000D911D912D913C911C97601B710B820B3A
:1008B000930B86169706A806B906D8F40E94C602BE
:1008C0006FAB78AF89AF9AAFFE01EE5BFF4F8081CF
:1008D000811104C08DA99EA9892B31F4EE85FF8575
:1008E000309711F0CE0109958DA99EA901969EAB76
:1008F0008DAB8C8D8823D1F18BA9811137C01EA5BA
:100900001130A1F5EA8CFB8C0E94C6028FA498A836
:10091000B12CA12CF701C184D284E384F4846C1936
:100920007D098E099F0986169706A806B906F0F478
:100930001BAB89A99AA9B0E0A0E0EA8DFB8D4585A3
:10094000568567857089FE01EF5BFF4F8417950719
:10095000A607B70708F0B6C01CAA10831EAA1DAAD6
:10096000E885F985309711F0CE0109958FAD811199
:10097000BFC08E899F89892B09F4BAC00E94C60224
:100980000FA918AD29AD3AAD601B710B820B930B0B
:100990000BAD1CAD2DAD3EAD061717072807390767
:1009A00008F0A6C081E08FAFEE89FF89CE01DF910C
:1009B000CF911F910F91FF90EF90DF90CF90BF905C
:1009C000AF909F908F9009940E94C602F801828098
:1009D0009380A480B580AB01BC01481959096A090C
:1009E0007B0986819781B0E0A0E0481759076A0724
:1009F0007B0708F492CE80858170F81609F48DCEBD
:100A00000E94C602D80112966D937D938D939C939C
:100A1000159718968C91189791E0892784601896FD
:100A20008C930E94C602F801C184D284E384F484CA
:100A30006C197D098E099F09658776878787908B5A
:100A40000E94C602F801618772878387948765CE0A
:100A5000882309F48BCE8DA58E01005C1F4F88235F
:100A600079F01DA6FE01EF5BFF4F10821CAAEC89F6
:100A7000FD89309711F0CE010995D8011C9276CEF0
:100A8000F8018081882321F01BAA8CA98F5F8CAB91
:100A9000EC81FD81EECFF89494CE21E02DA7092EB4
:100AA000000CAA0BBB0B4FA158A569A57AA5840F12
:100AB000951FA61FB71F8FA398A7A9A7BAA7EA8952
:100AC000FB89C2CE8CA98083833039F4EC85FD8507
:100AD000309741F0CE01099509C0823019F4EA85BA
:100AE000FB85F6CFEE81FF813097A1F71CAA3ECFA0
:100AF000DF91CF911F910F91FF90EF90DF90CF90FA
:100B0000BF90AF909F908F900895FF920F931F9387
:100B1000CF93DF93C82FD0E036E0F32E813031F051
:100B200053E0F52E823011F447E0F42E8F2D0E9411
:100B3000BF028C018F2D0E94BF02080F191F8F2D3D
:100B40000E94BF02800F911F63E070E00E94233378
:100B5000CB01FE01EE0FFF1FEE57FE4F20813181CA
:100B60002617370771F0A901461B570B4531510570
:100B700040F071836083DF91CF911F910F91FF90BF
:100B80000895C901F8CFFC0101900020E9F73197E1
:100B9000AF01481B590BBC018FEA91E00C94AF00E8
:100BA0008F929F92AF92BF920F931F93CF93DF9339
:100BB000CDB7DEB7A1970FB6F894DEBF0FBECDBF9D
:100BC00019A2423008F44AE08E010F5D1F4F842EB7
:100BD000912CB12CA12CA50194010E94BE30E62FCE
:100BE000B901CA01EA30F4F4E05DD801EE938D0159
:100BF000232B242B252B79F790E080E0109719F018
:100C0000CD010E94C305A1960FB6F894DEBF0FBEBA
:100C1000CDBFDF91CF911F910F91BF90AF909F906B
:100C20008F900895E95CE1CFCF92DF92EF92FF922F
:100C3000CF93DF936C01990FEE08FF08F7FE1FC0FA
:100C40006DE28FEA91E00E944F01EC016627772761
:100C5000CB016C197D098E099F094AE00E94D005DD
:100C6000C80FD91F89E791E00E94C3058C0F9D1F13
:100C7000DF91CF91FF90EF90DF90CF9008954AE001
:100C8000C701B6010E94D005EC01ECCF0C94C3055E
:100C900080914B0190914C0181309105D1F480916C
:100CA000490190914A018230910574F00197909327
:100CB0004A01809349018091490190914A019093A2
:100CC00048018093470108950197A9F782E190E0D8
:100CD000EECF82309105B1F48091450190914601AB
:100CE0008230910554F0019790934601809345011D
:100CF0008091450190914601E2CF0197C9F78CE1BF
:100D000090E0F2CF0397F9F680914301909144016E
:100D10008230910554F001979093440180934301F0
:100D20008091430190914401CACF0197C9F784E1B2
:100D300090E0F2CF20914B0130914C0121303105F0
:100D4000E1F48091490190914A018231910574F456
:100D5000019690934A0180934901809149019091B5
:100D60004A01909348018093470108954297A9F75B
:100D700030934A0120934901F0CF22303105B1F47C
:100D800080914501909146018C31910554F4019672
:100D900090934601809345018091450190914601D1
:100DA000E0CF4C97C9F781E090E0F2CF23303105D6
:100DB000E1F680914301909144018C3191052CF42E
:100DC0000196909344018093430180914301909157
:100DD0004401C7CF4091510150915201FC0123A51C
:100DE00034A586E0220F331F8A95E1F7240F351FC3
:100DF00030935201209351014217530771F0032E93
:100E0000000C440B550B60E078E488EE91E00E9402
:100E10008C303093890020938800089520914101FF
:100E200030914201FC0183A594A5820F931F883065
:100E3000910514F087E090E0893FFFEF9F0714F4DD
:100E400089EF9FEF909342018093410108950895A7
:100E50008F5B9F4FFC01808190E090934C018093C9
:100E60004B0108950E9493341F920F920FB60F9278
:100E700011242F933F934F935F936F937F938F939F
:100E80009F93AF93BF93EF93FF938FEA91E00E94FC
:100E90002D01FF91EF91BF91AF919F918F917F9124
:100EA0006F915F914F913F912F910F900FBE0F90D7
:100EB0001F9018951F920F920FB60F9211242F9327
:100EC0008F939F93EF93FF93E091BF01F091C00147
:100ED0008081E091C501F091C60182FD1BC0908127
:100EE0008091C8018F5F8F732091C901821741F0F3
:100EF000E091C801F0E0E155FE4F958F8093C80165
:100F0000FF91EF919F918F912F910F900FBE0F90B6
:100F10001F9018958081F4CF1F920F920FB60F92F9
:100F200011242F933F938F939F93AF93BF938091FF
:100F30008D0190918E01A0918F01B091900130911F
:100F40008C0120E4230F2D3728F023EC230F01968A
:100F5000A11DB11D20938C0180938D0190938E0172
:100F6000A0938F01B09390018091880190918901A5
:100F7000A0918A01B0918B010196A11DB11D8093B2
:100F8000880190938901A0938A01B0938B01BF914E
:100F9000AF919F918F913F912F910F900FBE0F9026
:100FA0001F9018951F920F920FB60F9211242F9336
:100FB0003F934F935F936F937F938F939F93AF93E1
:100FC000BF93EF93FF93E0914F01F091500109958A
:100FD000FF91EF91BF91AF919F918F917F916F9111
:100FE0005F914F913F912F910F900FBE0F901F90E7
:100FF00018951F920F920FB60F9211242F933F93C3
:101000004F935F936F937F938F939F93AF93BF9310
:10101000EF93FF93E0914D01F0914E010995FF91FF
:10102000EF91BF91AF919F918F917F916F915F9160
:101030004F913F912F910F900FBE0F901F901895D9
:101040001F920F920FB60F9211242F923F924F9240
:101050005F926F927F928F929F92AF92BF92CF9248
:10106000DF92EF92FF920F931F932F933F934F9333
:101070005F936F937F938F939F93AF93BF93EF9300
:10108000FF93CF93DF9300D000D0CDB7DEB7809130
:101090004B0190914C018230910511F40C94061291
:1010A0008330910511F40C94A121019709F0DCC162
:1010B000E0914901F0914A013197E231F10508F0E0
:1010C000D3C1E359F74F80907E0190907F01A090AB
:1010D0008001B09081010C9437337F08FE087109BC
:1010E000D109890A180BC10B610CEF0C5E0DF00DD4
:1010F0005E0EDC0E750F051097102311AB1180E208
:1011000090E0909358018093570181E090E0909394
:10111000AE018093AD0120E130E030935601209381
:1011200055019093A8018093A70129E030E0309306
:101130005401209353019093A2018093A1018091C7
:101140009D0190919E012401350104C0759467941E
:10115000579447948A95D2F7C201F401E170FF27B2
:10116000E425F927D501C4015DE0B595A7959795CC
:1011700087955A95D1F788259925880D991DB50130
:10118000A401A5E07595679557954795AA95D1F760
:10119000452B462B472B69F12091A3013091A401E7
:1011A0006091A9017091AA017595679548E050E09A
:1011B000461B570B7501640104C0F594E794D7945E
:1011C000C7944A95D2F7A901330F660B770B4C21D0
:1011D0005D21849E9001859E300D949E300D1124DA
:1011E000821B930B8E2B9F2B9093920180939101E6
:1011F0003BC12091A9013091AA01D2CF20E130E07A
:10120000309358012093570181E090E09093AE0114
:101210008093AD0130935601209355019093A8011E
:101220008093A70130935401209353019093A2011E
:101230008093A10180919D0190919E018821992127
:10124000B501A401B4E07595679557954795BA9592
:10125000D1F79C0124273527BB27B7FCBA95AB2DC6
:101260009A2D892D88259925880D991DB501A401F0
:1012700003E075956795579547950A95D1F7452BE6
:10128000462B472B49F16091A3017091A401E09195
:10129000A301F091A401F595E79545E050E04E1BC0
:1012A0005F0B7501640104C0F594E794D794C7946B
:1012B0004A95D2F7AB01770F660B770B4C215D2176
:1012C000849EF001859EF00D949EF00D11248E1BDE
:1012D0009F0B822B932B88CF6091A9017091AA015B
:1012E000D6CF20E130E0309358012093570181E0C0
:1012F00090E09093AE018093AD013093560120931E
:1013000055019093A8018093A70130935401209335
:1013100053019093A2018093A1012091A9013091E2
:10132000AA0180919D0190919E01220F331F7501AA
:10133000640104C0F594E794D794C7942A95D2F732
:1013400096018821992128273927D501C40165E113
:10135000B595A795979587956A95D1F7882599258D
:10136000880D991DB501A401477055276627772779
:10137000452B462B472B81F06091A3017091A4016E
:10138000E091A301F091A40145E0F595E7954A9518
:10139000E1F748E050E083CF6091A9017091AA0184
:1013A000EFCF80E190E09093580180935701109225
:1013B000AE011092AD0190935601809355011092A9
:1013C000A8011092A70190935401809353011092A9
:1013D000A2011092A101D501C4018F719927AA27FA
:1013E000BB27892B8A2B8B2B09F489C0D501C4011B
:1013F00080959095A095B09522E0B595A795979585
:1014000087952A95D1F7FC014091A9015091AA0135
:101410008091A3019091A40120919D0130919E01A2
:101420008501740104C015950795F794E7944A95D2
:10143000D2F7D4011197AE0DBF1D97FD019695957A
:1014400087958825992504C0B594A7949794879487
:101450002A95D2F7882A992AA819B909EA23FB23E1
:10146000F0939201E093910180919101909192010A
:101470008093B30080914101909142010097C1F0A7
:10148000092E000CAA0BBB0B40917E0150917F01ED
:101490006091800170918101840F951FA61FB71F75
:1014A00080937E0190937F01A0938001B09381018E
:1014B0000F900F900F900F90DF91CF91FF91EF91D0
:1014C000BF91AF919F918F917F916F915F914F915C
:1014D0003F912F911F910F91FF90EF90DF90CF9050
:1014E000BF90AF909F908F907F906F905F904F9044
:1014F0003F902F900F900FBE0F901F901895D50121
:10150000C40103E0B595A795979587950A95D1F7FE
:101510007ACF20E130E0309358012093570181E0E9
:1015200090E09093AE018093AD01309356012093EB
:1015300055019093A8018093A70130935401209303
:1015400053019093A2018093A1010091A9011091F0
:10155000AA014090A9015090AA015A824982C090E4
:10156000A301D090A401E0909D01F0909E012090F5
:101570009D0130909E014090A3015090A401A4ECE5
:10158000B0E0A50194010E94AB30052C000C660868
:101590007708640D751D861D971D0E942C310E94D1
:1015A000EF302B013C0129813A812C533F4F83E0DE
:1015B00090E0B6010E942333B501A40104C07595E3
:1015C0006795579547958A95D2F702C03595279527
:1015D0004A95E2F75DE0E50EF11C2E213F21289DA2
:1015E000B001299D700D389D700D1124D501C401E5
:1015F00004C0B595A795979587952A94D2F7682B3F
:10160000792BD501C401E3E0B595A795979587950A
:10161000EA95D1F708231923060F171FC301B2015A
:101620000E94F430600F711F7093920160939101DA
:101630002EE130E0309358012093570181E090E093
:101640009093AE018093AD014FE050E0509356016E
:10165000409355019093A8018093A70130935401C2
:10166000209353019093A2018093A101A5019401BD
:10167000C501B4010E9413336B017C01CC0CDD1C4D
:10168000EE1CFF1CD501C40187709927AA27BB2730
:10169000892B8A2B8B2B09F465C0D501C40143E04B
:1016A000B595A795979587954A95D1F7C822D922E0
:1016B000D501C40137E0B595A795979587953A95DB
:1016C000D1F7E2E0F0E0892B8A2B8B2B21F4E0911B
:1016D000A301F091A40100919D0110919E01E09061
:1016E000A901F090AA01A091A901B091AA0160906E
:1016F000A3017090A40140909D0150909E01A5010E
:1017000094010E94B63004C09595879577956795AA
:101710006A94D2F74820592064257525D501C40163
:101720002DE0B595A795979587952A95D1F7340122
:1017300068267926680C791C662A772A0E0D1F1DEB
:1017400004C0B594A794979487940A95D2F78E22F3
:101750009F22C824D924C628D728D0929201C092AB
:10176000910182CE80919D0190919E0124013501CD
:1017700004C075946794579447948A95D2F7C20130
:1017800095CF80E190E0909358018093570181E0DC
:1017900090E09093AE018093AD0129E230E0309368
:1017A0005601209355019093A8018093A7012EE143
:1017B00030E030935401209353019093A201809321
:1017C000A101D501C40157E0B595A79597958795D7
:1017D0005A95D1F7892B8A2B8B2B09F45FC0209166
:1017E000A9013091AA018091A9019091AA01B501A6
:1017F000A40104C075956795579547958A95D2F7CA
:10180000C901330FAA0BBB0B84239523889DF001DC
:10181000899DF00D989DF00D112475016401CC0C8B
:10182000DD1CEE1CFF1CD501C40187709927AA2777
:10183000BB27892B8A2B8B2BB1F12401350135E095
:1018400075946794579447943A95D1F7A091A30162
:10185000B091A4010091A3011091A401A5019401EC
:101860000E94B630A3019201261B370B480B590B7F
:10187000DA01C90123E0B595A795979587952A9533
:10188000D1F7C822D9228AE290E0801B910B8822EE
:1018900099228E269F26C824D9245FCF20919D01AE
:1018A00030919E01A0CF80919D0190919E012401D5
:1018B000350104C075946794579447948A95D2F77C
:1018C000C5CF80E290E09093580180935701109229
:1018D000AE011092AD019093560180935501109284
:1018E000A8011092A7019093540180935301109284
:1018F000A2011092A10140909D0150909E015A8238
:1019000049822090A3013090A4010091A901109177
:10191000AA01E091A301F091A4018091A901909105
:10192000AA012401350175E0759467945794479492
:101930007A95D1F7CC24DD247601C818D908EA08B5
:10194000FB08F7FD3396F595E795F595E79563E088
:1019500070E00E942333D501C40104C0B595A7955A
:10196000979587956A95D2F7E81BF90B04C0F59413
:10197000E794D794C794EA95D2F7220C331C220C33
:10198000331CC80163E070E00E942333D501C40119
:1019900004C0B595A795979587956A95D2F7281AAB
:1019A000390AA501940104C05595479537952795A7
:1019B0002A94D2F72C213D214E215F21C301B2018F
:1019C0000E948C3028213921098004C0B594A79445
:1019D000979487940A94D2F7822A932AF7C085E2D3
:1019E00090E0909358018093570184E090E09093A9
:1019F000AE018093AD0180E190E090935601809319
:101A000055011092A8011092A7018CE090E09093EC
:101A100054018093530185E090E09093A20180935C
:101A2000A1018091A3019091A401E091A901F091FD
:101A3000AA014091A3015091A4012091A3013091EA
:101A4000A40160919D0170919E012401350104C0A3
:101A50007594679457944794EA95D2F77501640199
:101A600004C0F594E794D794C7944A95D2F74C9C58
:101A7000A0014D9C500D5C9C500D11248821992192
:101A8000480F591F480D591D7501640104C0F59494
:101A9000E794D794C7942A95D2F7860104C0B594E9
:101AA000A794979487946A95D2F708291929402B0F
:101AB000512B5093920140939101D6CC24E430E015
:101AC000309358012093570181E090E09093AE014C
:101AD0008093AD0130935601209355019093A80156
:101AE0008093A70180E290E090935401809353018A
:101AF0001092A2011092A1012091A3013091A401A2
:101B00008091A9019091AA0106E0809FC001112453
:101B10006FEF70E00E942333FB01E050FF4F1FE1A5
:101B2000219FC00111246FEF70E00E942333608376
:101B300080910001B501A40104C075956795579582
:101B400047958A95D2F7242F2825280D298380913F
:101B500001017501640104C0F594E794D794C7941A
:101B60008A95D2F7E0910301F0E0E050FF4F208129
:101B700030E050E040E0C501B4010E948C30672B9A
:101B8000682B692B41F580910401482F20919D011C
:101B900030919E01809105012401350104C07594A6
:101BA0006794579447948A95D2F7C2018C21842375
:101BB0004981889E4019112450E004C0B594A7942F
:101BC000979487942A95D2F7842295229092920135
:101BD0008092910149CC42E050E060E070E0D6CFC5
:101BE00020E130E0309358012093570181E090E0EC
:101BF0009093AE018093AD0130935601209355012F
:101C00009093A8018093A70180E290E09093540103
:101C1000809353011092A2011092A1012091A3017F
:101C20003091A4018091A9019091AA019927880F70
:101C3000991F880F991F6FEF70E00E942333FB01FB
:101C4000EA5FFE4F05EF209FC00111246FEF70E0A7
:101C50000E942333608320919D0130919E018091E9
:101C60000601B501A40104C0759567955795479580
:101C70008A95D2F7CA01409107012401350104C0B9
:101C800075946794579447944A95D2F7842140916C
:101C900008018423409109017501640104C0F59491
:101CA000E794D794C7944A95D2F78C21889D802DCC
:101CB0001124882E912C821A930A88CF80E190E01B
:101CC000909358018093570121E030E03093AE01AA
:101CD0002093AD0190935601809355013093A80154
:101CE0002093A70190935401809353011092A20175
:101CF0001092A101E090A901F090AA018091A301A6
:101D00009091A40120919D0130919E01B501A40103
:101D100003E0440F551F661F771F0A95D1F704C0D3
:101D200075956795579547958A95D2F78401000F69
:101D3000111F000F111F042B152B08291929032E21
:101D4000000C440B550BC501B4010E948C30C4013A
:101D500084579F4F28233923022B132B1A8309837F
:101D6000D501C40123E0B595A795979587952A9548
:101D7000D1F7E89C8001E99C100DF89C100D11240E
:101D800008231923C501B40124E030E040E050E00D
:101D90000E948C30280D391D2023312349805A8020
:101DA000422A532A34E0B594A794979487943A959D
:101DB000D1F7842095200ACF80E490E090935801D9
:101DC0008093570182E090E09093AE018093AD0143
:101DD00028E030E030935601209355019093A801FC
:101DE0008093A70180E190E0909354018093530188
:101DF0001092A2011092A1012091A9013091AA0193
:101E00006090A3017090A401032E000C440B550BAD
:101E1000C501B4010E948C30660D771D2401350187
:101E200004C075946794579447946A95D2F72090AC
:101E30009D0130909E01280C391CC501B40124E895
:101E400039E740E050E00E948C3080919D019091F4
:101E50009E0120FF42C01EE2C12ED12CC81AD90A11
:101E6000DA82C9820091A3011091A40120919D0101
:101E700030919E01C090A901D090AA01032E000CC0
:101E8000440B550BC501B4010E948C300D2C000C85
:101E9000EE08FF08CA01B901A70196010E948C3023
:101EA0006B019801110F440B550BC501B4010E9441
:101EB0008C30C22AD32A4C285D2809811A81082532
:101EC0001925201A310A04C0B594A79497948794D1
:101ED0002A94D2F78428952879CEBBE2EB2EF12CF8
:101EE000E81AF90AFA82E982BDCF88E090E090937F
:101EF0005801809357011092AE011092AD0190935A
:101F00005601809355011092A8011092A701909359
:101F10005401809353011092A2011092A101D501A6
:101F2000C4018F709927AA27BB27892B8A2B8B2B5B
:101F300009F448C08091A9019091AA01A5019401DA
:101F400004C055954795379527958A95D2F7C901CD
:101F5000B501A401A7E07595679557954795AA9592
:101F6000D1F784239523AC01D501C40180959095C8
:101F7000A095B09537E083229924AA24BB24892810
:101F80008A288B28B1F10091A3011091A401E9E006
:101F9000B595A79597958795EA95D1F7012E000CF1
:101FA000220B330B80239123489F9001499F300DD2
:101FB000589F300D112420743327309392012093C1
:101FC000910152CA8091A3019091A401B501A4018D
:101FD00004C075956795579547958A95D2F7D501B1
:101FE000C401FBE0B595A79597958795FA95D1F72C
:101FF000B8CF00919D0110919E017BE0B595A7950A
:10200000979587957A95D1F7C9CF80E190E0909325
:102010005801809357011092AE011092AD01909338
:102020005601809355011092A8011092A701909338
:102030005401809353011092A2011092A10180914A
:10204000A9019091AA0164E0880F991F6A95E1F7B0
:10205000092E000CAA0BBB0B88219921AA21BB21B8
:10206000892B8A2B8B2B91F12091A3013091A40114
:102070004090A9015090AA015A82498243E0220F60
:10208000331F4A95E1F7032E000C440B550BC50195
:10209000B4010E948C309B01AC01282539254A25CA
:1020A0005B25C501B4010E941333098004C0B594B7
:1020B000A794979487940A94D2F7862A972AA82AF5
:1020C000B92ABB0C8808982C540180CD8091A301BB
:1020D0009091A4017501640104C0F594E794D7942C
:1020E000C7948A95D2F7C60140919D0150919E01F7
:1020F00035E0440F551F3A95E1F7052E000C660BAD
:10210000770B482159216A217B21452B462B472BF0
:1021100059F020919D0130919E0104C0880C991CBA
:10212000AA1CBB1C2A95D2F7882A992A4FCD80E198
:1021300090E090935801809357011092AE01109255
:10214000AD0190935601809355011092A801109211
:10215000A70190935401809353011092A201109211
:10216000A10180919D0190919E018501740104C09F
:1021700015950795F794E7948A95D2F78701082972
:1021800019291A830983C501B40125E0959587951E
:10219000779567952A95D1F72091A3013091A401F5
:1021A00080FE39C037FF02C02F5F3F4F359527951E
:1021B0002401350104C075946794579447942A9577
:1021C000D2F7A30192010E948C30E980FA80E22AC2
:1021D000F32AFA82E982C501B40123E030E040E04D
:1021E00050E00E948C30672B682B692B01F18091A5
:1021F000A9019091AA0163E070E00E94233304C01A
:10220000B594A794979487946A95D2F709811A8117
:10221000802A912ADBCC7501640104C0F594E7940F
:10222000D794C7942A95D2F7A7019601CCCF809175
:10223000A9019091AA0104C0B594A794979487949A
:102240008A95D2F7E3CF24E430E03093580120930D
:10225000570181E090E09093AE018093AD013093FF
:102260005601209355019093A8018093A70120E285
:1022700030E030935401209353019093A201809356
:10228000A1012091A3013091A4018091A901909115
:10229000AA01992763E370E00E942333FB01E65F04
:1022A000FE4F1DE0219FC00111246FEF70E00E94DE
:1022B0002333608320919D0130919E0180910A011A
:1022C000B501A40104C075956795579547958A9502
:1022D000D2F7CA0140910B012401350104C0759465
:1022E0006794579447944A95D2F7842940910C01FA
:1022F0007501640104C0F594E794D794C7944A9596
:10230000D2F78C2940910D018501740104C0159507
:102310000795F794E7944A95D2F78E2940910E01DC
:102320002401350104C075946794579447944A95E5
:10233000D2F7842944275527BA01481959096A094F
:102340007B09849F802D11248819829FA001839F7F
:10235000500D1124AECB84E290E09093580180930D
:1023600057011092AE011092AD0180E190E0909380
:102370005601809355011092A8011092A70184E1A3
:1023800090E090935401809353018AE090E0909301
:10239000A2018093A101F401FF7060919D017091F1
:1023A0009E012091A3013091A4014091A901509177
:1023B000AA01CF0101967501640104C0F594E79468
:1023C000D794C7946A95D2F72C213D21240F351F4D
:1023D00002C0880F991F2A95E2F7BF010E9423339C
:1023E0009924CB01882199217F2F770F770B6F2FAD
:1023F0000E94233360777727CB01880F991F680FDE
:10240000791F70939201609391012EC880914501CC
:10241000909146018F30910511F40C94281C0CF01A
:1024200056C28730910509F41EC70CF01DC18330D8
:10243000910509F453C50CF0C1C08130910509F430
:1024400091C4029709F010C88DE090E09093580174
:102450008093570181E090E09093AE018093AD01AD
:102460002FE030E030935601209355019093A8015E
:102470008093A7012BE030E0309354012093530167
:102480009093A2018093A101C0907E01D0907F0122
:10249000E0908001F0908101260137019DE0759464
:1024A0006794579447949A95D1F72091A30130915E
:1024B000A4014601570180949094A094B094009197
:1024C000A9011091AA01E0919D01F0919E01032EB6
:1024D000000C440B550B2421352146215721246043
:1024E000C701B6010E941333A5019401FBE0559585
:1024F000479537952795FA95D1F72170332704C072
:1025000095958795779567952A95D2F79B012078C1
:1025100033273A832983D701C60104C0B595A7950F
:10252000979587950A95D2F7842195218C9D9001E6
:102530008D9D300D9C9D300D112404C0B594A79441
:1025400097948794EA95D2F743E084229924289DB2
:10255000B001299D700D389D700D11246F7777277C
:1025600049805A80462A572A5A824982D4FEA1C4F9
:10257000C701B6012FEF30E040E050E00E948C3000
:102580009B01AC012C253D254E255F25C701B601D9
:102590000E94133304E0F594E794D794C7940A9506
:1025A000D1F7C62AD72AE82AF92AF594E794D794CE
:1025B000C79469807A80C624D724CFC8C0907E0192
:1025C000D0907F01E0908001F090810185309105ED
:1025D00009F4A4C50CF40FC580E190E09093580174
:1025E0008093570121E030E03093AE012093AD019C
:1025F00090935601809355013093A8012093A70131
:1026000090935401809353011092A2011092A10162
:102610002091A9013091AA01220F331F032E000C33
:10262000440B550BC701B6010E948C30D4FEFEC589
:102630004B018C249D24C701B60122E030E040E02C
:1026400050E00E948C30829EC001839E900D929E2D
:10265000900D112465E0F594E794D794C7946A959A
:10266000D1F7C82AD92A79C800917E0110917F013B
:1026700020918001309181018B30910509F45CC774
:102680000CF063C08930910509F4D8C60CF460C61B
:1026900080E490E090935801809357011092AE012E
:1026A0001092AD0180E190E0909356018093550126
:1026B0001092A8011092A7019093540180935301A6
:1026C0001092A2011092A10180919D0190919E0112
:1026D0006091A3017091A4014091A9015091AA01B8
:1026E000E091A301F091A4012801390104C075947F
:1026F0006794579447948A95D2F7C201680179018B
:1027000004C0CC0CDD1CEE1CFF1C6A95D2F78C2992
:102710009D294F5F5F4F052E000C660B770B8423BE
:1027200095233196B901A80104C075956795579511
:102730004795EA95D2F7042B152B809FA001819F26
:10274000500D909F500D1124B4C98D30910511F496
:102750000C94B71B0CF47AC744E450E05093580132
:102760004093570181E090E09093AE018093AD01DA
:1027700050935601409355019093A8018093A7016F
:1027800080E290E090935401809353011092A20153
:102790001092A1014091A3015091A4018091A9013F
:1027A0009091AA016BE0869FC00111246FEF70E049
:1027B0000E942333FB01E15FFE4F7FE7479FC0018B
:1027C00011246FEF70E00E942333608360909D01BD
:1027D00070909E0180911001B901A80104C0759507
:1027E0006795579547958A95D2F7809112016801B0
:1027F000790104C0F594E794D794C7948A95D2F7E9
:102800004C29E0911401F0E0E15FFE4F8081680106
:10281000790104C0F594E794D794C7948A95D2F7C8
:102820004C29E0910F01809113016801790104C0E6
:10283000F594E794D794C7948A95D2F780911501BF
:102840004801590104C0880C991CAA1CBB1C8A951C
:10285000D2F7C820E49FC00C1124C982E09117016F
:10286000F0E0E15FFE4F8081B901A80104C07595D9
:102870006795579547958A95D2F76801790187E062
:10288000F594E794D794C7948A95D1F7C02A4C2938
:10289000440FD901C801002E04C0B595A79597959E
:1028A00087950A94D2F75091190185235091180108
:1028B000859F400D1124842F9981892790E004C0C1
:1028C00035952795179507956A94D2F732C68631C4
:1028D000910511F40C94971E0CF023C182319105DF
:1028E00011F40C943A1D0CF080C08031910511F464
:1028F0000C94B91C419711F00C94340A80E190E0DB
:10290000909358018093570121E030E03093AE015D
:102910002093AD0190935601809355013093A80107
:102920002093A70190935401809353011092A20128
:102930001092A101C0907E01D0907F01E0908001B3
:10294000F09081018091A9019091AA016091A90163
:102950007091AA0140919D0150919E0100919D01AD
:1029600010919E012091A3013091A40136014701ED
:1029700004C095948794779467948A95D2F7C3019D
:102980004601570104C0B594A794979487946A951B
:10299000D2F7882999298C299D29489F4001499F70
:1029A000900C589F900C112485E08C9DB0018D9D5A
:1029B000700D1124D701C60104C0B595A795979550
:1029C00087950A95D2F7682B792B86229722032EBA
:1029D000000C440B550BC701B6010E948C306C25CE
:1029E0007D256829792977270CCDC0907E01D0906C
:1029F0007F01E0908001F09081018431910511F414
:102A00000C94231E14F40C94B11D88E090E0909374
:102A100058018093570181E090E09093AE0180933C
:102A2000AD0120E130E030935601209355012BE0B9
:102A300030E03093A8012093A70128E130E03093E3
:102A40005401209353019093A2018093A1016091BE
:102A5000A3017091A4012091A9013091AA01809154
:102A60009D0190919E0140919D0150919E014601D2
:102A7000570104C0B594A794979487946A95D2F7A8
:102A8000280D391D460157016BE0B594A794979422
:102A900087946A95D1F728252601370104C0440C94
:102AA000551C661C771C2A95D2F7820160E470E001
:102AB0000E9423333601470104C09594879477948C
:102AC00067948A95D2F7C3014601570104C0B594B3
:102AD000A794979487944A95D2F7880D991D9C01E5
:102AE000202B312BD701C60176E0B595A795979598
:102AF00087957A95D1F7820F931F44275527BA01FE
:102B00004C195D096E097F09E5E075956795579544
:102B10004795EA95D1F7C422D522C822D9220C9430
:102B2000AD0B8A31910511F40C9423200CF0A2C056
:102B3000C0907E01D0907F01E0908001F0908101F3
:102B40008831910511F40C94911F14F40C94041F16
:102B500088E190E090935801809357012BE030E09A
:102B60003093AE012093AD019093560180935501AF
:102B70002AE030E03093A8012093A70190935401FC
:102B8000809353018EE090E09093A2018093A10185
:102B90006090A9017090AA010091A3011091A40175
:102BA00040909D0150909E015A824982A701960152
:102BB00076E055954795379527957A95D1F72095E5
:102BC0003095409550952870332744275527C701E5
:102BD000B6010E9413334B015C01C701B60123E02B
:102BE00030E040E050E00E948C30CA01B901ECE0D6
:102BF0009595879577956795EA95D1F7A701960101
:102C000004C055954795379527956A94D2F72901C1
:102C10003A016227752584279725A50194010E9412
:102C20001333A701960104C055954795379527950D
:102C30000A95D2F746015701098004C0B594A794BC
:102C4000979487940A94D2F7282139214A215B214D
:102C50002370332744275527295F3F4F4F4F5F4F3E
:102C60000E948C30F4E0F594E794D794C794FA95D9
:102C7000D1F7F5C28C31910511F40C941F2114F495
:102C80000C94A4208436910511F00C94340A2BE0A6
:102C900030E0309358012093570181E090E0909309
:102CA000AE018093AD01309356012093550190936E
:102CB000A8018093A701309354012093530190936E
:102CC000A2018093A101C0907E01D0907F01E0908D
:102CD0008001F09081018091A9019091AA01A090BA
:102CE000A301B090A401A0919D01B0919E01260185
:102CF000370104C075946794579447948A95D2F726
:102D000028E932EC48E952EC68E972EC80E090E0A6
:102D1000042D0E943D33F22FB32F49835B8397012B
:102D2000860104C03595279517950795AA94D2F783
:102D300048010F2F08211B2F19210C9DF0010D9D1B
:102D4000F00D1C9DF00D1124A701960104C05595AE
:102D5000479537952795AA95D2F7C9018E239F23CA
:102D60000C94F40880917E0190917F01A0918001E4
:102D7000B09181010197A140B10564F080E090E03D
:102D8000AFEFBFEF80937E0190937F01A09380010E
:102D9000B093810189E090E09093580180935701AE
:102DA00021E030E03093AE012093AD0190935601C5
:102DB000809355013093A8012093A7012FE030E0C4
:102DC00030935401209353019093A2018093A10169
:102DD000C0907E01D0907F01E0908001F090810151
:102DE00026013701AAE07594679457944794AA95F1
:102DF000D1F7A0909D01B0909E0180909D01909090
:102E00009E010091A9011091AA014091A301509146
:102E1000A4015A834983C301B20123E030E040E0BA
:102E200050E00E948C306A0D7B1DA701960104C002
:102E300055954795379527956A95D2F7C701B601FD
:102E4000B3E0660F771F881F991FBA95D1F70E94CC
:102E50001333A701960104C05595479537952795DB
:102E60008A94D2F74801110FAA08BB0828213921FA
:102E70004A215B2109811A814801110FAA08BB0868
:102E8000282939294A295B2924213521462157211E
:102E90002D5F3F4F4F4F5F4F0E948C304901C7015C
:102EA000B60120E130E040E050E00E948C300C940C
:102EB000EC0CD701C60113E0B595A79597958795BA
:102EC0001A95D1F7D5FE07C0B2E0CC0CDD1CEE1C84
:102ED000FF1CBA95D1F7C82AD92A6BCB80E190E0C4
:102EE000909358018093570121E030E03093AE0178
:102EF0002093AD0190935601809355013093A80122
:102F00002093A70190935401809353011092A20142
:102F10001092A101C0907E01D0907F01E0908001CD
:102F2000F09081018091A3019091A401E0919D0115
:102F3000F0919E018090A9019090AA019A828982C5
:102F4000A7019601AAE05595479537952795AA952B
:102F5000D1F7092E000CAA0BBB0B282339234A23D7
:102F60005B23C701B6010E9413334B015C01E89457
:102F700087F89924AA24BB24B701A601098004C0BC
:102F800075956795579547950A94D2F7CF01FF0F2E
:102F9000AA0BBB0B84239523A623B7239C01AD0169
:102FA0002E5F3F4F4F4F5F4FC701B6010E94133353
:102FB000657F77278827992721E030E086169706D6
:102FC000A806B90614F030E020E0D701C6018095CC
:102FD0009095A095B095F2E0B595A79597958795B2
:102FE000FA95D1F7289FA001299F500D389F500DC9
:102FF00011240C94590D80E290E090935801809335
:1030000057011092AE011092AD019093560180933A
:1030100055011092A8011092A7019093540180933A
:1030200053011092A2011092A101D701C60180950F
:103030009095A095B0954C015D01E2E0B594A79400
:1030400097948794EA95D1F781149104A104B1046F
:1030500049F04C015D0173E0B594A794979487946F
:103060007A95D1F78091A3019091A401E0919D01FF
:10307000F0919E010091A9011091AA011A83098380
:10308000A70196016AE055954795379527956A956A
:10309000D1F7092E000CAA0BBB0B282339234A2396
:1030A0005B23C701B6010E9413332B013C01E89456
:1030B00047F8552466247724B701A601098004C087
:1030C00075956795579547950A94D2F7CF01FF0FED
:1030D000AA0BBB0B84239523A623B7239C01AD0128
:1030E0002E5F3F4F4F4F5F4FC701B6010E94133312
:1030F000657F77278827992721E030E04616570615
:103100006806790614F030E020E0289DC001299D72
:10311000900D389D900D11240C94F40880E290E0FD
:1031200090935801809357011092AE011092AD0117
:1031300090935601809355011092A8011092A70117
:1031400090935401809353011092A2011092A10117
:103150004601570180949094A094B094D501C40185
:1031600007E0B595A795979587950A95D1F7892B8F
:103170008A2B8B2B09F452C013E0B594A794979433
:1031800087941A95D1F78091A3019091A401E091C1
:103190009D01F0919E014090A9015090AA015A8290
:1031A0004982A7019601AAE055954795379527953D
:1031B000AA95D1F7092E000CAA0BBB0B28233923A3
:1031C0004A235B23C701B6010E9413332B013C0144
:1031D00005EF4022552466247724B701A601098013
:1031E00004C075956795579547950A94D2F7CF0116
:1031F000FF0FAA0BBB0B84239523A623B7239C01A7
:10320000AD012E5F3F4F4F4F5F4FC701B6010E9488
:1032100013336F777727882799276ECFB4E0B5945B
:10322000A79497948794BA95D1F7ADCF8091A301D5
:103230009091A4019695982F882797958795092EA8
:10324000000CAA0BBB0B8C219D21AE21BF21892B29
:103250008A2B8B2B21F0CC0CDD1CCC0CDD1CC22A64
:10326000D32A0C94AD0B8CE090E09093580180939E
:10327000570181E090E09093AE018093AD0120E191
:1032800030E030935601209355019093A80180932C
:10329000A70130935401209353019093A20180938E
:1032A000A10160917E0170917F01809180019091D8
:1032B0008101E091A901F091AA012091A30130912F
:1032C000A40140919D0150919E01E69FD001E79F8E
:1032D000B00DF69FB00D11242B013C0104C0759474
:1032E0006794579447942A95D2F78201A421B12379
:1032F000469F9001479F300D569F300D11246B0162
:103300007C0117E0F594E794D794C7941A95D1F708
:103310002C213D21A22BB32BBA83A9838B01000F53
:10332000111F060F171F20E034E040E050E00E941C
:103330008C302023312369807A80622A732A8301AA
:103340000150110910939201009391010C94340AD9
:103350008EE190E0909358018093570181E090E0D6
:103360009093AE018093AD014FE050E05093560131
:10337000409355019093A8018093A7015093540165
:10338000409353019093A2018093A101C090A301A7
:10339000D090A40180919D0190919E016091A9011E
:1033A0007091AA01E090A301F090A40140919D01C9
:1033B00050919E01E0919D01F0919E014090A301EA
:1033C0005090A401A090A901B090AA01660F771FA8
:1033D000660F771F0E942333C09EC001C19E900DCF
:1033E000D09E900D112468237923E09E6001E19E18
:1033F000D00CF09ED00C1124D901C80104C0B595A1
:10340000A795979587954A95D2F78C219D21682B92
:10341000792BE40DF51DE09FC001E19F900DF09F19
:10342000900D112404C03595279517950795AA94FA
:10343000D2F708231923062B172B82CF40E150E047
:10344000509358014093570181E090E09093AE0172
:103450008093AD0150935601409355019093A8017C
:103460008093A70180E290E09093540180935301F0
:103470001092A2011092A1016090A9017090AA017E
:10348000C090A301D090A4014091A3015091A40148
:103490008090A9019090AA01E0919D01F0919E0178
:1034A000D901C8016AE0B595A795979587956A9562
:1034B000D1F70D2C000CEE08FF088C219D21AE21C8
:1034C000BF2161E086276301770CEE08FF08C80E74
:1034D000D91EEA1EFB1ED901C8017EE0B595A7954D
:1034E000979587957A95D1F7092C000CAA08BB0807
:1034F00088219921AA21BB21052E000C660B770B90
:10350000840F951FA61FB71F809FA001819F500D9C
:10351000909F500D11244C9DC0014D9D900D5C9DC0
:10352000900D112404C03595279517950795EA95B8
:10353000D2F7082B192B06CF80E290E09093580128
:103540008093570181E090E09093AE018093AD01AC
:1035500048E150E050935601409355019093A801E3
:103560008093A70140E150E05093540140935301F0
:103570009093A2018093A1016090A9017090AA018B
:10358000A091A301B091A401E0919D01F0919E0151
:10359000B901A80185E075956795579547958A9576
:1035A000D1F76801790192E0CC0CDD1CEE1CFF1C08
:1035B0009A95D1F74C295D29609EC001619E900DBE
:1035C000709E900D112484239523B901A80168945D
:1035D00013F875956795579547951694D1F7680137
:1035E000790163E0CC0CDD1CEE1CFF1C6A95D1F761
:1035F0004C295D29A09FB001A19F700DB09F700D57
:10360000112446235723482B592BD901C80173E0B5
:10361000B595A795979587957A95D1F76801790122
:10362000A4E0CC0CDD1CEE1CFF1CAA95D1F78C2964
:103630009D29E09FB001E19F700DF09F700D112456
:1036400086239723842B952B0C94F40880E190E03B
:10365000909358018093570188E090E09093AE01D9
:103660008093AD018EE090E09093560180935501D8
:1036700087E090E09093A8018093A7018CE090E010
:10368000909354018093530186E090E09093A201BF
:103690008093A101E090A301F090A4018091A90181
:1036A0009091AA0180909D0190909E019A828982BA
:1036B000C090A301D090A401E091A901F091AA01CA
:1036C000A0919D01B0919E01B901A80104C075951A
:1036D0006795579547958A95D2F74801590164E057
:1036E000880C991CAA1CBB1C6A95D1F7482959293A
:1036F000C8018E199F0984239523B901A80104C02C
:103700007595679557954795CA94D2F768017901E1
:1037100073E0CC0CDD1CEE1CFF1C7A95D1F74C2914
:103720005D29B801A980BA806A197B09462357230D
:10373000482759276801790104C0F594E794D79484
:10374000C794AA95D2F7C60168017901A2E0CC0C12
:10375000DD1CEE1CFF1CAA95D1F78C299D290E1BA0
:103760001F0B80239123842795270C94F40880E174
:1037700090E090935801809357011092AE011092FF
:10378000AD0148E050E0509356014093550110922E
:10379000A8011092A70190935401809353011092B5
:1037A000A2011092A1014091A9015091AA0180911A
:1037B000A9019091AA01E090A301F090A401FA82DE
:1037C000E982A090A301B090A40160919D01709145
:1037D0009E0102966801790104C0F594E794D7949C
:1037E000C7948A95D2F789819A81809FF001819F41
:1037F000F00D909FF00D1124EC29FD29D901C8018D
:1038000004C0B595A795979587954A95D2F745E059
:10381000442E409EA001419E500D1124842B952BD7
:103820008E239F236801790104C0F594E794D7940F
:10383000C794AA94D2F7609FA001619F500D709F1A
:10384000500D11244C295D29842395230C94F408F0
:1038500024E430E0309358012093570181E090E058
:103860009093AE018093AD013093560120935501A2
:103870009093A8018093A70180E290E09093540177
:10388000809353011092A2011092A1012091A301F3
:103890003091A4018091A9019091AA01A7E08A9F8B
:1038A000C00111246FEF70E00E942333FB01E65E3C
:1038B000FE4FBFE22B9FC00111246FEF70E00E940A
:1038C0002333608340917E0150917F01609180019C
:1038D00070918101E0919D01F0919E0180911E0106
:1038E0002A013B0104C075946794579447948A95C4
:1038F000D2F7C201209120013A014B0104C09594F6
:103900008794779467942A95D2F7862100911F01B6
:10391000802320911C014A015B0104C0B594A79447
:10392000979487942A95D2F78401C0901D010C21A9
:10393000802720911A015A016B0104C0D594C794C5
:10394000B794A7942A95D2F78501C0901B010C214A
:10395000802B849F802D1124282F30E004C0759582
:10396000679557954795EA95D2F7242B352B0C94FC
:10397000DD0F24E430E0309358012093570181E0BB
:1039800090E09093AE018093AD0130935601209367
:1039900055019093A8018093A70180E290E0909355
:1039A0005401809353011092A2011092A101209121
:1039B000A3013091A4018091A9019091AA0106E090
:1039C000809FC00111246FEF70E00E942333FB0140
:1039D000EF5DFE4F13E1219FC00111246FEF70E0F6
:1039E0000E9423336083C0907E01D0907F01E090DD
:1039F0008001F090810140919D0150919E01809144
:103A000021012601370104C07594679457944794A7
:103A10008A95D2F7C201209122012C9D202D1124DC
:103A2000822B909123014601570104C0B594A794BD
:103A3000979487949A95D2F7209124012C9D202D5C
:103A4000112428298223909125014601570104C0A1
:103A5000B594A794979487949A95D2F720912601CC
:103A60002C9D902D11249829892390E0841B950B7F
:103A70000C94F40820E230E0309358012093570171
:103A800081E090E09093AE018093AD0130935601B8
:103A9000209355019093A8018093A701309354017E
:103AA000209353019093A2018093A101C0907E01C5
:103AB000D0907F01E0908001F09081012091A901D8
:103AC0003091AA018091A3019091A401E0919D0100
:103AD000F0919E012601370104C0759467945794B4
:103AE00047942A95D2F7A3019201257033274427E2
:103AF000552701E020272D5F3F4F4F4F5F4F260195
:103B0000370104C075946794579447948A95D2F707
:103B1000C301B20163707727882799276B5F7F4FB6
:103B20008F4F9F4F0E9413339B01AC01C701B60119
:103B30000E9413339701860104C035952795179588
:103B40000795EA95D2F7980123703327AB01BC01A2
:103B500004C075956795579547952A95D2F70C94AB
:103B6000590D28E030E0309358012093570181E04F
:103B700090E09093AE018093AD0140E150E050930E
:103B80005601409355019093A8018093A70130936B
:103B90005401209353019093A2018093A10120919D
:103BA000A9013091AA016091A3017091A4014091F3
:103BB0009D0150919E012C9DF0012D9DF00D3C9D8D
:103BC000F00D1124D701C60114E0B595A79597957E
:103BD00087951A95D1F78E239F236C9D90016D9D3B
:103BE000300D7C9D300D11244601570107E0B5943E
:103BF000A794979487940A95D1F728213921822B8D
:103C0000932B4C9D90014D9D300D5C9D300D1124EA
:103C10002C213D21822B932B2091A3013091A401D3
:103C200004C0F594E794D794C7942A95D2F72DE071
:103C300030E0CD28CE28CF2811F428E030E0821BD8
:103C4000930B0C94F40887E290E0909358018093D2
:103C5000570180E290E09093AE018093AD012FE296
:103C600030E030935601209355019093A801809342
:103C7000A7012AE330E0309354012093530190933D
:103C8000A2018093A1010091A9011091AA01409184
:103C9000A3015091A401E0919D01F0919E013BE0B0
:103CA000349FC001359F900D11246BE170E00E949C
:103CB00023334601570104C0B594A7949794879481
:103CC0006A95D2F721E0821A9108A108B108309FC5
:103CD000C001319F900D11246BE170E00E942333ED
:103CE000A701960104C055954795379527956A9584
:103CF000D2F7282139214A215B2167E02627ABE052
:103D0000B0E00E94AB309B01AC01DF010E94B630F5
:103D10002BE130E040E050E00E948C302C9DC0014F
:103D20002D9D900D3C9D900D11240C94F40888E37A
:103D300090E0909358018093570188E290E090932F
:103D4000AE018093AD0189E090E09093560180939D
:103D5000550181E090E09093A8018093A70180E154
:103D600090E090935401809353011092A20110921D
:103D7000A10180917E0190917F01A0918001B0917D
:103D80008101892E9A2EAB2EBB24A7FCBA94609198
:103D9000A9017091AA01C0909D01D0909E01DA8284
:103DA000C982E091A301F091A4018C019D0159E029
:103DB00035952795179507955A95D1F7082919290B
:103DC000089F7001099FF00C189FF00C11246821C6
:103DD0007921E622F722AC01BD01098004C0759566
:103DE0006795579547950A94D2F74823592304C0FD
:103DF000B595A79597958795EA95D2F7842B952B3E
:103E00008E259F250C94F4088DE090E09093580146
:103E10008093570187E090E09093AE018093AD01CD
:103E20008FE090E0909356018093550189E090E0F7
:103E30009093A8018093A7018BE090E090935401A8
:103E40008093530183E090E09093A2018093A101BD
:103E50004091A9015091AA018091A9019091AA01D4
:103E600060919D0170919E019701860104C0359576
:103E70002795179507958A95D2F798012D7F3327B7
:103E8000D701C60104C0B595A795979587956A9502
:103E9000D2F78F7D9927289FB001299F700D389FF9
:103EA000700D1124D701C60107E0B595A795979528
:103EB00087950A95D1F78C7C9927689F9001699F17
:103EC000300D789F300D1124D701C60104C0B5957F
:103ED000A795979587954A95D2F78170992701966E
:103EE000B701A60104C075956795579547958A95C2
:103EF000D2F7CA01289FA001299F500D389F500D6D
:103F00001124D701C601880F991FAA1FBB1F32E0D9
:103F1000CC0CDD1CEE1CFF1C3A95D1F78C299D2999
:103F200093CC27E030E0309358012093570121E0F3
:103F300030E03093AE012093AD0149E050E0509362
:103F40005601409355013093A8012093A701909307
:103F50005401809353018BE090E09093A2018093F1
:103F6000A1014090A3015090A4015A82498220915E
:103F70009D0130919E01E0919D01F0919E01662787
:103F80007727CB016C197D098E099F0936014701FE
:103F900004C095948794779467942A95D2F7A401E6
:103FA00093014F01FF0FAA08BB08282939294A2984
:103FB0005B290E948C309B01AC01C701B6010E94B5
:103FC00013334B015C01AEE0B594A79497948794AA
:103FD000AA95D1F7D201A70196010E94B6302B0114
:103FE0003C01C701B60120E030E140E050E00E9412
:103FF0008C30CA01B90124E030E040E050E00E947A
:104000008C307301620104C0F594E794D794C7948F
:104010006A95D2F7A6015F71482159218091A901C3
:104020009091AA01BA01B6E075956795BA95E1F746
:10403000682B792BCA010E942333660F771F660F06
:10404000771F0C94011289E090E0909358018093BF
:10405000570181E090E09093AE018093AD0125E09F
:1040600030E030935601209355019093A80180933E
:10407000A70180E190E0909354018093530188E080
:1040800090E09093A2018093A101C0907E01D09016
:104090007F01E0908001F09081014090A901509053
:1040A000AA015A82498200919D0110919E01E091DE
:1040B000A301F091A4014601570143E0880C991C2B
:1040C000AA1CBB1C4A95D1F7A70196016BE0559538
:1040D0004795379527956A95D1F7C701B6010E9494
:1040E00013332B013C01C701B60104C09595879598
:1040F000779567950A95D2F74BE04E9F90014F9FB9
:10410000300D1124032E000C440B550B0E948C30F3
:104110009B01AC012D5F3F4F4F4F5F4FC301B20179
:104120000E948C309B01AC01C501B4010E948C300F
:10413000098004C0F594E794D794C7940A94D2F701
:104140002C213D210C94DD0F85E090E090935801E7
:104150008093570181E090E09093AE018093AD0190
:1041600029E030E030935601209355019093A80147
:104170008093A70180E190E09093540180935301D4
:1041800088E090E09093A2018093A10180917E014C
:1041900090917F01A0918001B091810120919D01BA
:1041A00030919E0140919D0150919E016090A90126
:1041B0007090AA017A826982E091A301F091A40132
:1041C0004C015D0104C0B594A794979487944A95D7
:1041D000D2F7B501A40141505109610971095C018F
:1041E0006D0104C0D594C794B794A7942A95D2F7CB
:1041F00085014A255127849F9001859F300D949F0A
:10420000300D1124AC01BD01098004C0759567957E
:10421000579547950A94D2F724233523AC01BD0165
:1042200004C07595679557954795EA95D2F7242769
:10423000352780589F4F820F931F0C94F40885E018
:1042400090E0909358018093570181E090E0909323
:10425000AE018093AD0186E190E09093560180938A
:1042600055018BE090E09093A8018093A70120E195
:1042700030E030935401209353019093A201809336
:10428000A101C0907E01D0907F01E0908001F0906C
:1042900081016091A9017091AA01A0919D01B09145
:1042A0009E014091A9015091AA012091A301309152
:1042B000A401E091A901F091AA014601570104C0AF
:1042C000B594A79497948794AA95D2F74821592139
:1042D000420F531F9701860104C035952795179506
:1042E00007954A95D2F701701127801B910BA70102
:1042F000960104C055954795379527958A95D2F72D
:10430000CB01770FAA0BBB0B280F391F4A1F5B1F6E
:10431000A5E0B0E00E94AB30D701C60104C0B5955E
:10432000A795979587956A95D2F78E239F23049634
:1043300004C0F594E794D794C7948A95D2F70C9467
:10434000AD0BE0914301F09144013197E431F10567
:1043500010F00C94340AE954FE4DC0907E01D090C8
:104360007F01E0908001F09081010C943733CB21E4
:104370003E2296220D23B2234224C8246F25CC2549
:104380002E26C5264727B3275A28F4285D29C22997
:10439000132A862A4A2B88E190E090935801809353
:1043A000570188E090E09093AE018093AD0120E149
:1043B00030E0309356012093550181E090E09093D6
:1043C000A8018093A7013093540120935301909347
:1043D000A2018093A1010091A9011091AA011A8361
:1043E0000983E091A901F091AA012091A3013091E4
:1043F000A40140919D0150919E0180919D01909159
:104400009E012601370104C0759467945794479420
:104410004A95D2F7A201092E000CAA0BBB0B8421EE
:104420009523C89EA001C99E500DD89E500D112401
:10443000D701C601098004C0B595A79597958795C2
:104440000A94D2F7840F951FB701A6010C2C04C063
:1044500075956795579547950A94D2F72423352388
:10446000820F931FB701A60104C0759567955795F4
:104470004795EA95D2F74C215D21F8CA8CE090E08F
:10448000909358018093570181E090E09093AE01A2
:104490008093AD0120E130E0309356012093550127
:1044A0009093A8018093A701309354012093530166
:1044B0009093A2018093A1018091A9019091AA01FA
:1044C0004091A3015091A401E091A901F091AA01AA
:1044D00020919D0130919E0101964823BB27F7FC56
:1044E000BA95AF2D9E2D8D2D8423B701A60104C052
:1044F00075956795579547958A95D2F7D701C60167
:1045000004C0B595A79597958795EA95D2F78C2124
:104510009D2104C0F594E794D794C7942A95D2F7C7
:10452000C82AD92A4C255D250C94590D8CE090E0C1
:10453000909358018093570181E090E09093AE01F1
:104540008093AD0120E130E0309356012093550176
:104550009093A8018093A7013093540120935301B5
:104560009093A2018093A10101E0C016D104E0065E
:10457000F10464F080E090E0AFEFBFEF80937E0144
:1045800090937F01A0938001B093810180917E017F
:1045900090917F01A0918001B0918101E091A901EA
:1045A000F091AA0140919D0150919E01C090A301FC
:1045B000D090A4012091A9013091AA012C013D01C4
:1045C00004C075946794579447944A95D2F7A20112
:1045D0000D2C000CEE08FF084C295D296C017D01B3
:1045E0000A2E04C0F594E794D794C7940A94D2F79E
:1045F0004C295D29319604C0B595A7959795879567
:10460000EA95D2F7489FF001499FF00D589FF00DB1
:1046100011242E0F3F1F0C94DD0F88E090E0909343
:1046200058018093570181E090E09093AE01809310
:10463000AD012AE030E0309356012093550190936C
:10464000A8018093A70130935401209353019093C4
:10465000A2018093A1016090A3017090A4017A82CD
:104660006982E091A301F091A40160919D01709194
:104670009E018091A9019091AA012091A9013091F8
:10468000AA016090A3017090A40180909D01909078
:104690009E01A0909D01B0909E010091A9011091F2
:1046A000AA011C830B831601270104C0559447946B
:1046B000379427948A95D2F72C203D20D701C60144
:1046C00004C0880F991FAA1FBB1F2A95D2F704C0E8
:1046D000B595A795979587956A94D2F782299329DE
:1046E0009701860104C035952795179507958A94FB
:1046F000D2F7A601402351239701860104C0000F81
:10470000111F221F331FAA94D2F70B8004C03595C6
:104710002795179507950A94D2F79A01202B312BEC
:1047200028233923D701C601098004C0B595A79570
:10473000979587950A94D2F78C219D2104C0CC0CC3
:10474000DD1CEE1CFF1CEA95D2F704C0F594E7943B
:10475000D794C7946A95D2F7C82AD92A2C253D2523
:104760000C94DD0F2EE130E0309358012093570177
:1047700081E090E09093AE018093AD0130935601BB
:10478000209355019093A8018093A7013093540181
:10479000209353019093A2018093A101A0919D01C8
:1047A000B0919E0140919D0150919E018091A9017F
:1047B0009091AA018090A9019090AA016091A30113
:1047C0007091A4010091A3011091A4012601370169
:1047D00004C075946794579447948A95D2F74C20F7
:1047E0005D20092C000CAA08BB088C0C9D1CAE1C7B
:1047F000BF1C83E0880C991CAA1CBB1C8A95D1F7AE
:10480000842895282601370104C07594679457942D
:1048100047946A95D2F7B2016C217D21012E000CDC
:10482000220B330B0C0D1D1D2E1D3F1D92E0000FA2
:10483000111F221F331F9A95D1F7062B172BC40186
:10484000802791279701860104C0359527951795F4
:104850000795AA95D2F70C211D21052E000C660B99
:10486000770BC40ED51EE61EF71E24E0CC0CDD1C13
:10487000EE1CFF1C2A95D1F7C02AD12A8C299D292C
:104880000C94F4088EE190E09093580180935701C6
:1048900081E090E09093AE018093AD012FE030E095
:1048A00030935601209355019093A8018093A7015E
:1048B00030935401209353019093A2018093A1015E
:1048C00060909D0170909E017A8269828091A3011F
:1048D0009091A401E091A901F091AA01A70196018C
:1048E00055954795379527954601570104C0B594CE
:1048F000A794979487948A95D2F7C501B4010E9432
:1049000013339B01AC01C701B601F7E0959587957C
:1049100077956795FA95D1F70E9413339B01AC0107
:10492000A0E3B0E00E94AB304B015C01A70196010F
:10493000098004C055954795379527950A94D2F775
:10494000C701B6010E941333A6E0660F771F881FC8
:10495000991FAA95D1F7680D791D8A1D9B1D8701A6
:10496000332717FD3095232F04C0F594E794D7948F
:10497000C794EA95D2F70C291D290F5F1F4F04C079
:1049800095958795779567950A95D2F70C940112BE
:1049900088E190E0909358018093570181E090E086
:1049A0009093AE018093AD012CE030E0309356013E
:1049B000209355019093A8018093A70120E130E056
:1049C00030935401209353019093A2018093A1014D
:1049D0008091A3019091A401B701A60104C075952F
:1049E0006795579547958A95D2F78091A301909145
:1049F000A4019701860104C0359527951795079561
:104A00008A95D2F7D901C801892B8A2B8B2B09F4FF
:104A100059C08DE090E0A0E0B0E0E0919D01F09100
:104A20009E0184239523A623B7239C01AD01215029
:104A3000310941095109C701B6010E94133304C06D
:104A40009595879577956795EA95D2F796012571A3
:104A50003327622773278091A9019091AA01A701AA
:104A6000960104C055954795379527958A95D2F7B5
:104A7000C9018C259D258C0D9D1D46015701880C73
:104A8000991CAA1CBB1C0091A9011091AA01012E1E
:104A9000000C220B330B0C211D212E213F21012B59
:104AA000022B032BA1F035E0F594E794D794C7943B
:104AB0003A95D1F7C820D9208C259D25682B792BD4
:104AC0000C94011288E090E0A0E0B0E0A6CF23E0D3
:104AD000F594E794D794C7942A95D1F7EBCF4091FA
:104AE000A9015091AA01A0919D01B0919E01209130
:104AF000A9013091AA0180919D0190919E01609140
:104B0000A3017091A401E091A901F091AA014601CD
:104B1000570104C0B594A794979487944A95D2F707
:104B2000A4014C215D214601570104C0B594A7940E
:104B300097948794AA95D2F728293929240F351FED
:104B4000A601421B530B9A0101962601370104C0AE
:104B500075946794579447948A95D2F7C201842339
:104B600093234601570104C0B594A7949794879462
:104B7000EA95D2F7C89C9001C99C300DD89C300DA5
:104B8000112404C0F594E794D794C7946A95D2F79A
:104B9000C222D3220C94311380E190E0909358010B
:104BA0008093570124E030E03093AE012093AD01B3
:104BB000909356018093550123E030E03093A80193
:104BC0002093A701909354018093530181E090E0DA
:104BD0009093A2018093A101E091A901F091AA0113
:104BE0002091A3013091A4018091A9019091AA0183
:104BF0006091A3017091A40140919D0150919E018B
:104C0000092E000CAA0BBB0B36014701681A790A62
:104C10008A0A9B0AC3014601570104C0B594A794B0
:104C2000979487946A95D2F788299929489FB0016B
:104C3000499F700D589F700D1124D701C60104C003
:104C4000B595A79597958795EA95D2F7C21AD30A95
:104C5000C82AD92AC622D7220C94AD0B84E690E04C
:104C6000909358018093570182E090E09093AE01B9
:104C70008093AD0122E330E030935601209355013B
:104C80009093A8018093A7012AE030E0309354016B
:104C9000209353019093A2018093A101A090A301BE
:104CA000B090A4014091A9015091AA018091A30163
:104CB0009091A40120919D0130919E018090A301CB
:104CC0009090A4019A828982A0919D01B0919E0149
:104CD0000091A9011091AA0180909D0190909E01E0
:104CE0002601370104C075946794579447944A95F8
:104CF000D2F7A2012601370104C075946794579436
:104D000047948A95D2F7FA01E429F529C6018A1950
:104D10009B09E823F923B701A60104C0759567959F
:104D2000579547958A94D2F74601570183E0B59489
:104D3000A794979487948A95D1F748295929C60151
:104D4000801B910B48235923E427F527AA0FBB1F8B
:104D5000B701A60104C0440F551F661F771FAA950F
:104D6000D2F746015701098004C0B594A7949794DF
:104D700087940A94D2F748295929C21AD30A4C2198
:104D80005D214E275F270C94590D20E130E03093D0
:104D900058012093570181E090E09093AE018093F9
:104DA000AD0130935601209355019093A801809353
:104DB000A70130935401209353019093A201809353
:104DC000A1016090A3017090A4018091A90190912C
:104DD000AA01A0919D01B0919E010091A3011091A3
:104DE000A4012091A9013091AA01E0919D01F091C7
:104DF0009E01B701A60104C0759567955795479523
:104E00008A95D2F746015701F4E0880C991CAA1C38
:104E1000BB1CFA95D1F748295929C601861997096B
:104E200084239523B701A60104C07595679557950E
:104E300047950A95D2F74601570113E0880C991C53
:104E4000AA1CBB1C1A95D1F748295929B6016A1B1F
:104E50007B0B4623572348275927D701C60104C097
:104E6000B595A79597958795EA95D2F7460157018D
:104E700002E0880C991CAA1CBB1C0A95D1F7882952
:104E80009929C21AD30A8C219D210C94B31B24E4C6
:104E900030E0309358012093570181E090E09093E7
:104EA000AE018093AD01309356012093550190934C
:104EB000A8018093A70180E290E090935401809331
:104EC00053011092A2011092A1012091A3013091EF
:104ED000A4018091A9019091AA01992765E570E04C
:104EE0000E942333FB01E95DFE4F07E1209FC001D3
:104EF00011246FEF70E00E942333608320919D01A5
:104F000030919E0180912801B701A60104C07595DA
:104F10006795579547958A95D2F7CA01309129012F
:104F2000B701A60104C075956795579547953A95C1
:104F3000D2F7842B30912701B701A60104C07595E3
:104F40006795579547953A95D2F74C21849F802DC8
:104F5000112490E004C0F594E794D794C7942A955F
:104F6000D2F70C94311324E430E0309358012093AD
:104F7000570181E090E09093AE018093AD013093B2
:104F80005601209355019093A8018093A70120E139
:104F900030E030935401209353019093A201809309
:104FA000A1012091A3013091A4018091A9019091C8
:104FB000AA0157E0859FC00111246FEF70E00E94A5
:104FC0002333FB01E65DFE4F67E2269FC0011124FB
:104FD0006FEF70E00E9423336083E0919D01F091B8
:104FE0009E0180912E01A701960104C05595479519
:104FF000379527958A95D2F7A0912F01B0E00E94AE
:10500000AB304B015C010C2C04C0B594A794979471
:1050100087940A94D2F7A0913001B0E0A65DBE4F0C
:105020002C91D701C60173E0B595A7959795879503
:105030007A95D1F7822B882A80912B01A7019601BE
:1050400004C055954795379527958A95D2F7809155
:105050002C012601370104C0759467945794479436
:105060008A95D2F7D301C2012429392B46295B2B1B
:10507000A0912A01B0E00E94AB30D701C60104C064
:10508000B595A795979587956A95D2F788218C9DB8
:10509000802C1124912CC094D094E094F09404C0FE
:1050A000CC0CDD1CEE1CFF1CEA95D2F7C828D928D1
:1050B0000C94AD0B24E430E0309358012093570159
:1050C00081E090E09093AE018093AD013093560162
:1050D000209355019093A8018093A70180E290E06E
:1050E00090935401809353011092A2011092A10158
:1050F0002091A3013091A4018091A9019091AA016E
:10510000992763E0880F991F6A95E1F76FEF70E0C8
:105110000E942333FB01EF5CFE4F0FE1209FC00193
:1051200011246FEF70E00E942333608300919D0192
:1051300010919E0120913701422E512C8091350112
:105140003601470104C095948794779467948A95B3
:10515000D2F7C401B301209136014601570104C0C2
:10516000B594A794979487942A95D2F7680D791DE2
:105170008A1D9B1D209134014601570104C0B5943E
:10518000A794979487942A95D2F7682579258A253C
:105190009B256F5F7F4F8F4F9F4F2091380130E0ED
:1051A00050E040E00E948C3002C0440C551C6A95CF
:1051B000E2F75A824982C49C702C112490913101EB
:1051C000E0913301F0E0EF5CFE4F80819C9D800D0B
:1051D00011247826872C912C04C0F594E794D79459
:1051E000C7940A95D2F762CF20E130E0309358019E
:1051F0002093570181E090E09093AE018093AD0140
:1052000030935601209355019093A8018093A701F4
:1052100080E290E090935401809353011092A20198
:105220001092A1012091A3013091A4018091A901C4
:105230009091AA01992765E570E00E942333FB0154
:10524000E75CFE4F07E1209FC00111246FEF70E083
:105250000E942333608320919D0130919E018091B3
:105260003901B701A60104C0759567955795479513
:105270008A95D2F7CA0140913A0184232601370169
:1052800004C075946794579447948A95D2F7C201E5
:1052900040913B013601470104C09594879477946F
:1052A00067944A95D2F786218C9D802D1124C82EB3
:1052B000D12CC21AD30A0C94AD0B80E190E09093EC
:1052C00058018093570121E030E03093AE012093E4
:1052D000AD0190935601809355013093A80120931E
:1052E000A70190935401809353011092A201109250
:1052F000A1012091A3013091A4018091A901909175
:10530000AA01992763E370E00E942333FB01E45C68
:10531000FE4FC901992763E070E00E942333608348
:10532000E0919D01F0919E01A0913C01B0E0A701A8
:1053300096010E94AB3020913D014B015C0104C0FD
:10534000B594A794979487942A95D2F7A0913E019B
:10535000B0E096010E94AB3020913F0104C09595CA
:105360008795779567952A95D2F7862A809140018F
:10537000889D802C11248E9EC0018F9E900D11243B
:105380000C94F40888E090E09093580180935701C2
:105390001092AE011092AD01909356018093550189
:1053A0001092A8011092A701909354018093530189
:1053B0001092A2011092A101C11400E4D006E104F0
:1053C000F1040CF036C12091A9013091AA0140915D
:1053D000A3015091A401D701C601880F991FAA1FEC
:1053E000BB1F04C0B595A795979587954A95D2F7A9
:1053F0002C9DA0012D9D500D3C9D500D112484230A
:1054000095239093920180939101C114D10441E0BE
:10541000E406F10444F010927E0110927F01109294
:1054200080011092810180E190E090935801809377
:10543000570121E030E03093AE012093AD012FE31E
:1054400030E0309356012093550125E130E0309350
:10545000A8012093A70190935401809353011092C7
:10546000A2011092A101C0907E01D0907F01E09036
:105470008001F0908101D701C60133E0B595A79571
:10548000979587953A95D1F7892B8A2B8B2B09F421
:10549000FCC0A091A301B091A40100919D011091C5
:1054A0009E01E0919D01F0919E014090A9015090D4
:1054B000AA015A824982A70196010E94B6304B0187
:1054C0005C0104C0B594A794979487940A95D2F789
:1054D0009F01FF0F440B550BC701B6010E948C3092
:1054E00068257925D701C601098004C0B595A7951F
:1054F000979587950A94D2F78C259D258C0D9D1D37
:10550000682B792B709392016093910180E190E078
:10551000909358018093570121E030E03093AE0121
:105520002093AD0190935601809355013093A801CB
:105530002093A70190935401809353011092A201EC
:105540001092A101C0907E01D0907F01E090800177
:10555000F0908101E091A901F091AA014091A3018D
:105560005091A4018091A9019091AA016090A3019A
:105570007090A4017A82698260919D0170919E0170
:105580002091A9013091AA010091A3011091A401D9
:105590004601570104C0B594A794979487948A95BF
:1055A000D2F7C40146015701098004C0B594A794FD
:1055B000979487940A94D2F788219921460157013C
:1055C00004C0880C991CAA1CBB1C6A95D2F7889D44
:1055D000B001899D700D989D700D1124620F731F8D
:1055E0007A836983E49F9001E59F300DF49F300D2D
:1055F0001124032E000C440B550BC701B6010E9469
:105600008C3049805A80422253229801110F440B5A
:10561000550BC701B6010E948C3004C0F594E79485
:10562000D794C7942A95D2F7B2016C257D250C94A6
:105630000112C11410E8D106E104F1044CF42091E8
:10564000A9013091AA0140919D0150919E01C3CEC4
:10565000C11420ECD206E104F1044CF42091A30122
:105660003091A4014091A9015091AA01B4CE90E0DB
:1056700080E0C114D10431E0E306F1040CF0C1CEA6
:105680002091A3013091A401DECFA091A901B09196
:10569000AA0103CF8FE090E09093580180935701C7
:1056A0001092AE011092AD018BE090E09093560104
:1056B000809355011092A8011092A70189E090E013
:1056C00090935401809353011092A2011092A10172
:1056D000D701C60129E0B595A795979587952A9595
:1056E000D1F7892B8A2B8B2B09F455C06090A90127
:1056F0007090AA017A8269828091A3019091A4019D
:10570000E0919D01F0919E01A090A301B090A401B1
:105710000091A9011091AA01A701960104C0559515
:105720004795379527958A95D2F7C701B6010E940C
:105730001333A701960104C05595479537952795D2
:10574000EA95D2F70E948C30A701960104C05595C6
:10575000479537952795AA94D2F749015A016819B8
:1057600079098A099B0949805A804201550CAA0887
:10577000BB088622972204C0F594E794D794C79477
:105780000A95D2F78C9C90018D9C300D9C9C300D1D
:1057900011240C94DD0F8090A3019090A4019A82B3
:1057A0008982AACF1F93CF93DF93EC01162FE88154
:1057B000F9810280F381E02D42E050E00995198BD8
:1057C0001886E881F9810190F081E02DCE010995DC
:1057D000882319F08885836088870E94C6026A83BF
:1057E0007B838C839D83DF91CF911F9108950F93CD
:1057F0001F93CF93DF93EC01162F198218821B821F
:105800001A821D821C821F821E82198618861B86A0
:105810001A861D861C861F861E86198A188A1B8A70
:105820001A8A1D8A1C8A1F8A1E8A82E190E00E94C1
:105830006E33FC0112821382148215828AE090E09A
:1058400097838683108685E791E091838083118A10
:10585000FB8FEA8F1C8E1D8E84E08E8F1F8E18A208
:1058600019A21AA21BA21CA21DA21EA21FA218A648
:1058700019A61AA61CA61BA61DA601E00EA78AEF54
:1058800090E098AB8FA78EEE92E09AAB89AB0BAB12
:105890001CAA1EAA1DAA0E94C6026FAB78AF89AFD0
:1058A0009AAF80E197E2A0E0B0E08BAF9CAFADAFE4
:1058B000BEAF1FAEFE01E05CFF4F1082319610823A
:1058C00031961082319611821082329610821182A6
:1058D00012821382349611821082329611821082C3
:1058E000329600830C8F62E0812F0E94240285E5AE
:1058F00093E50197F1F7612F70E08A8D9B8DDF9121
:10590000CF911F910F910C94D22BCF93DF931092D4
:10591000B2011092B10188EE93E0A0E0B0E0809374
:10592000B3019093B401A093B501B093B60183E69F
:1059300091E09093B0018093AF0185EC90E090935B
:10594000BC018093BB0184EC90E09093BE018093F6
:10595000BD0180EC90E09093C0018093BF0181EC89
:1059600090E09093C2018093C10182EC90E090930B
:10597000C4018093C30186EC90E09093C6018093AC
:10598000C5011092C8011092C9011092CA0110926B
:10599000CB011092ED021092EC021092EF021092E5
:1059A000EE021092F1021092F0021092F3021092A5
:1059B000F2021092F5021092F4021092F702109285
:1059C000F6021092F9021092F8021092FB02109265
:1059D000FA021092FD021092FC021092FF02109245
:1059E000FE02109201031092000310920303109222
:1059F00002038CE090E00E946E33EC0162E085E0EF
:105A00000E94240262E086E00E942402E1EFF0E0BE
:105A1000E491F0E0EE0FFF1FE052FF4F859194916B
:105A200099838883E9ECF0E0E491EC83E2EFF0E025
:105A3000E491F0E0EE0FFF1FE052FF4F859194914B
:105A40009B838A83EAECF0E0E491ED831F82188661
:105A500019861A8685E593E50197F1F7E881F981C2
:105A600090818C81982381E009F480E0EA81FB81B8
:105A700090812D81922309F082608E831B86D093C2
:105A80000503C093040382E190E00E946E33FC01A1
:105A900012821382148215828AE090E097838683B3
:105AA000108685E791E091838083118AF093070344
:105AB000E0930603109208031092090384E0809398
:105AC0000A0310920B0310920C0310920D03109214
:105AD0000E0310920F0310921003109211031092F4
